{
	"contracts/mycontract.sol": {
		"property": {
			"abi": [
				{
					"inputs": [
						{
							"internalType": "int256",
							"name": "_price",
							"type": "int256"
						},
						{
							"internalType": "string",
							"name": "_location",
							"type": "string"
						}
					],
					"stateMutability": "nonpayable",
					"type": "constructor"
				},
				{
					"inputs": [],
					"name": "getprice",
					"outputs": [
						{
							"internalType": "int256",
							"name": "",
							"type": "int256"
						}
					],
					"stateMutability": "view",
					"type": "function"
				},
				{
					"inputs": [],
					"name": "location",
					"outputs": [
						{
							"internalType": "string",
							"name": "",
							"type": "string"
						}
					],
					"stateMutability": "view",
					"type": "function"
				},
				{
					"inputs": [],
					"name": "owner",
					"outputs": [
						{
							"internalType": "address",
							"name": "",
							"type": "address"
						}
					],
					"stateMutability": "view",
					"type": "function"
				},
				{
					"inputs": [],
					"name": "price",
					"outputs": [
						{
							"internalType": "int256",
							"name": "",
							"type": "int256"
						}
					],
					"stateMutability": "view",
					"type": "function"
				},
				{
					"inputs": [
						{
							"internalType": "string",
							"name": "_location",
							"type": "string"
						}
					],
					"name": "setlocation",
					"outputs": [],
					"stateMutability": "nonpayable",
					"type": "function"
				},
				{
					"inputs": [
						{
							"internalType": "int256",
							"name": "_price",
							"type": "int256"
						}
					],
					"name": "setprice",
					"outputs": [],
					"stateMutability": "nonpayable",
					"type": "function"
				},
				{
					"inputs": [],
					"name": "sold",
					"outputs": [
						{
							"internalType": "bool",
							"name": "",
							"type": "bool"
						}
					],
					"stateMutability": "view",
					"type": "function"
				}
			],
			"devdoc": {
				"kind": "dev",
				"methods": {},
				"version": 1
			},
			"evm": {
				"assembly": "    /* \"contracts/mycontract.sol\":106:662  contract property {\r... */\n  mstore(0x40, 0x80)\n    /* \"contracts/mycontract.sol\":154:185  string public location=\"London\" */\n  mload(0x40)\n  dup1\n  0x40\n  add\n  0x40\n  mstore\n  dup1\n  0x06\n  dup2\n  mstore\n  0x20\n  add\n  0x4c6f6e646f6e0000000000000000000000000000000000000000000000000000\n  dup2\n  mstore\n  pop\n  0x01\n  swap1\n  dup1\n  mload\n  swap1\n  0x20\n  add\n  swap1\n  tag_1\n  swap3\n  swap2\n  swap1\n  tag_2\n  jump\t// in\ntag_1:\n  pop\n    /* \"contracts/mycontract.sol\":238:242  true */\n  0x01\n    /* \"contracts/mycontract.sol\":219:242  bool public sold = true */\n  0x02\n  exp(0x0100, 0x14)\n  dup2\n  sload\n  dup2\n  0xff\n  mul\n  not\n  and\n  swap1\n  dup4\n  iszero\n  iszero\n  mul\n  or\n  swap1\n  sstore\n  pop\n    /* \"contracts/mycontract.sol\":251:389  constructor(int _price , string memory _location){\r... */\n  callvalue\n  dup1\n  iszero\n  tag_3\n  jumpi\n  0x00\n  dup1\n  revert\ntag_3:\n  pop\n  mload(0x40)\n  sub(codesize, bytecodeSize)\n  dup1\n  bytecodeSize\n  dup4\n  codecopy\n  dup2\n  dup2\n  add\n  0x40\n  mstore\n  dup2\n  add\n  swap1\n  tag_4\n  swap2\n  swap1\n  tag_5\n  jump\t// in\ntag_4:\n    /* \"contracts/mycontract.sol\":318:324  _price */\n  dup2\n    /* \"contracts/mycontract.sol\":311:316  price */\n  0x00\n    /* \"contracts/mycontract.sol\":311:324  price= _price */\n  dup2\n  swap1\n  sstore\n  pop\n    /* \"contracts/mycontract.sol\":345:354  _location */\n  dup1\n    /* \"contracts/mycontract.sol\":335:343  location */\n  0x01\n    /* \"contracts/mycontract.sol\":335:354  location= _location */\n  swap1\n  dup1\n  mload\n  swap1\n  0x20\n  add\n  swap1\n  tag_8\n  swap3\n  swap2\n  swap1\n  tag_2\n  jump\t// in\ntag_8:\n  pop\n    /* \"contracts/mycontract.sol\":371:381  msg.sender */\n  caller\n    /* \"contracts/mycontract.sol\":365:370  owner */\n  0x02\n  0x00\n    /* \"contracts/mycontract.sol\":365:381  owner=msg.sender */\n  0x0100\n  exp\n  dup2\n  sload\n  dup2\n  0xffffffffffffffffffffffffffffffffffffffff\n  mul\n  not\n  and\n  swap1\n  dup4\n  0xffffffffffffffffffffffffffffffffffffffff\n  and\n  mul\n  or\n  swap1\n  sstore\n  pop\n    /* \"contracts/mycontract.sol\":251:389  constructor(int _price , string memory _location){\r... */\n  pop\n  pop\n    /* \"contracts/mycontract.sol\":106:662  contract property {\r... */\n  jump(tag_9)\ntag_2:\n  dup3\n  dup1\n  sload\n  tag_10\n  swap1\n  tag_11\n  jump\t// in\ntag_10:\n  swap1\n  0x00\n  mstore\n  keccak256(0x00, 0x20)\n  swap1\n  0x1f\n  add\n  0x20\n  swap1\n  div\n  dup2\n  add\n  swap3\n  dup3\n  tag_13\n  jumpi\n  0x00\n  dup6\n  sstore\n  jump(tag_12)\ntag_13:\n  dup3\n  0x1f\n  lt\n  tag_14\n  jumpi\n  dup1\n  mload\n  not(0xff)\n  and\n  dup4\n  dup1\n  add\n  or\n  dup6\n  sstore\n  jump(tag_12)\ntag_14:\n  dup3\n  dup1\n  add\n  0x01\n  add\n  dup6\n  sstore\n  dup3\n  iszero\n  tag_12\n  jumpi\n  swap2\n  dup3\n  add\ntag_15:\n  dup3\n  dup2\n  gt\n  iszero\n  tag_16\n  jumpi\n  dup3\n  mload\n  dup3\n  sstore\n  swap2\n  0x20\n  add\n  swap2\n  swap1\n  0x01\n  add\n  swap1\n  jump(tag_15)\ntag_16:\ntag_12:\n  pop\n  swap1\n  pop\n  tag_17\n  swap2\n  swap1\n  tag_18\n  jump\t// in\ntag_17:\n  pop\n  swap1\n  jump\t// out\ntag_18:\ntag_19:\n  dup1\n  dup3\n  gt\n  iszero\n  tag_20\n  jumpi\n  0x00\n  dup2\n  0x00\n  swap1\n  sstore\n  pop\n  0x01\n  add\n  jump(tag_19)\ntag_20:\n  pop\n  swap1\n  jump\t// out\n    /* \"#utility.yul\":7:428   */\ntag_22:\n    /* \"#utility.yul\":96:101   */\n  0x00\n    /* \"#utility.yul\":121:187   */\n  tag_24\n    /* \"#utility.yul\":137:186   */\n  tag_25\n    /* \"#utility.yul\":179:185   */\n  dup5\n    /* \"#utility.yul\":137:186   */\n  tag_26\n  jump\t// in\ntag_25:\n    /* \"#utility.yul\":121:187   */\n  tag_27\n  jump\t// in\ntag_24:\n    /* \"#utility.yul\":112:187   */\n  swap1\n  pop\n    /* \"#utility.yul\":210:216   */\n  dup3\n    /* \"#utility.yul\":203:208   */\n  dup2\n    /* \"#utility.yul\":196:217   */\n  mstore\n    /* \"#utility.yul\":248:252   */\n  0x20\n    /* \"#utility.yul\":241:246   */\n  dup2\n    /* \"#utility.yul\":237:253   */\n  add\n    /* \"#utility.yul\":286:289   */\n  dup5\n    /* \"#utility.yul\":277:283   */\n  dup5\n    /* \"#utility.yul\":272:275   */\n  dup5\n    /* \"#utility.yul\":268:284   */\n  add\n    /* \"#utility.yul\":265:290   */\n  gt\n    /* \"#utility.yul\":262:374   */\n  iszero\n  tag_28\n  jumpi\n    /* \"#utility.yul\":293:372   */\n  tag_29\n  tag_30\n  jump\t// in\ntag_29:\n    /* \"#utility.yul\":262:374   */\ntag_28:\n    /* \"#utility.yul\":383:422   */\n  tag_31\n    /* \"#utility.yul\":415:421   */\n  dup5\n    /* \"#utility.yul\":410:413   */\n  dup3\n    /* \"#utility.yul\":405:408   */\n  dup6\n    /* \"#utility.yul\":383:422   */\n  tag_32\n  jump\t// in\ntag_31:\n    /* \"#utility.yul\":102:428   */\n  pop\n    /* \"#utility.yul\":7:428   */\n  swap4\n  swap3\n  pop\n  pop\n  pop\n  jump\t// out\n    /* \"#utility.yul\":434:575   */\ntag_33:\n    /* \"#utility.yul\":490:495   */\n  0x00\n    /* \"#utility.yul\":521:527   */\n  dup2\n    /* \"#utility.yul\":515:528   */\n  mload\n    /* \"#utility.yul\":506:528   */\n  swap1\n  pop\n    /* \"#utility.yul\":537:569   */\n  tag_35\n    /* \"#utility.yul\":563:568   */\n  dup2\n    /* \"#utility.yul\":537:569   */\n  tag_36\n  jump\t// in\ntag_35:\n    /* \"#utility.yul\":434:575   */\n  swap3\n  swap2\n  pop\n  pop\n  jump\t// out\n    /* \"#utility.yul\":595:950   */\ntag_37:\n    /* \"#utility.yul\":662:667   */\n  0x00\n    /* \"#utility.yul\":711:714   */\n  dup3\n    /* \"#utility.yul\":704:708   */\n  0x1f\n    /* \"#utility.yul\":696:702   */\n  dup4\n    /* \"#utility.yul\":692:709   */\n  add\n    /* \"#utility.yul\":688:715   */\n  slt\n    /* \"#utility.yul\":678:800   */\n  tag_39\n  jumpi\n    /* \"#utility.yul\":719:798   */\n  tag_40\n  tag_41\n  jump\t// in\ntag_40:\n    /* \"#utility.yul\":678:800   */\ntag_39:\n    /* \"#utility.yul\":829:835   */\n  dup2\n    /* \"#utility.yul\":823:836   */\n  mload\n    /* \"#utility.yul\":854:944   */\n  tag_42\n    /* \"#utility.yul\":940:943   */\n  dup5\n    /* \"#utility.yul\":932:938   */\n  dup3\n    /* \"#utility.yul\":925:929   */\n  0x20\n    /* \"#utility.yul\":917:923   */\n  dup7\n    /* \"#utility.yul\":913:930   */\n  add\n    /* \"#utility.yul\":854:944   */\n  tag_22\n  jump\t// in\ntag_42:\n    /* \"#utility.yul\":845:944   */\n  swap2\n  pop\n    /* \"#utility.yul\":668:950   */\n  pop\n    /* \"#utility.yul\":595:950   */\n  swap3\n  swap2\n  pop\n  pop\n  jump\t// out\n    /* \"#utility.yul\":956:1634   */\ntag_5:\n    /* \"#utility.yul\":1044:1050   */\n  0x00\n    /* \"#utility.yul\":1052:1058   */\n  dup1\n    /* \"#utility.yul\":1101:1103   */\n  0x40\n    /* \"#utility.yul\":1089:1098   */\n  dup4\n    /* \"#utility.yul\":1080:1087   */\n  dup6\n    /* \"#utility.yul\":1076:1099   */\n  sub\n    /* \"#utility.yul\":1072:1104   */\n  slt\n    /* \"#utility.yul\":1069:1188   */\n  iszero\n  tag_44\n  jumpi\n    /* \"#utility.yul\":1107:1186   */\n  tag_45\n  tag_46\n  jump\t// in\ntag_45:\n    /* \"#utility.yul\":1069:1188   */\ntag_44:\n    /* \"#utility.yul\":1227:1228   */\n  0x00\n    /* \"#utility.yul\":1252:1315   */\n  tag_47\n    /* \"#utility.yul\":1307:1314   */\n  dup6\n    /* \"#utility.yul\":1298:1304   */\n  dup3\n    /* \"#utility.yul\":1287:1296   */\n  dup7\n    /* \"#utility.yul\":1283:1305   */\n  add\n    /* \"#utility.yul\":1252:1315   */\n  tag_33\n  jump\t// in\ntag_47:\n    /* \"#utility.yul\":1242:1315   */\n  swap3\n  pop\n    /* \"#utility.yul\":1198:1325   */\n  pop\n    /* \"#utility.yul\":1385:1387   */\n  0x20\n    /* \"#utility.yul\":1374:1383   */\n  dup4\n    /* \"#utility.yul\":1370:1388   */\n  add\n    /* \"#utility.yul\":1364:1389   */\n  mload\n    /* \"#utility.yul\":1416:1434   */\n  0xffffffffffffffff\n    /* \"#utility.yul\":1408:1414   */\n  dup2\n    /* \"#utility.yul\":1405:1435   */\n  gt\n    /* \"#utility.yul\":1402:1519   */\n  iszero\n  tag_48\n  jumpi\n    /* \"#utility.yul\":1438:1517   */\n  tag_49\n  tag_50\n  jump\t// in\ntag_49:\n    /* \"#utility.yul\":1402:1519   */\ntag_48:\n    /* \"#utility.yul\":1543:1617   */\n  tag_51\n    /* \"#utility.yul\":1609:1616   */\n  dup6\n    /* \"#utility.yul\":1600:1606   */\n  dup3\n    /* \"#utility.yul\":1589:1598   */\n  dup7\n    /* \"#utility.yul\":1585:1607   */\n  add\n    /* \"#utility.yul\":1543:1617   */\n  tag_37\n  jump\t// in\ntag_51:\n    /* \"#utility.yul\":1533:1617   */\n  swap2\n  pop\n    /* \"#utility.yul\":1335:1627   */\n  pop\n    /* \"#utility.yul\":956:1634   */\n  swap3\n  pop\n  swap3\n  swap1\n  pop\n  jump\t// out\n    /* \"#utility.yul\":1640:1769   */\ntag_27:\n    /* \"#utility.yul\":1674:1680   */\n  0x00\n    /* \"#utility.yul\":1701:1721   */\n  tag_53\n  tag_54\n  jump\t// in\ntag_53:\n    /* \"#utility.yul\":1691:1721   */\n  swap1\n  pop\n    /* \"#utility.yul\":1730:1763   */\n  tag_55\n    /* \"#utility.yul\":1758:1762   */\n  dup3\n    /* \"#utility.yul\":1750:1756   */\n  dup3\n    /* \"#utility.yul\":1730:1763   */\n  tag_56\n  jump\t// in\ntag_55:\n    /* \"#utility.yul\":1640:1769   */\n  swap2\n  swap1\n  pop\n  jump\t// out\n    /* \"#utility.yul\":1775:1850   */\ntag_54:\n    /* \"#utility.yul\":1808:1814   */\n  0x00\n    /* \"#utility.yul\":1841:1843   */\n  0x40\n    /* \"#utility.yul\":1835:1844   */\n  mload\n    /* \"#utility.yul\":1825:1844   */\n  swap1\n  pop\n    /* \"#utility.yul\":1775:1850   */\n  swap1\n  jump\t// out\n    /* \"#utility.yul\":1856:2164   */\ntag_26:\n    /* \"#utility.yul\":1918:1922   */\n  0x00\n    /* \"#utility.yul\":2008:2026   */\n  0xffffffffffffffff\n    /* \"#utility.yul\":2000:2006   */\n  dup3\n    /* \"#utility.yul\":1997:2027   */\n  gt\n    /* \"#utility.yul\":1994:2050   */\n  iszero\n  tag_59\n  jumpi\n    /* \"#utility.yul\":2030:2048   */\n  tag_60\n  tag_61\n  jump\t// in\ntag_60:\n    /* \"#utility.yul\":1994:2050   */\ntag_59:\n    /* \"#utility.yul\":2068:2097   */\n  tag_62\n    /* \"#utility.yul\":2090:2096   */\n  dup3\n    /* \"#utility.yul\":2068:2097   */\n  tag_63\n  jump\t// in\ntag_62:\n    /* \"#utility.yul\":2060:2097   */\n  swap1\n  pop\n    /* \"#utility.yul\":2152:2156   */\n  0x20\n    /* \"#utility.yul\":2146:2150   */\n  dup2\n    /* \"#utility.yul\":2142:2157   */\n  add\n    /* \"#utility.yul\":2134:2157   */\n  swap1\n  pop\n    /* \"#utility.yul\":1856:2164   */\n  swap2\n  swap1\n  pop\n  jump\t// out\n    /* \"#utility.yul\":2170:2246   */\ntag_64:\n    /* \"#utility.yul\":2206:2213   */\n  0x00\n    /* \"#utility.yul\":2235:2240   */\n  dup2\n    /* \"#utility.yul\":2224:2240   */\n  swap1\n  pop\n    /* \"#utility.yul\":2170:2246   */\n  swap2\n  swap1\n  pop\n  jump\t// out\n    /* \"#utility.yul\":2252:2559   */\ntag_32:\n    /* \"#utility.yul\":2320:2321   */\n  0x00\n    /* \"#utility.yul\":2330:2443   */\ntag_67:\n    /* \"#utility.yul\":2344:2350   */\n  dup4\n    /* \"#utility.yul\":2341:2342   */\n  dup2\n    /* \"#utility.yul\":2338:2351   */\n  lt\n    /* \"#utility.yul\":2330:2443   */\n  iszero\n  tag_69\n  jumpi\n    /* \"#utility.yul\":2429:2430   */\n  dup1\n    /* \"#utility.yul\":2424:2427   */\n  dup3\n    /* \"#utility.yul\":2420:2431   */\n  add\n    /* \"#utility.yul\":2414:2432   */\n  mload\n    /* \"#utility.yul\":2410:2411   */\n  dup2\n    /* \"#utility.yul\":2405:2408   */\n  dup5\n    /* \"#utility.yul\":2401:2412   */\n  add\n    /* \"#utility.yul\":2394:2433   */\n  mstore\n    /* \"#utility.yul\":2366:2368   */\n  0x20\n    /* \"#utility.yul\":2363:2364   */\n  dup2\n    /* \"#utility.yul\":2359:2369   */\n  add\n    /* \"#utility.yul\":2354:2369   */\n  swap1\n  pop\n    /* \"#utility.yul\":2330:2443   */\n  jump(tag_67)\ntag_69:\n    /* \"#utility.yul\":2461:2467   */\n  dup4\n    /* \"#utility.yul\":2458:2459   */\n  dup2\n    /* \"#utility.yul\":2455:2468   */\n  gt\n    /* \"#utility.yul\":2452:2553   */\n  iszero\n  tag_70\n  jumpi\n    /* \"#utility.yul\":2541:2542   */\n  0x00\n    /* \"#utility.yul\":2532:2538   */\n  dup5\n    /* \"#utility.yul\":2527:2530   */\n  dup5\n    /* \"#utility.yul\":2523:2539   */\n  add\n    /* \"#utility.yul\":2516:2543   */\n  mstore\n    /* \"#utility.yul\":2452:2553   */\ntag_70:\n    /* \"#utility.yul\":2301:2559   */\n  pop\n    /* \"#utility.yul\":2252:2559   */\n  pop\n  pop\n  pop\n  jump\t// out\n    /* \"#utility.yul\":2565:2885   */\ntag_11:\n    /* \"#utility.yul\":2609:2615   */\n  0x00\n    /* \"#utility.yul\":2646:2647   */\n  0x02\n    /* \"#utility.yul\":2640:2644   */\n  dup3\n    /* \"#utility.yul\":2636:2648   */\n  div\n    /* \"#utility.yul\":2626:2648   */\n  swap1\n  pop\n    /* \"#utility.yul\":2693:2694   */\n  0x01\n    /* \"#utility.yul\":2687:2691   */\n  dup3\n    /* \"#utility.yul\":2683:2695   */\n  and\n    /* \"#utility.yul\":2714:2732   */\n  dup1\n    /* \"#utility.yul\":2704:2785   */\n  tag_72\n  jumpi\n    /* \"#utility.yul\":2770:2774   */\n  0x7f\n    /* \"#utility.yul\":2762:2768   */\n  dup3\n    /* \"#utility.yul\":2758:2775   */\n  and\n    /* \"#utility.yul\":2748:2775   */\n  swap2\n  pop\n    /* \"#utility.yul\":2704:2785   */\ntag_72:\n    /* \"#utility.yul\":2832:2834   */\n  0x20\n    /* \"#utility.yul\":2824:2830   */\n  dup3\n    /* \"#utility.yul\":2821:2835   */\n  lt\n    /* \"#utility.yul\":2801:2819   */\n  dup2\n    /* \"#utility.yul\":2798:2836   */\n  eq\n    /* \"#utility.yul\":2795:2879   */\n  iszero\n  tag_73\n  jumpi\n    /* \"#utility.yul\":2851:2869   */\n  tag_74\n  tag_75\n  jump\t// in\ntag_74:\n    /* \"#utility.yul\":2795:2879   */\ntag_73:\n    /* \"#utility.yul\":2616:2885   */\n  pop\n    /* \"#utility.yul\":2565:2885   */\n  swap2\n  swap1\n  pop\n  jump\t// out\n    /* \"#utility.yul\":2891:3172   */\ntag_56:\n    /* \"#utility.yul\":2974:3001   */\n  tag_77\n    /* \"#utility.yul\":2996:3000   */\n  dup3\n    /* \"#utility.yul\":2974:3001   */\n  tag_63\n  jump\t// in\ntag_77:\n    /* \"#utility.yul\":2966:2972   */\n  dup2\n    /* \"#utility.yul\":2962:3002   */\n  add\n    /* \"#utility.yul\":3104:3110   */\n  dup2\n    /* \"#utility.yul\":3092:3102   */\n  dup2\n    /* \"#utility.yul\":3089:3111   */\n  lt\n    /* \"#utility.yul\":3068:3086   */\n  0xffffffffffffffff\n    /* \"#utility.yul\":3056:3066   */\n  dup3\n    /* \"#utility.yul\":3053:3087   */\n  gt\n    /* \"#utility.yul\":3050:3112   */\n  or\n    /* \"#utility.yul\":3047:3135   */\n  iszero\n  tag_78\n  jumpi\n    /* \"#utility.yul\":3115:3133   */\n  tag_79\n  tag_61\n  jump\t// in\ntag_79:\n    /* \"#utility.yul\":3047:3135   */\ntag_78:\n    /* \"#utility.yul\":3155:3165   */\n  dup1\n    /* \"#utility.yul\":3151:3153   */\n  0x40\n    /* \"#utility.yul\":3144:3166   */\n  mstore\n    /* \"#utility.yul\":2934:3172   */\n  pop\n    /* \"#utility.yul\":2891:3172   */\n  pop\n  pop\n  jump\t// out\n    /* \"#utility.yul\":3178:3358   */\ntag_75:\n    /* \"#utility.yul\":3226:3303   */\n  0x4e487b7100000000000000000000000000000000000000000000000000000000\n    /* \"#utility.yul\":3223:3224   */\n  0x00\n    /* \"#utility.yul\":3216:3304   */\n  mstore\n    /* \"#utility.yul\":3323:3327   */\n  0x22\n    /* \"#utility.yul\":3320:3321   */\n  0x04\n    /* \"#utility.yul\":3313:3328   */\n  mstore\n    /* \"#utility.yul\":3347:3351   */\n  0x24\n    /* \"#utility.yul\":3344:3345   */\n  0x00\n    /* \"#utility.yul\":3337:3352   */\n  revert\n    /* \"#utility.yul\":3364:3544   */\ntag_61:\n    /* \"#utility.yul\":3412:3489   */\n  0x4e487b7100000000000000000000000000000000000000000000000000000000\n    /* \"#utility.yul\":3409:3410   */\n  0x00\n    /* \"#utility.yul\":3402:3490   */\n  mstore\n    /* \"#utility.yul\":3509:3513   */\n  0x41\n    /* \"#utility.yul\":3506:3507   */\n  0x04\n    /* \"#utility.yul\":3499:3514   */\n  mstore\n    /* \"#utility.yul\":3533:3537   */\n  0x24\n    /* \"#utility.yul\":3530:3531   */\n  0x00\n    /* \"#utility.yul\":3523:3538   */\n  revert\n    /* \"#utility.yul\":3550:3667   */\ntag_41:\n    /* \"#utility.yul\":3659:3660   */\n  0x00\n    /* \"#utility.yul\":3656:3657   */\n  dup1\n    /* \"#utility.yul\":3649:3661   */\n  revert\n    /* \"#utility.yul\":3673:3790   */\ntag_30:\n    /* \"#utility.yul\":3782:3783   */\n  0x00\n    /* \"#utility.yul\":3779:3780   */\n  dup1\n    /* \"#utility.yul\":3772:3784   */\n  revert\n    /* \"#utility.yul\":3796:3913   */\ntag_50:\n    /* \"#utility.yul\":3905:3906   */\n  0x00\n    /* \"#utility.yul\":3902:3903   */\n  dup1\n    /* \"#utility.yul\":3895:3907   */\n  revert\n    /* \"#utility.yul\":3919:4036   */\ntag_46:\n    /* \"#utility.yul\":4028:4029   */\n  0x00\n    /* \"#utility.yul\":4025:4026   */\n  dup1\n    /* \"#utility.yul\":4018:4030   */\n  revert\n    /* \"#utility.yul\":4042:4144   */\ntag_63:\n    /* \"#utility.yul\":4083:4089   */\n  0x00\n    /* \"#utility.yul\":4134:4136   */\n  0x1f\n    /* \"#utility.yul\":4130:4137   */\n  not\n    /* \"#utility.yul\":4125:4127   */\n  0x1f\n    /* \"#utility.yul\":4118:4123   */\n  dup4\n    /* \"#utility.yul\":4114:4128   */\n  add\n    /* \"#utility.yul\":4110:4138   */\n  and\n    /* \"#utility.yul\":4100:4138   */\n  swap1\n  pop\n    /* \"#utility.yul\":4042:4144   */\n  swap2\n  swap1\n  pop\n  jump\t// out\n    /* \"#utility.yul\":4150:4270   */\ntag_36:\n    /* \"#utility.yul\":4222:4245   */\n  tag_88\n    /* \"#utility.yul\":4239:4244   */\n  dup2\n    /* \"#utility.yul\":4222:4245   */\n  tag_64\n  jump\t// in\ntag_88:\n    /* \"#utility.yul\":4215:4220   */\n  dup2\n    /* \"#utility.yul\":4212:4246   */\n  eq\n    /* \"#utility.yul\":4202:4264   */\n  tag_89\n  jumpi\n    /* \"#utility.yul\":4260:4261   */\n  0x00\n    /* \"#utility.yul\":4257:4258   */\n  dup1\n    /* \"#utility.yul\":4250:4262   */\n  revert\n    /* \"#utility.yul\":4202:4264   */\ntag_89:\n    /* \"#utility.yul\":4150:4270   */\n  pop\n  jump\t// out\n    /* \"contracts/mycontract.sol\":106:662  contract property {\r... */\ntag_9:\n  dataSize(sub_0)\n  dup1\n  dataOffset(sub_0)\n  0x00\n  codecopy\n  0x00\n  return\nstop\n\nsub_0: assembly {\n        /* \"contracts/mycontract.sol\":106:662  contract property {\r... */\n      mstore(0x40, 0x80)\n      callvalue\n      dup1\n      iszero\n      tag_1\n      jumpi\n      0x00\n      dup1\n      revert\n    tag_1:\n      pop\n      jumpi(tag_2, lt(calldatasize, 0x04))\n      shr(0xe0, calldataload(0x00))\n      dup1\n      0x8da5cb5b\n      gt\n      tag_10\n      jumpi\n      dup1\n      0x8da5cb5b\n      eq\n      tag_6\n      jumpi\n      dup1\n      0xa035b1fe\n      eq\n      tag_7\n      jumpi\n      dup1\n      0xc5785975\n      eq\n      tag_8\n      jumpi\n      dup1\n      0xecc99d54\n      eq\n      tag_9\n      jumpi\n      jump(tag_2)\n    tag_10:\n      dup1\n      0x02c7e7af\n      eq\n      tag_3\n      jumpi\n      dup1\n      0x0fcb5984\n      eq\n      tag_4\n      jumpi\n      dup1\n      0x516f279e\n      eq\n      tag_5\n      jumpi\n    tag_2:\n      0x00\n      dup1\n      revert\n        /* \"contracts/mycontract.sol\":219:242  bool public sold = true */\n    tag_3:\n      tag_11\n      tag_12\n      jump\t// in\n    tag_11:\n      mload(0x40)\n      tag_13\n      swap2\n      swap1\n      tag_14\n      jump\t// in\n    tag_13:\n      mload(0x40)\n      dup1\n      swap2\n      sub\n      swap1\n      return\n        /* \"contracts/mycontract.sol\":574:651  function getprice() public view returns  (int){\r... */\n    tag_4:\n      tag_15\n      tag_16\n      jump\t// in\n    tag_15:\n      mload(0x40)\n      tag_17\n      swap2\n      swap1\n      tag_18\n      jump\t// in\n    tag_17:\n      mload(0x40)\n      dup1\n      swap2\n      sub\n      swap1\n      return\n        /* \"contracts/mycontract.sol\":154:185  string public location=\"London\" */\n    tag_5:\n      tag_19\n      tag_20\n      jump\t// in\n    tag_19:\n      mload(0x40)\n      tag_21\n      swap2\n      swap1\n      tag_22\n      jump\t// in\n    tag_21:\n      mload(0x40)\n      dup1\n      swap2\n      sub\n      swap1\n      return\n        /* \"contracts/mycontract.sol\":192:212  address public owner */\n    tag_6:\n      tag_23\n      tag_24\n      jump\t// in\n    tag_23:\n      mload(0x40)\n      tag_25\n      swap2\n      swap1\n      tag_26\n      jump\t// in\n    tag_25:\n      mload(0x40)\n      dup1\n      swap2\n      sub\n      swap1\n      return\n        /* \"contracts/mycontract.sol\":131:147  int public price */\n    tag_7:\n      tag_27\n      tag_28\n      jump\t// in\n    tag_27:\n      mload(0x40)\n      tag_29\n      swap2\n      swap1\n      tag_18\n      jump\t// in\n    tag_29:\n      mload(0x40)\n      dup1\n      swap2\n      sub\n      swap1\n      return\n        /* \"contracts/mycontract.sol\":399:467  function setprice(int _price)public {\r... */\n    tag_8:\n      tag_30\n      0x04\n      dup1\n      calldatasize\n      sub\n      dup2\n      add\n      swap1\n      tag_31\n      swap2\n      swap1\n      tag_32\n      jump\t// in\n    tag_31:\n      tag_33\n      jump\t// in\n    tag_30:\n      stop\n        /* \"contracts/mycontract.sol\":476:566  function setlocation(string memory _location)public {\r... */\n    tag_9:\n      tag_34\n      0x04\n      dup1\n      calldatasize\n      sub\n      dup2\n      add\n      swap1\n      tag_35\n      swap2\n      swap1\n      tag_36\n      jump\t// in\n    tag_35:\n      tag_37\n      jump\t// in\n    tag_34:\n      stop\n        /* \"contracts/mycontract.sol\":219:242  bool public sold = true */\n    tag_12:\n      0x02\n      0x14\n      swap1\n      sload\n      swap1\n      0x0100\n      exp\n      swap1\n      div\n      0xff\n      and\n      dup2\n      jump\t// out\n        /* \"contracts/mycontract.sol\":574:651  function getprice() public view returns  (int){\r... */\n    tag_16:\n        /* \"contracts/mycontract.sol\":616:619  int */\n      0x00\n        /* \"contracts/mycontract.sol\":638:643  price */\n      dup1\n      sload\n        /* \"contracts/mycontract.sol\":631:643  return price */\n      swap1\n      pop\n        /* \"contracts/mycontract.sol\":574:651  function getprice() public view returns  (int){\r... */\n      swap1\n      jump\t// out\n        /* \"contracts/mycontract.sol\":154:185  string public location=\"London\" */\n    tag_20:\n      0x01\n      dup1\n      sload\n      tag_39\n      swap1\n      tag_40\n      jump\t// in\n    tag_39:\n      dup1\n      0x1f\n      add\n      0x20\n      dup1\n      swap2\n      div\n      mul\n      0x20\n      add\n      mload(0x40)\n      swap1\n      dup2\n      add\n      0x40\n      mstore\n      dup1\n      swap3\n      swap2\n      swap1\n      dup2\n      dup2\n      mstore\n      0x20\n      add\n      dup3\n      dup1\n      sload\n      tag_41\n      swap1\n      tag_40\n      jump\t// in\n    tag_41:\n      dup1\n      iszero\n      tag_42\n      jumpi\n      dup1\n      0x1f\n      lt\n      tag_43\n      jumpi\n      0x0100\n      dup1\n      dup4\n      sload\n      div\n      mul\n      dup4\n      mstore\n      swap2\n      0x20\n      add\n      swap2\n      jump(tag_42)\n    tag_43:\n      dup3\n      add\n      swap2\n      swap1\n      0x00\n      mstore\n      keccak256(0x00, 0x20)\n      swap1\n    tag_44:\n      dup2\n      sload\n      dup2\n      mstore\n      swap1\n      0x01\n      add\n      swap1\n      0x20\n      add\n      dup1\n      dup4\n      gt\n      tag_44\n      jumpi\n      dup3\n      swap1\n      sub\n      0x1f\n      and\n      dup3\n      add\n      swap2\n    tag_42:\n      pop\n      pop\n      pop\n      pop\n      pop\n      dup2\n      jump\t// out\n        /* \"contracts/mycontract.sol\":192:212  address public owner */\n    tag_24:\n      0x02\n      0x00\n      swap1\n      sload\n      swap1\n      0x0100\n      exp\n      swap1\n      div\n      0xffffffffffffffffffffffffffffffffffffffff\n      and\n      dup2\n      jump\t// out\n        /* \"contracts/mycontract.sol\":131:147  int public price */\n    tag_28:\n      sload(0x00)\n      dup2\n      jump\t// out\n        /* \"contracts/mycontract.sol\":399:467  function setprice(int _price)public {\r... */\n    tag_33:\n        /* \"contracts/mycontract.sol\":453:459  _price */\n      dup1\n        /* \"contracts/mycontract.sol\":446:451  price */\n      0x00\n        /* \"contracts/mycontract.sol\":446:459  price= _price */\n      dup2\n      swap1\n      sstore\n      pop\n        /* \"contracts/mycontract.sol\":399:467  function setprice(int _price)public {\r... */\n      pop\n      jump\t// out\n        /* \"contracts/mycontract.sol\":476:566  function setlocation(string memory _location)public {\r... */\n    tag_37:\n        /* \"contracts/mycontract.sol\":549:558  _location */\n      dup1\n        /* \"contracts/mycontract.sol\":539:547  location */\n      0x01\n        /* \"contracts/mycontract.sol\":539:558  location= _location */\n      swap1\n      dup1\n      mload\n      swap1\n      0x20\n      add\n      swap1\n      tag_47\n      swap3\n      swap2\n      swap1\n      tag_48\n      jump\t// in\n    tag_47:\n      pop\n        /* \"contracts/mycontract.sol\":476:566  function setlocation(string memory _location)public {\r... */\n      pop\n      jump\t// out\n    tag_48:\n      dup3\n      dup1\n      sload\n      tag_49\n      swap1\n      tag_40\n      jump\t// in\n    tag_49:\n      swap1\n      0x00\n      mstore\n      keccak256(0x00, 0x20)\n      swap1\n      0x1f\n      add\n      0x20\n      swap1\n      div\n      dup2\n      add\n      swap3\n      dup3\n      tag_51\n      jumpi\n      0x00\n      dup6\n      sstore\n      jump(tag_50)\n    tag_51:\n      dup3\n      0x1f\n      lt\n      tag_52\n      jumpi\n      dup1\n      mload\n      not(0xff)\n      and\n      dup4\n      dup1\n      add\n      or\n      dup6\n      sstore\n      jump(tag_50)\n    tag_52:\n      dup3\n      dup1\n      add\n      0x01\n      add\n      dup6\n      sstore\n      dup3\n      iszero\n      tag_50\n      jumpi\n      swap2\n      dup3\n      add\n    tag_53:\n      dup3\n      dup2\n      gt\n      iszero\n      tag_54\n      jumpi\n      dup3\n      mload\n      dup3\n      sstore\n      swap2\n      0x20\n      add\n      swap2\n      swap1\n      0x01\n      add\n      swap1\n      jump(tag_53)\n    tag_54:\n    tag_50:\n      pop\n      swap1\n      pop\n      tag_55\n      swap2\n      swap1\n      tag_56\n      jump\t// in\n    tag_55:\n      pop\n      swap1\n      jump\t// out\n    tag_56:\n    tag_57:\n      dup1\n      dup3\n      gt\n      iszero\n      tag_58\n      jumpi\n      0x00\n      dup2\n      0x00\n      swap1\n      sstore\n      pop\n      0x01\n      add\n      jump(tag_57)\n    tag_58:\n      pop\n      swap1\n      jump\t// out\n        /* \"#utility.yul\":7:419   */\n    tag_60:\n        /* \"#utility.yul\":85:90   */\n      0x00\n        /* \"#utility.yul\":110:176   */\n      tag_62\n        /* \"#utility.yul\":126:175   */\n      tag_63\n        /* \"#utility.yul\":168:174   */\n      dup5\n        /* \"#utility.yul\":126:175   */\n      tag_64\n      jump\t// in\n    tag_63:\n        /* \"#utility.yul\":110:176   */\n      tag_65\n      jump\t// in\n    tag_62:\n        /* \"#utility.yul\":101:176   */\n      swap1\n      pop\n        /* \"#utility.yul\":199:205   */\n      dup3\n        /* \"#utility.yul\":192:197   */\n      dup2\n        /* \"#utility.yul\":185:206   */\n      mstore\n        /* \"#utility.yul\":237:241   */\n      0x20\n        /* \"#utility.yul\":230:235   */\n      dup2\n        /* \"#utility.yul\":226:242   */\n      add\n        /* \"#utility.yul\":275:278   */\n      dup5\n        /* \"#utility.yul\":266:272   */\n      dup5\n        /* \"#utility.yul\":261:264   */\n      dup5\n        /* \"#utility.yul\":257:273   */\n      add\n        /* \"#utility.yul\":254:279   */\n      gt\n        /* \"#utility.yul\":251:363   */\n      iszero\n      tag_66\n      jumpi\n        /* \"#utility.yul\":282:361   */\n      tag_67\n      tag_68\n      jump\t// in\n    tag_67:\n        /* \"#utility.yul\":251:363   */\n    tag_66:\n        /* \"#utility.yul\":372:413   */\n      tag_69\n        /* \"#utility.yul\":406:412   */\n      dup5\n        /* \"#utility.yul\":401:404   */\n      dup3\n        /* \"#utility.yul\":396:399   */\n      dup6\n        /* \"#utility.yul\":372:413   */\n      tag_70\n      jump\t// in\n    tag_69:\n        /* \"#utility.yul\":91:419   */\n      pop\n        /* \"#utility.yul\":7:419   */\n      swap4\n      swap3\n      pop\n      pop\n      pop\n      jump\t// out\n        /* \"#utility.yul\":425:562   */\n    tag_71:\n        /* \"#utility.yul\":470:475   */\n      0x00\n        /* \"#utility.yul\":508:514   */\n      dup2\n        /* \"#utility.yul\":495:515   */\n      calldataload\n        /* \"#utility.yul\":486:515   */\n      swap1\n      pop\n        /* \"#utility.yul\":524:556   */\n      tag_73\n        /* \"#utility.yul\":550:555   */\n      dup2\n        /* \"#utility.yul\":524:556   */\n      tag_74\n      jump\t// in\n    tag_73:\n        /* \"#utility.yul\":425:562   */\n      swap3\n      swap2\n      pop\n      pop\n      jump\t// out\n        /* \"#utility.yul\":582:922   */\n    tag_75:\n        /* \"#utility.yul\":638:643   */\n      0x00\n        /* \"#utility.yul\":687:690   */\n      dup3\n        /* \"#utility.yul\":680:684   */\n      0x1f\n        /* \"#utility.yul\":672:678   */\n      dup4\n        /* \"#utility.yul\":668:685   */\n      add\n        /* \"#utility.yul\":664:691   */\n      slt\n        /* \"#utility.yul\":654:776   */\n      tag_77\n      jumpi\n        /* \"#utility.yul\":695:774   */\n      tag_78\n      tag_79\n      jump\t// in\n    tag_78:\n        /* \"#utility.yul\":654:776   */\n    tag_77:\n        /* \"#utility.yul\":812:818   */\n      dup2\n        /* \"#utility.yul\":799:819   */\n      calldataload\n        /* \"#utility.yul\":837:916   */\n      tag_80\n        /* \"#utility.yul\":912:915   */\n      dup5\n        /* \"#utility.yul\":904:910   */\n      dup3\n        /* \"#utility.yul\":897:901   */\n      0x20\n        /* \"#utility.yul\":889:895   */\n      dup7\n        /* \"#utility.yul\":885:902   */\n      add\n        /* \"#utility.yul\":837:916   */\n      tag_60\n      jump\t// in\n    tag_80:\n        /* \"#utility.yul\":828:916   */\n      swap2\n      pop\n        /* \"#utility.yul\":644:922   */\n      pop\n        /* \"#utility.yul\":582:922   */\n      swap3\n      swap2\n      pop\n      pop\n      jump\t// out\n        /* \"#utility.yul\":928:1255   */\n    tag_32:\n        /* \"#utility.yul\":986:992   */\n      0x00\n        /* \"#utility.yul\":1035:1037   */\n      0x20\n        /* \"#utility.yul\":1023:1032   */\n      dup3\n        /* \"#utility.yul\":1014:1021   */\n      dup5\n        /* \"#utility.yul\":1010:1033   */\n      sub\n        /* \"#utility.yul\":1006:1038   */\n      slt\n        /* \"#utility.yul\":1003:1122   */\n      iszero\n      tag_82\n      jumpi\n        /* \"#utility.yul\":1041:1120   */\n      tag_83\n      tag_84\n      jump\t// in\n    tag_83:\n        /* \"#utility.yul\":1003:1122   */\n    tag_82:\n        /* \"#utility.yul\":1161:1162   */\n      0x00\n        /* \"#utility.yul\":1186:1238   */\n      tag_85\n        /* \"#utility.yul\":1230:1237   */\n      dup5\n        /* \"#utility.yul\":1221:1227   */\n      dup3\n        /* \"#utility.yul\":1210:1219   */\n      dup6\n        /* \"#utility.yul\":1206:1228   */\n      add\n        /* \"#utility.yul\":1186:1238   */\n      tag_71\n      jump\t// in\n    tag_85:\n        /* \"#utility.yul\":1176:1238   */\n      swap2\n      pop\n        /* \"#utility.yul\":1132:1248   */\n      pop\n        /* \"#utility.yul\":928:1255   */\n      swap3\n      swap2\n      pop\n      pop\n      jump\t// out\n        /* \"#utility.yul\":1261:1770   */\n    tag_36:\n        /* \"#utility.yul\":1330:1336   */\n      0x00\n        /* \"#utility.yul\":1379:1381   */\n      0x20\n        /* \"#utility.yul\":1367:1376   */\n      dup3\n        /* \"#utility.yul\":1358:1365   */\n      dup5\n        /* \"#utility.yul\":1354:1377   */\n      sub\n        /* \"#utility.yul\":1350:1382   */\n      slt\n        /* \"#utility.yul\":1347:1466   */\n      iszero\n      tag_87\n      jumpi\n        /* \"#utility.yul\":1385:1464   */\n      tag_88\n      tag_84\n      jump\t// in\n    tag_88:\n        /* \"#utility.yul\":1347:1466   */\n    tag_87:\n        /* \"#utility.yul\":1533:1534   */\n      0x00\n        /* \"#utility.yul\":1522:1531   */\n      dup3\n        /* \"#utility.yul\":1518:1535   */\n      add\n        /* \"#utility.yul\":1505:1536   */\n      calldataload\n        /* \"#utility.yul\":1563:1581   */\n      0xffffffffffffffff\n        /* \"#utility.yul\":1555:1561   */\n      dup2\n        /* \"#utility.yul\":1552:1582   */\n      gt\n        /* \"#utility.yul\":1549:1666   */\n      iszero\n      tag_89\n      jumpi\n        /* \"#utility.yul\":1585:1664   */\n      tag_90\n      tag_91\n      jump\t// in\n    tag_90:\n        /* \"#utility.yul\":1549:1666   */\n    tag_89:\n        /* \"#utility.yul\":1690:1753   */\n      tag_92\n        /* \"#utility.yul\":1745:1752   */\n      dup5\n        /* \"#utility.yul\":1736:1742   */\n      dup3\n        /* \"#utility.yul\":1725:1734   */\n      dup6\n        /* \"#utility.yul\":1721:1743   */\n      add\n        /* \"#utility.yul\":1690:1753   */\n      tag_75\n      jump\t// in\n    tag_92:\n        /* \"#utility.yul\":1680:1753   */\n      swap2\n      pop\n        /* \"#utility.yul\":1476:1763   */\n      pop\n        /* \"#utility.yul\":1261:1770   */\n      swap3\n      swap2\n      pop\n      pop\n      jump\t// out\n        /* \"#utility.yul\":1776:1894   */\n    tag_93:\n        /* \"#utility.yul\":1863:1887   */\n      tag_95\n        /* \"#utility.yul\":1881:1886   */\n      dup2\n        /* \"#utility.yul\":1863:1887   */\n      tag_96\n      jump\t// in\n    tag_95:\n        /* \"#utility.yul\":1858:1861   */\n      dup3\n        /* \"#utility.yul\":1851:1888   */\n      mstore\n        /* \"#utility.yul\":1776:1894   */\n      pop\n      pop\n      jump\t// out\n        /* \"#utility.yul\":1900:2009   */\n    tag_97:\n        /* \"#utility.yul\":1981:2002   */\n      tag_99\n        /* \"#utility.yul\":1996:2001   */\n      dup2\n        /* \"#utility.yul\":1981:2002   */\n      tag_100\n      jump\t// in\n    tag_99:\n        /* \"#utility.yul\":1976:1979   */\n      dup3\n        /* \"#utility.yul\":1969:2003   */\n      mstore\n        /* \"#utility.yul\":1900:2009   */\n      pop\n      pop\n      jump\t// out\n        /* \"#utility.yul\":2015:2130   */\n    tag_101:\n        /* \"#utility.yul\":2100:2123   */\n      tag_103\n        /* \"#utility.yul\":2117:2122   */\n      dup2\n        /* \"#utility.yul\":2100:2123   */\n      tag_104\n      jump\t// in\n    tag_103:\n        /* \"#utility.yul\":2095:2098   */\n      dup3\n        /* \"#utility.yul\":2088:2124   */\n      mstore\n        /* \"#utility.yul\":2015:2130   */\n      pop\n      pop\n      jump\t// out\n        /* \"#utility.yul\":2136:2500   */\n    tag_105:\n        /* \"#utility.yul\":2224:2227   */\n      0x00\n        /* \"#utility.yul\":2252:2291   */\n      tag_107\n        /* \"#utility.yul\":2285:2290   */\n      dup3\n        /* \"#utility.yul\":2252:2291   */\n      tag_108\n      jump\t// in\n    tag_107:\n        /* \"#utility.yul\":2307:2378   */\n      tag_109\n        /* \"#utility.yul\":2371:2377   */\n      dup2\n        /* \"#utility.yul\":2366:2369   */\n      dup6\n        /* \"#utility.yul\":2307:2378   */\n      tag_110\n      jump\t// in\n    tag_109:\n        /* \"#utility.yul\":2300:2378   */\n      swap4\n      pop\n        /* \"#utility.yul\":2387:2439   */\n      tag_111\n        /* \"#utility.yul\":2432:2438   */\n      dup2\n        /* \"#utility.yul\":2427:2430   */\n      dup6\n        /* \"#utility.yul\":2420:2424   */\n      0x20\n        /* \"#utility.yul\":2413:2418   */\n      dup7\n        /* \"#utility.yul\":2409:2425   */\n      add\n        /* \"#utility.yul\":2387:2439   */\n      tag_112\n      jump\t// in\n    tag_111:\n        /* \"#utility.yul\":2464:2493   */\n      tag_113\n        /* \"#utility.yul\":2486:2492   */\n      dup2\n        /* \"#utility.yul\":2464:2493   */\n      tag_114\n      jump\t// in\n    tag_113:\n        /* \"#utility.yul\":2459:2462   */\n      dup5\n        /* \"#utility.yul\":2455:2494   */\n      add\n        /* \"#utility.yul\":2448:2494   */\n      swap2\n      pop\n        /* \"#utility.yul\":2228:2500   */\n      pop\n        /* \"#utility.yul\":2136:2500   */\n      swap3\n      swap2\n      pop\n      pop\n      jump\t// out\n        /* \"#utility.yul\":2506:2728   */\n    tag_26:\n        /* \"#utility.yul\":2599:2603   */\n      0x00\n        /* \"#utility.yul\":2637:2639   */\n      0x20\n        /* \"#utility.yul\":2626:2635   */\n      dup3\n        /* \"#utility.yul\":2622:2640   */\n      add\n        /* \"#utility.yul\":2614:2640   */\n      swap1\n      pop\n        /* \"#utility.yul\":2650:2721   */\n      tag_116\n        /* \"#utility.yul\":2718:2719   */\n      0x00\n        /* \"#utility.yul\":2707:2716   */\n      dup4\n        /* \"#utility.yul\":2703:2720   */\n      add\n        /* \"#utility.yul\":2694:2700   */\n      dup5\n        /* \"#utility.yul\":2650:2721   */\n      tag_93\n      jump\t// in\n    tag_116:\n        /* \"#utility.yul\":2506:2728   */\n      swap3\n      swap2\n      pop\n      pop\n      jump\t// out\n        /* \"#utility.yul\":2734:2944   */\n    tag_14:\n        /* \"#utility.yul\":2821:2825   */\n      0x00\n        /* \"#utility.yul\":2859:2861   */\n      0x20\n        /* \"#utility.yul\":2848:2857   */\n      dup3\n        /* \"#utility.yul\":2844:2862   */\n      add\n        /* \"#utility.yul\":2836:2862   */\n      swap1\n      pop\n        /* \"#utility.yul\":2872:2937   */\n      tag_118\n        /* \"#utility.yul\":2934:2935   */\n      0x00\n        /* \"#utility.yul\":2923:2932   */\n      dup4\n        /* \"#utility.yul\":2919:2936   */\n      add\n        /* \"#utility.yul\":2910:2916   */\n      dup5\n        /* \"#utility.yul\":2872:2937   */\n      tag_97\n      jump\t// in\n    tag_118:\n        /* \"#utility.yul\":2734:2944   */\n      swap3\n      swap2\n      pop\n      pop\n      jump\t// out\n        /* \"#utility.yul\":2950:3168   */\n    tag_18:\n        /* \"#utility.yul\":3041:3045   */\n      0x00\n        /* \"#utility.yul\":3079:3081   */\n      0x20\n        /* \"#utility.yul\":3068:3077   */\n      dup3\n        /* \"#utility.yul\":3064:3082   */\n      add\n        /* \"#utility.yul\":3056:3082   */\n      swap1\n      pop\n        /* \"#utility.yul\":3092:3161   */\n      tag_120\n        /* \"#utility.yul\":3158:3159   */\n      0x00\n        /* \"#utility.yul\":3147:3156   */\n      dup4\n        /* \"#utility.yul\":3143:3160   */\n      add\n        /* \"#utility.yul\":3134:3140   */\n      dup5\n        /* \"#utility.yul\":3092:3161   */\n      tag_101\n      jump\t// in\n    tag_120:\n        /* \"#utility.yul\":2950:3168   */\n      swap3\n      swap2\n      pop\n      pop\n      jump\t// out\n        /* \"#utility.yul\":3174:3487   */\n    tag_22:\n        /* \"#utility.yul\":3287:3291   */\n      0x00\n        /* \"#utility.yul\":3325:3327   */\n      0x20\n        /* \"#utility.yul\":3314:3323   */\n      dup3\n        /* \"#utility.yul\":3310:3328   */\n      add\n        /* \"#utility.yul\":3302:3328   */\n      swap1\n      pop\n        /* \"#utility.yul\":3374:3383   */\n      dup2\n        /* \"#utility.yul\":3368:3372   */\n      dup2\n        /* \"#utility.yul\":3364:3384   */\n      sub\n        /* \"#utility.yul\":3360:3361   */\n      0x00\n        /* \"#utility.yul\":3349:3358   */\n      dup4\n        /* \"#utility.yul\":3345:3362   */\n      add\n        /* \"#utility.yul\":3338:3385   */\n      mstore\n        /* \"#utility.yul\":3402:3480   */\n      tag_122\n        /* \"#utility.yul\":3475:3479   */\n      dup2\n        /* \"#utility.yul\":3466:3472   */\n      dup5\n        /* \"#utility.yul\":3402:3480   */\n      tag_105\n      jump\t// in\n    tag_122:\n        /* \"#utility.yul\":3394:3480   */\n      swap1\n      pop\n        /* \"#utility.yul\":3174:3487   */\n      swap3\n      swap2\n      pop\n      pop\n      jump\t// out\n        /* \"#utility.yul\":3493:3622   */\n    tag_65:\n        /* \"#utility.yul\":3527:3533   */\n      0x00\n        /* \"#utility.yul\":3554:3574   */\n      tag_124\n      tag_125\n      jump\t// in\n    tag_124:\n        /* \"#utility.yul\":3544:3574   */\n      swap1\n      pop\n        /* \"#utility.yul\":3583:3616   */\n      tag_126\n        /* \"#utility.yul\":3611:3615   */\n      dup3\n        /* \"#utility.yul\":3603:3609   */\n      dup3\n        /* \"#utility.yul\":3583:3616   */\n      tag_127\n      jump\t// in\n    tag_126:\n        /* \"#utility.yul\":3493:3622   */\n      swap2\n      swap1\n      pop\n      jump\t// out\n        /* \"#utility.yul\":3628:3703   */\n    tag_125:\n        /* \"#utility.yul\":3661:3667   */\n      0x00\n        /* \"#utility.yul\":3694:3696   */\n      0x40\n        /* \"#utility.yul\":3688:3697   */\n      mload\n        /* \"#utility.yul\":3678:3697   */\n      swap1\n      pop\n        /* \"#utility.yul\":3628:3703   */\n      swap1\n      jump\t// out\n        /* \"#utility.yul\":3709:4017   */\n    tag_64:\n        /* \"#utility.yul\":3771:3775   */\n      0x00\n        /* \"#utility.yul\":3861:3879   */\n      0xffffffffffffffff\n        /* \"#utility.yul\":3853:3859   */\n      dup3\n        /* \"#utility.yul\":3850:3880   */\n      gt\n        /* \"#utility.yul\":3847:3903   */\n      iszero\n      tag_130\n      jumpi\n        /* \"#utility.yul\":3883:3901   */\n      tag_131\n      tag_132\n      jump\t// in\n    tag_131:\n        /* \"#utility.yul\":3847:3903   */\n    tag_130:\n        /* \"#utility.yul\":3921:3950   */\n      tag_133\n        /* \"#utility.yul\":3943:3949   */\n      dup3\n        /* \"#utility.yul\":3921:3950   */\n      tag_114\n      jump\t// in\n    tag_133:\n        /* \"#utility.yul\":3913:3950   */\n      swap1\n      pop\n        /* \"#utility.yul\":4005:4009   */\n      0x20\n        /* \"#utility.yul\":3999:4003   */\n      dup2\n        /* \"#utility.yul\":3995:4010   */\n      add\n        /* \"#utility.yul\":3987:4010   */\n      swap1\n      pop\n        /* \"#utility.yul\":3709:4017   */\n      swap2\n      swap1\n      pop\n      jump\t// out\n        /* \"#utility.yul\":4023:4122   */\n    tag_108:\n        /* \"#utility.yul\":4075:4081   */\n      0x00\n        /* \"#utility.yul\":4109:4114   */\n      dup2\n        /* \"#utility.yul\":4103:4115   */\n      mload\n        /* \"#utility.yul\":4093:4115   */\n      swap1\n      pop\n        /* \"#utility.yul\":4023:4122   */\n      swap2\n      swap1\n      pop\n      jump\t// out\n        /* \"#utility.yul\":4128:4297   */\n    tag_110:\n        /* \"#utility.yul\":4212:4223   */\n      0x00\n        /* \"#utility.yul\":4246:4252   */\n      dup3\n        /* \"#utility.yul\":4241:4244   */\n      dup3\n        /* \"#utility.yul\":4234:4253   */\n      mstore\n        /* \"#utility.yul\":4286:4290   */\n      0x20\n        /* \"#utility.yul\":4281:4284   */\n      dup3\n        /* \"#utility.yul\":4277:4291   */\n      add\n        /* \"#utility.yul\":4262:4291   */\n      swap1\n      pop\n        /* \"#utility.yul\":4128:4297   */\n      swap3\n      swap2\n      pop\n      pop\n      jump\t// out\n        /* \"#utility.yul\":4303:4399   */\n    tag_96:\n        /* \"#utility.yul\":4340:4347   */\n      0x00\n        /* \"#utility.yul\":4369:4393   */\n      tag_137\n        /* \"#utility.yul\":4387:4392   */\n      dup3\n        /* \"#utility.yul\":4369:4393   */\n      tag_138\n      jump\t// in\n    tag_137:\n        /* \"#utility.yul\":4358:4393   */\n      swap1\n      pop\n        /* \"#utility.yul\":4303:4399   */\n      swap2\n      swap1\n      pop\n      jump\t// out\n        /* \"#utility.yul\":4405:4495   */\n    tag_100:\n        /* \"#utility.yul\":4439:4446   */\n      0x00\n        /* \"#utility.yul\":4482:4487   */\n      dup2\n        /* \"#utility.yul\":4475:4488   */\n      iszero\n        /* \"#utility.yul\":4468:4489   */\n      iszero\n        /* \"#utility.yul\":4457:4489   */\n      swap1\n      pop\n        /* \"#utility.yul\":4405:4495   */\n      swap2\n      swap1\n      pop\n      jump\t// out\n        /* \"#utility.yul\":4501:4577   */\n    tag_104:\n        /* \"#utility.yul\":4537:4544   */\n      0x00\n        /* \"#utility.yul\":4566:4571   */\n      dup2\n        /* \"#utility.yul\":4555:4571   */\n      swap1\n      pop\n        /* \"#utility.yul\":4501:4577   */\n      swap2\n      swap1\n      pop\n      jump\t// out\n        /* \"#utility.yul\":4583:4709   */\n    tag_138:\n        /* \"#utility.yul\":4620:4627   */\n      0x00\n        /* \"#utility.yul\":4660:4702   */\n      0xffffffffffffffffffffffffffffffffffffffff\n        /* \"#utility.yul\":4653:4658   */\n      dup3\n        /* \"#utility.yul\":4649:4703   */\n      and\n        /* \"#utility.yul\":4638:4703   */\n      swap1\n      pop\n        /* \"#utility.yul\":4583:4709   */\n      swap2\n      swap1\n      pop\n      jump\t// out\n        /* \"#utility.yul\":4715:4869   */\n    tag_70:\n        /* \"#utility.yul\":4799:4805   */\n      dup3\n        /* \"#utility.yul\":4794:4797   */\n      dup2\n        /* \"#utility.yul\":4789:4792   */\n      dup4\n        /* \"#utility.yul\":4776:4806   */\n      calldatacopy\n        /* \"#utility.yul\":4861:4862   */\n      0x00\n        /* \"#utility.yul\":4852:4858   */\n      dup4\n        /* \"#utility.yul\":4847:4850   */\n      dup4\n        /* \"#utility.yul\":4843:4859   */\n      add\n        /* \"#utility.yul\":4836:4863   */\n      mstore\n        /* \"#utility.yul\":4715:4869   */\n      pop\n      pop\n      pop\n      jump\t// out\n        /* \"#utility.yul\":4875:5182   */\n    tag_112:\n        /* \"#utility.yul\":4943:4944   */\n      0x00\n        /* \"#utility.yul\":4953:5066   */\n    tag_144:\n        /* \"#utility.yul\":4967:4973   */\n      dup4\n        /* \"#utility.yul\":4964:4965   */\n      dup2\n        /* \"#utility.yul\":4961:4974   */\n      lt\n        /* \"#utility.yul\":4953:5066   */\n      iszero\n      tag_146\n      jumpi\n        /* \"#utility.yul\":5052:5053   */\n      dup1\n        /* \"#utility.yul\":5047:5050   */\n      dup3\n        /* \"#utility.yul\":5043:5054   */\n      add\n        /* \"#utility.yul\":5037:5055   */\n      mload\n        /* \"#utility.yul\":5033:5034   */\n      dup2\n        /* \"#utility.yul\":5028:5031   */\n      dup5\n        /* \"#utility.yul\":5024:5035   */\n      add\n        /* \"#utility.yul\":5017:5056   */\n      mstore\n        /* \"#utility.yul\":4989:4991   */\n      0x20\n        /* \"#utility.yul\":4986:4987   */\n      dup2\n        /* \"#utility.yul\":4982:4992   */\n      add\n        /* \"#utility.yul\":4977:4992   */\n      swap1\n      pop\n        /* \"#utility.yul\":4953:5066   */\n      jump(tag_144)\n    tag_146:\n        /* \"#utility.yul\":5084:5090   */\n      dup4\n        /* \"#utility.yul\":5081:5082   */\n      dup2\n        /* \"#utility.yul\":5078:5091   */\n      gt\n        /* \"#utility.yul\":5075:5176   */\n      iszero\n      tag_147\n      jumpi\n        /* \"#utility.yul\":5164:5165   */\n      0x00\n        /* \"#utility.yul\":5155:5161   */\n      dup5\n        /* \"#utility.yul\":5150:5153   */\n      dup5\n        /* \"#utility.yul\":5146:5162   */\n      add\n        /* \"#utility.yul\":5139:5166   */\n      mstore\n        /* \"#utility.yul\":5075:5176   */\n    tag_147:\n        /* \"#utility.yul\":4924:5182   */\n      pop\n        /* \"#utility.yul\":4875:5182   */\n      pop\n      pop\n      pop\n      jump\t// out\n        /* \"#utility.yul\":5188:5508   */\n    tag_40:\n        /* \"#utility.yul\":5232:5238   */\n      0x00\n        /* \"#utility.yul\":5269:5270   */\n      0x02\n        /* \"#utility.yul\":5263:5267   */\n      dup3\n        /* \"#utility.yul\":5259:5271   */\n      div\n        /* \"#utility.yul\":5249:5271   */\n      swap1\n      pop\n        /* \"#utility.yul\":5316:5317   */\n      0x01\n        /* \"#utility.yul\":5310:5314   */\n      dup3\n        /* \"#utility.yul\":5306:5318   */\n      and\n        /* \"#utility.yul\":5337:5355   */\n      dup1\n        /* \"#utility.yul\":5327:5408   */\n      tag_149\n      jumpi\n        /* \"#utility.yul\":5393:5397   */\n      0x7f\n        /* \"#utility.yul\":5385:5391   */\n      dup3\n        /* \"#utility.yul\":5381:5398   */\n      and\n        /* \"#utility.yul\":5371:5398   */\n      swap2\n      pop\n        /* \"#utility.yul\":5327:5408   */\n    tag_149:\n        /* \"#utility.yul\":5455:5457   */\n      0x20\n        /* \"#utility.yul\":5447:5453   */\n      dup3\n        /* \"#utility.yul\":5444:5458   */\n      lt\n        /* \"#utility.yul\":5424:5442   */\n      dup2\n        /* \"#utility.yul\":5421:5459   */\n      eq\n        /* \"#utility.yul\":5418:5502   */\n      iszero\n      tag_150\n      jumpi\n        /* \"#utility.yul\":5474:5492   */\n      tag_151\n      tag_152\n      jump\t// in\n    tag_151:\n        /* \"#utility.yul\":5418:5502   */\n    tag_150:\n        /* \"#utility.yul\":5239:5508   */\n      pop\n        /* \"#utility.yul\":5188:5508   */\n      swap2\n      swap1\n      pop\n      jump\t// out\n        /* \"#utility.yul\":5514:5795   */\n    tag_127:\n        /* \"#utility.yul\":5597:5624   */\n      tag_154\n        /* \"#utility.yul\":5619:5623   */\n      dup3\n        /* \"#utility.yul\":5597:5624   */\n      tag_114\n      jump\t// in\n    tag_154:\n        /* \"#utility.yul\":5589:5595   */\n      dup2\n        /* \"#utility.yul\":5585:5625   */\n      add\n        /* \"#utility.yul\":5727:5733   */\n      dup2\n        /* \"#utility.yul\":5715:5725   */\n      dup2\n        /* \"#utility.yul\":5712:5734   */\n      lt\n        /* \"#utility.yul\":5691:5709   */\n      0xffffffffffffffff\n        /* \"#utility.yul\":5679:5689   */\n      dup3\n        /* \"#utility.yul\":5676:5710   */\n      gt\n        /* \"#utility.yul\":5673:5735   */\n      or\n        /* \"#utility.yul\":5670:5758   */\n      iszero\n      tag_155\n      jumpi\n        /* \"#utility.yul\":5738:5756   */\n      tag_156\n      tag_132\n      jump\t// in\n    tag_156:\n        /* \"#utility.yul\":5670:5758   */\n    tag_155:\n        /* \"#utility.yul\":5778:5788   */\n      dup1\n        /* \"#utility.yul\":5774:5776   */\n      0x40\n        /* \"#utility.yul\":5767:5789   */\n      mstore\n        /* \"#utility.yul\":5557:5795   */\n      pop\n        /* \"#utility.yul\":5514:5795   */\n      pop\n      pop\n      jump\t// out\n        /* \"#utility.yul\":5801:5981   */\n    tag_152:\n        /* \"#utility.yul\":5849:5926   */\n      0x4e487b7100000000000000000000000000000000000000000000000000000000\n        /* \"#utility.yul\":5846:5847   */\n      0x00\n        /* \"#utility.yul\":5839:5927   */\n      mstore\n        /* \"#utility.yul\":5946:5950   */\n      0x22\n        /* \"#utility.yul\":5943:5944   */\n      0x04\n        /* \"#utility.yul\":5936:5951   */\n      mstore\n        /* \"#utility.yul\":5970:5974   */\n      0x24\n        /* \"#utility.yul\":5967:5968   */\n      0x00\n        /* \"#utility.yul\":5960:5975   */\n      revert\n        /* \"#utility.yul\":5987:6167   */\n    tag_132:\n        /* \"#utility.yul\":6035:6112   */\n      0x4e487b7100000000000000000000000000000000000000000000000000000000\n        /* \"#utility.yul\":6032:6033   */\n      0x00\n        /* \"#utility.yul\":6025:6113   */\n      mstore\n        /* \"#utility.yul\":6132:6136   */\n      0x41\n        /* \"#utility.yul\":6129:6130   */\n      0x04\n        /* \"#utility.yul\":6122:6137   */\n      mstore\n        /* \"#utility.yul\":6156:6160   */\n      0x24\n        /* \"#utility.yul\":6153:6154   */\n      0x00\n        /* \"#utility.yul\":6146:6161   */\n      revert\n        /* \"#utility.yul\":6173:6290   */\n    tag_79:\n        /* \"#utility.yul\":6282:6283   */\n      0x00\n        /* \"#utility.yul\":6279:6280   */\n      dup1\n        /* \"#utility.yul\":6272:6284   */\n      revert\n        /* \"#utility.yul\":6296:6413   */\n    tag_68:\n        /* \"#utility.yul\":6405:6406   */\n      0x00\n        /* \"#utility.yul\":6402:6403   */\n      dup1\n        /* \"#utility.yul\":6395:6407   */\n      revert\n        /* \"#utility.yul\":6419:6536   */\n    tag_91:\n        /* \"#utility.yul\":6528:6529   */\n      0x00\n        /* \"#utility.yul\":6525:6526   */\n      dup1\n        /* \"#utility.yul\":6518:6530   */\n      revert\n        /* \"#utility.yul\":6542:6659   */\n    tag_84:\n        /* \"#utility.yul\":6651:6652   */\n      0x00\n        /* \"#utility.yul\":6648:6649   */\n      dup1\n        /* \"#utility.yul\":6641:6653   */\n      revert\n        /* \"#utility.yul\":6665:6767   */\n    tag_114:\n        /* \"#utility.yul\":6706:6712   */\n      0x00\n        /* \"#utility.yul\":6757:6759   */\n      0x1f\n        /* \"#utility.yul\":6753:6760   */\n      not\n        /* \"#utility.yul\":6748:6750   */\n      0x1f\n        /* \"#utility.yul\":6741:6746   */\n      dup4\n        /* \"#utility.yul\":6737:6751   */\n      add\n        /* \"#utility.yul\":6733:6761   */\n      and\n        /* \"#utility.yul\":6723:6761   */\n      swap1\n      pop\n        /* \"#utility.yul\":6665:6767   */\n      swap2\n      swap1\n      pop\n      jump\t// out\n        /* \"#utility.yul\":6773:6893   */\n    tag_74:\n        /* \"#utility.yul\":6845:6868   */\n      tag_165\n        /* \"#utility.yul\":6862:6867   */\n      dup2\n        /* \"#utility.yul\":6845:6868   */\n      tag_104\n      jump\t// in\n    tag_165:\n        /* \"#utility.yul\":6838:6843   */\n      dup2\n        /* \"#utility.yul\":6835:6869   */\n      eq\n        /* \"#utility.yul\":6825:6887   */\n      tag_166\n      jumpi\n        /* \"#utility.yul\":6883:6884   */\n      0x00\n        /* \"#utility.yul\":6880:6881   */\n      dup1\n        /* \"#utility.yul\":6873:6885   */\n      revert\n        /* \"#utility.yul\":6825:6887   */\n    tag_166:\n        /* \"#utility.yul\":6773:6893   */\n      pop\n      jump\t// out\n\n    auxdata: 0xa2646970667358221220a17e7d3eb6954fa8d7397d30832aaba44a73385beec370ac29ad57607837528d64736f6c63430008070033\n}\n",
				"bytecode": {
					"linkReferences": {},
					"object": "60806040526040518060400160405280600681526020017f4c6f6e646f6e0000000000000000000000000000000000000000000000000000815250600190805190602001906200005192919062000109565b506001600260146101000a81548160ff0219169083151502179055503480156200007a57600080fd5b5060405162000b5c38038062000b5c8339818101604052810190620000a091906200024e565b816000819055508060019080519060200190620000bf92919062000109565b5033600260006101000a81548173ffffffffffffffffffffffffffffffffffffffff021916908373ffffffffffffffffffffffffffffffffffffffff16021790555050506200045c565b828054620001179062000353565b90600052602060002090601f0160209004810192826200013b576000855562000187565b82601f106200015657805160ff191683800117855562000187565b8280016001018555821562000187579182015b828111156200018657825182559160200191906001019062000169565b5b5090506200019691906200019a565b5090565b5b80821115620001b55760008160009055506001016200019b565b5090565b6000620001d0620001ca84620002dd565b620002b4565b905082815260208101848484011115620001ef57620001ee62000422565b5b620001fc8482856200031d565b509392505050565b600081519050620002158162000442565b92915050565b600082601f8301126200023357620002326200041d565b5b815162000245848260208601620001b9565b91505092915050565b600080604083850312156200026857620002676200042c565b5b6000620002788582860162000204565b925050602083015167ffffffffffffffff8111156200029c576200029b62000427565b5b620002aa858286016200021b565b9150509250929050565b6000620002c0620002d3565b9050620002ce828262000389565b919050565b6000604051905090565b600067ffffffffffffffff821115620002fb57620002fa620003ee565b5b620003068262000431565b9050602081019050919050565b6000819050919050565b60005b838110156200033d57808201518184015260208101905062000320565b838111156200034d576000848401525b50505050565b600060028204905060018216806200036c57607f821691505b60208210811415620003835762000382620003bf565b5b50919050565b620003948262000431565b810181811067ffffffffffffffff82111715620003b657620003b5620003ee565b5b80604052505050565b7f4e487b7100000000000000000000000000000000000000000000000000000000600052602260045260246000fd5b7f4e487b7100000000000000000000000000000000000000000000000000000000600052604160045260246000fd5b600080fd5b600080fd5b600080fd5b600080fd5b6000601f19601f8301169050919050565b6200044d8162000313565b81146200045957600080fd5b50565b6106f0806200046c6000396000f3fe608060405234801561001057600080fd5b506004361061007d5760003560e01c80638da5cb5b1161005b5780638da5cb5b146100dc578063a035b1fe146100fa578063c578597514610118578063ecc99d54146101345761007d565b806302c7e7af146100825780630fcb5984146100a0578063516f279e146100be575b600080fd5b61008a610150565b6040516100979190610469565b60405180910390f35b6100a8610163565b6040516100b59190610484565b60405180910390f35b6100c661016c565b6040516100d3919061049f565b60405180910390f35b6100e46101fa565b6040516100f1919061044e565b60405180910390f35b610102610220565b60405161010f9190610484565b60405180910390f35b610132600480360381019061012d9190610372565b610226565b005b61014e6004803603810190610149919061039f565b610230565b005b600260149054906101000a900460ff1681565b60008054905090565b60018054610179906105bd565b80601f01602080910402602001604051908101604052809291908181526020018280546101a5906105bd565b80156101f25780601f106101c7576101008083540402835291602001916101f2565b820191906000526020600020905b8154815290600101906020018083116101d557829003601f168201915b505050505081565b600260009054906101000a900473ffffffffffffffffffffffffffffffffffffffff1681565b60005481565b8060008190555050565b806001908051906020019061024692919061024a565b5050565b828054610256906105bd565b90600052602060002090601f01602090048101928261027857600085556102bf565b82601f1061029157805160ff19168380011785556102bf565b828001600101855582156102bf579182015b828111156102be5782518255916020019190600101906102a3565b5b5090506102cc91906102d0565b5090565b5b808211156102e95760008160009055506001016102d1565b5090565b60006103006102fb846104e6565b6104c1565b90508281526020810184848401111561031c5761031b610683565b5b61032784828561057b565b509392505050565b60008135905061033e816106a3565b92915050565b600082601f8301126103595761035861067e565b5b81356103698482602086016102ed565b91505092915050565b6000602082840312156103885761038761068d565b5b60006103968482850161032f565b91505092915050565b6000602082840312156103b5576103b461068d565b5b600082013567ffffffffffffffff8111156103d3576103d2610688565b5b6103df84828501610344565b91505092915050565b6103f181610533565b82525050565b61040081610545565b82525050565b61040f81610551565b82525050565b600061042082610517565b61042a8185610522565b935061043a81856020860161058a565b61044381610692565b840191505092915050565b600060208201905061046360008301846103e8565b92915050565b600060208201905061047e60008301846103f7565b92915050565b60006020820190506104996000830184610406565b92915050565b600060208201905081810360008301526104b98184610415565b905092915050565b60006104cb6104dc565b90506104d782826105ef565b919050565b6000604051905090565b600067ffffffffffffffff8211156105015761050061064f565b5b61050a82610692565b9050602081019050919050565b600081519050919050565b600082825260208201905092915050565b600061053e8261055b565b9050919050565b60008115159050919050565b6000819050919050565b600073ffffffffffffffffffffffffffffffffffffffff82169050919050565b82818337600083830152505050565b60005b838110156105a857808201518184015260208101905061058d565b838111156105b7576000848401525b50505050565b600060028204905060018216806105d557607f821691505b602082108114156105e9576105e8610620565b5b50919050565b6105f882610692565b810181811067ffffffffffffffff821117156106175761061661064f565b5b80604052505050565b7f4e487b7100000000000000000000000000000000000000000000000000000000600052602260045260246000fd5b7f4e487b7100000000000000000000000000000000000000000000000000000000600052604160045260246000fd5b600080fd5b600080fd5b600080fd5b600080fd5b6000601f19601f8301169050919050565b6106ac81610551565b81146106b757600080fd5b5056fea2646970667358221220a17e7d3eb6954fa8d7397d30832aaba44a73385beec370ac29ad57607837528d64736f6c63430008070033",
					"opcodes": "PUSH1 0x80 PUSH1 0x40 MSTORE PUSH1 0x40 MLOAD DUP1 PUSH1 0x40 ADD PUSH1 0x40 MSTORE DUP1 PUSH1 0x6 DUP2 MSTORE PUSH1 0x20 ADD PUSH32 0x4C6F6E646F6E0000000000000000000000000000000000000000000000000000 DUP2 MSTORE POP PUSH1 0x1 SWAP1 DUP1 MLOAD SWAP1 PUSH1 0x20 ADD SWAP1 PUSH3 0x51 SWAP3 SWAP2 SWAP1 PUSH3 0x109 JUMP JUMPDEST POP PUSH1 0x1 PUSH1 0x2 PUSH1 0x14 PUSH2 0x100 EXP DUP2 SLOAD DUP2 PUSH1 0xFF MUL NOT AND SWAP1 DUP4 ISZERO ISZERO MUL OR SWAP1 SSTORE POP CALLVALUE DUP1 ISZERO PUSH3 0x7A JUMPI PUSH1 0x0 DUP1 REVERT JUMPDEST POP PUSH1 0x40 MLOAD PUSH3 0xB5C CODESIZE SUB DUP1 PUSH3 0xB5C DUP4 CODECOPY DUP2 DUP2 ADD PUSH1 0x40 MSTORE DUP2 ADD SWAP1 PUSH3 0xA0 SWAP2 SWAP1 PUSH3 0x24E JUMP JUMPDEST DUP2 PUSH1 0x0 DUP2 SWAP1 SSTORE POP DUP1 PUSH1 0x1 SWAP1 DUP1 MLOAD SWAP1 PUSH1 0x20 ADD SWAP1 PUSH3 0xBF SWAP3 SWAP2 SWAP1 PUSH3 0x109 JUMP JUMPDEST POP CALLER PUSH1 0x2 PUSH1 0x0 PUSH2 0x100 EXP DUP2 SLOAD DUP2 PUSH20 0xFFFFFFFFFFFFFFFFFFFFFFFFFFFFFFFFFFFFFFFF MUL NOT AND SWAP1 DUP4 PUSH20 0xFFFFFFFFFFFFFFFFFFFFFFFFFFFFFFFFFFFFFFFF AND MUL OR SWAP1 SSTORE POP POP POP PUSH3 0x45C JUMP JUMPDEST DUP3 DUP1 SLOAD PUSH3 0x117 SWAP1 PUSH3 0x353 JUMP JUMPDEST SWAP1 PUSH1 0x0 MSTORE PUSH1 0x20 PUSH1 0x0 KECCAK256 SWAP1 PUSH1 0x1F ADD PUSH1 0x20 SWAP1 DIV DUP2 ADD SWAP3 DUP3 PUSH3 0x13B JUMPI PUSH1 0x0 DUP6 SSTORE PUSH3 0x187 JUMP JUMPDEST DUP3 PUSH1 0x1F LT PUSH3 0x156 JUMPI DUP1 MLOAD PUSH1 0xFF NOT AND DUP4 DUP1 ADD OR DUP6 SSTORE PUSH3 0x187 JUMP JUMPDEST DUP3 DUP1 ADD PUSH1 0x1 ADD DUP6 SSTORE DUP3 ISZERO PUSH3 0x187 JUMPI SWAP2 DUP3 ADD JUMPDEST DUP3 DUP2 GT ISZERO PUSH3 0x186 JUMPI DUP3 MLOAD DUP3 SSTORE SWAP2 PUSH1 0x20 ADD SWAP2 SWAP1 PUSH1 0x1 ADD SWAP1 PUSH3 0x169 JUMP JUMPDEST JUMPDEST POP SWAP1 POP PUSH3 0x196 SWAP2 SWAP1 PUSH3 0x19A JUMP JUMPDEST POP SWAP1 JUMP JUMPDEST JUMPDEST DUP1 DUP3 GT ISZERO PUSH3 0x1B5 JUMPI PUSH1 0x0 DUP2 PUSH1 0x0 SWAP1 SSTORE POP PUSH1 0x1 ADD PUSH3 0x19B JUMP JUMPDEST POP SWAP1 JUMP JUMPDEST PUSH1 0x0 PUSH3 0x1D0 PUSH3 0x1CA DUP5 PUSH3 0x2DD JUMP JUMPDEST PUSH3 0x2B4 JUMP JUMPDEST SWAP1 POP DUP3 DUP2 MSTORE PUSH1 0x20 DUP2 ADD DUP5 DUP5 DUP5 ADD GT ISZERO PUSH3 0x1EF JUMPI PUSH3 0x1EE PUSH3 0x422 JUMP JUMPDEST JUMPDEST PUSH3 0x1FC DUP5 DUP3 DUP6 PUSH3 0x31D JUMP JUMPDEST POP SWAP4 SWAP3 POP POP POP JUMP JUMPDEST PUSH1 0x0 DUP2 MLOAD SWAP1 POP PUSH3 0x215 DUP2 PUSH3 0x442 JUMP JUMPDEST SWAP3 SWAP2 POP POP JUMP JUMPDEST PUSH1 0x0 DUP3 PUSH1 0x1F DUP4 ADD SLT PUSH3 0x233 JUMPI PUSH3 0x232 PUSH3 0x41D JUMP JUMPDEST JUMPDEST DUP2 MLOAD PUSH3 0x245 DUP5 DUP3 PUSH1 0x20 DUP7 ADD PUSH3 0x1B9 JUMP JUMPDEST SWAP2 POP POP SWAP3 SWAP2 POP POP JUMP JUMPDEST PUSH1 0x0 DUP1 PUSH1 0x40 DUP4 DUP6 SUB SLT ISZERO PUSH3 0x268 JUMPI PUSH3 0x267 PUSH3 0x42C JUMP JUMPDEST JUMPDEST PUSH1 0x0 PUSH3 0x278 DUP6 DUP3 DUP7 ADD PUSH3 0x204 JUMP JUMPDEST SWAP3 POP POP PUSH1 0x20 DUP4 ADD MLOAD PUSH8 0xFFFFFFFFFFFFFFFF DUP2 GT ISZERO PUSH3 0x29C JUMPI PUSH3 0x29B PUSH3 0x427 JUMP JUMPDEST JUMPDEST PUSH3 0x2AA DUP6 DUP3 DUP7 ADD PUSH3 0x21B JUMP JUMPDEST SWAP2 POP POP SWAP3 POP SWAP3 SWAP1 POP JUMP JUMPDEST PUSH1 0x0 PUSH3 0x2C0 PUSH3 0x2D3 JUMP JUMPDEST SWAP1 POP PUSH3 0x2CE DUP3 DUP3 PUSH3 0x389 JUMP JUMPDEST SWAP2 SWAP1 POP JUMP JUMPDEST PUSH1 0x0 PUSH1 0x40 MLOAD SWAP1 POP SWAP1 JUMP JUMPDEST PUSH1 0x0 PUSH8 0xFFFFFFFFFFFFFFFF DUP3 GT ISZERO PUSH3 0x2FB JUMPI PUSH3 0x2FA PUSH3 0x3EE JUMP JUMPDEST JUMPDEST PUSH3 0x306 DUP3 PUSH3 0x431 JUMP JUMPDEST SWAP1 POP PUSH1 0x20 DUP2 ADD SWAP1 POP SWAP2 SWAP1 POP JUMP JUMPDEST PUSH1 0x0 DUP2 SWAP1 POP SWAP2 SWAP1 POP JUMP JUMPDEST PUSH1 0x0 JUMPDEST DUP4 DUP2 LT ISZERO PUSH3 0x33D JUMPI DUP1 DUP3 ADD MLOAD DUP2 DUP5 ADD MSTORE PUSH1 0x20 DUP2 ADD SWAP1 POP PUSH3 0x320 JUMP JUMPDEST DUP4 DUP2 GT ISZERO PUSH3 0x34D JUMPI PUSH1 0x0 DUP5 DUP5 ADD MSTORE JUMPDEST POP POP POP POP JUMP JUMPDEST PUSH1 0x0 PUSH1 0x2 DUP3 DIV SWAP1 POP PUSH1 0x1 DUP3 AND DUP1 PUSH3 0x36C JUMPI PUSH1 0x7F DUP3 AND SWAP2 POP JUMPDEST PUSH1 0x20 DUP3 LT DUP2 EQ ISZERO PUSH3 0x383 JUMPI PUSH3 0x382 PUSH3 0x3BF JUMP JUMPDEST JUMPDEST POP SWAP2 SWAP1 POP JUMP JUMPDEST PUSH3 0x394 DUP3 PUSH3 0x431 JUMP JUMPDEST DUP2 ADD DUP2 DUP2 LT PUSH8 0xFFFFFFFFFFFFFFFF DUP3 GT OR ISZERO PUSH3 0x3B6 JUMPI PUSH3 0x3B5 PUSH3 0x3EE JUMP JUMPDEST JUMPDEST DUP1 PUSH1 0x40 MSTORE POP POP POP JUMP JUMPDEST PUSH32 0x4E487B7100000000000000000000000000000000000000000000000000000000 PUSH1 0x0 MSTORE PUSH1 0x22 PUSH1 0x4 MSTORE PUSH1 0x24 PUSH1 0x0 REVERT JUMPDEST PUSH32 0x4E487B7100000000000000000000000000000000000000000000000000000000 PUSH1 0x0 MSTORE PUSH1 0x41 PUSH1 0x4 MSTORE PUSH1 0x24 PUSH1 0x0 REVERT JUMPDEST PUSH1 0x0 DUP1 REVERT JUMPDEST PUSH1 0x0 DUP1 REVERT JUMPDEST PUSH1 0x0 DUP1 REVERT JUMPDEST PUSH1 0x0 DUP1 REVERT JUMPDEST PUSH1 0x0 PUSH1 0x1F NOT PUSH1 0x1F DUP4 ADD AND SWAP1 POP SWAP2 SWAP1 POP JUMP JUMPDEST PUSH3 0x44D DUP2 PUSH3 0x313 JUMP JUMPDEST DUP2 EQ PUSH3 0x459 JUMPI PUSH1 0x0 DUP1 REVERT JUMPDEST POP JUMP JUMPDEST PUSH2 0x6F0 DUP1 PUSH3 0x46C PUSH1 0x0 CODECOPY PUSH1 0x0 RETURN INVALID PUSH1 0x80 PUSH1 0x40 MSTORE CALLVALUE DUP1 ISZERO PUSH2 0x10 JUMPI PUSH1 0x0 DUP1 REVERT JUMPDEST POP PUSH1 0x4 CALLDATASIZE LT PUSH2 0x7D JUMPI PUSH1 0x0 CALLDATALOAD PUSH1 0xE0 SHR DUP1 PUSH4 0x8DA5CB5B GT PUSH2 0x5B JUMPI DUP1 PUSH4 0x8DA5CB5B EQ PUSH2 0xDC JUMPI DUP1 PUSH4 0xA035B1FE EQ PUSH2 0xFA JUMPI DUP1 PUSH4 0xC5785975 EQ PUSH2 0x118 JUMPI DUP1 PUSH4 0xECC99D54 EQ PUSH2 0x134 JUMPI PUSH2 0x7D JUMP JUMPDEST DUP1 PUSH4 0x2C7E7AF EQ PUSH2 0x82 JUMPI DUP1 PUSH4 0xFCB5984 EQ PUSH2 0xA0 JUMPI DUP1 PUSH4 0x516F279E EQ PUSH2 0xBE JUMPI JUMPDEST PUSH1 0x0 DUP1 REVERT JUMPDEST PUSH2 0x8A PUSH2 0x150 JUMP JUMPDEST PUSH1 0x40 MLOAD PUSH2 0x97 SWAP2 SWAP1 PUSH2 0x469 JUMP JUMPDEST PUSH1 0x40 MLOAD DUP1 SWAP2 SUB SWAP1 RETURN JUMPDEST PUSH2 0xA8 PUSH2 0x163 JUMP JUMPDEST PUSH1 0x40 MLOAD PUSH2 0xB5 SWAP2 SWAP1 PUSH2 0x484 JUMP JUMPDEST PUSH1 0x40 MLOAD DUP1 SWAP2 SUB SWAP1 RETURN JUMPDEST PUSH2 0xC6 PUSH2 0x16C JUMP JUMPDEST PUSH1 0x40 MLOAD PUSH2 0xD3 SWAP2 SWAP1 PUSH2 0x49F JUMP JUMPDEST PUSH1 0x40 MLOAD DUP1 SWAP2 SUB SWAP1 RETURN JUMPDEST PUSH2 0xE4 PUSH2 0x1FA JUMP JUMPDEST PUSH1 0x40 MLOAD PUSH2 0xF1 SWAP2 SWAP1 PUSH2 0x44E JUMP JUMPDEST PUSH1 0x40 MLOAD DUP1 SWAP2 SUB SWAP1 RETURN JUMPDEST PUSH2 0x102 PUSH2 0x220 JUMP JUMPDEST PUSH1 0x40 MLOAD PUSH2 0x10F SWAP2 SWAP1 PUSH2 0x484 JUMP JUMPDEST PUSH1 0x40 MLOAD DUP1 SWAP2 SUB SWAP1 RETURN JUMPDEST PUSH2 0x132 PUSH1 0x4 DUP1 CALLDATASIZE SUB DUP2 ADD SWAP1 PUSH2 0x12D SWAP2 SWAP1 PUSH2 0x372 JUMP JUMPDEST PUSH2 0x226 JUMP JUMPDEST STOP JUMPDEST PUSH2 0x14E PUSH1 0x4 DUP1 CALLDATASIZE SUB DUP2 ADD SWAP1 PUSH2 0x149 SWAP2 SWAP1 PUSH2 0x39F JUMP JUMPDEST PUSH2 0x230 JUMP JUMPDEST STOP JUMPDEST PUSH1 0x2 PUSH1 0x14 SWAP1 SLOAD SWAP1 PUSH2 0x100 EXP SWAP1 DIV PUSH1 0xFF AND DUP2 JUMP JUMPDEST PUSH1 0x0 DUP1 SLOAD SWAP1 POP SWAP1 JUMP JUMPDEST PUSH1 0x1 DUP1 SLOAD PUSH2 0x179 SWAP1 PUSH2 0x5BD JUMP JUMPDEST DUP1 PUSH1 0x1F ADD PUSH1 0x20 DUP1 SWAP2 DIV MUL PUSH1 0x20 ADD PUSH1 0x40 MLOAD SWAP1 DUP2 ADD PUSH1 0x40 MSTORE DUP1 SWAP3 SWAP2 SWAP1 DUP2 DUP2 MSTORE PUSH1 0x20 ADD DUP3 DUP1 SLOAD PUSH2 0x1A5 SWAP1 PUSH2 0x5BD JUMP JUMPDEST DUP1 ISZERO PUSH2 0x1F2 JUMPI DUP1 PUSH1 0x1F LT PUSH2 0x1C7 JUMPI PUSH2 0x100 DUP1 DUP4 SLOAD DIV MUL DUP4 MSTORE SWAP2 PUSH1 0x20 ADD SWAP2 PUSH2 0x1F2 JUMP JUMPDEST DUP3 ADD SWAP2 SWAP1 PUSH1 0x0 MSTORE PUSH1 0x20 PUSH1 0x0 KECCAK256 SWAP1 JUMPDEST DUP2 SLOAD DUP2 MSTORE SWAP1 PUSH1 0x1 ADD SWAP1 PUSH1 0x20 ADD DUP1 DUP4 GT PUSH2 0x1D5 JUMPI DUP3 SWAP1 SUB PUSH1 0x1F AND DUP3 ADD SWAP2 JUMPDEST POP POP POP POP POP DUP2 JUMP JUMPDEST PUSH1 0x2 PUSH1 0x0 SWAP1 SLOAD SWAP1 PUSH2 0x100 EXP SWAP1 DIV PUSH20 0xFFFFFFFFFFFFFFFFFFFFFFFFFFFFFFFFFFFFFFFF AND DUP2 JUMP JUMPDEST PUSH1 0x0 SLOAD DUP2 JUMP JUMPDEST DUP1 PUSH1 0x0 DUP2 SWAP1 SSTORE POP POP JUMP JUMPDEST DUP1 PUSH1 0x1 SWAP1 DUP1 MLOAD SWAP1 PUSH1 0x20 ADD SWAP1 PUSH2 0x246 SWAP3 SWAP2 SWAP1 PUSH2 0x24A JUMP JUMPDEST POP POP JUMP JUMPDEST DUP3 DUP1 SLOAD PUSH2 0x256 SWAP1 PUSH2 0x5BD JUMP JUMPDEST SWAP1 PUSH1 0x0 MSTORE PUSH1 0x20 PUSH1 0x0 KECCAK256 SWAP1 PUSH1 0x1F ADD PUSH1 0x20 SWAP1 DIV DUP2 ADD SWAP3 DUP3 PUSH2 0x278 JUMPI PUSH1 0x0 DUP6 SSTORE PUSH2 0x2BF JUMP JUMPDEST DUP3 PUSH1 0x1F LT PUSH2 0x291 JUMPI DUP1 MLOAD PUSH1 0xFF NOT AND DUP4 DUP1 ADD OR DUP6 SSTORE PUSH2 0x2BF JUMP JUMPDEST DUP3 DUP1 ADD PUSH1 0x1 ADD DUP6 SSTORE DUP3 ISZERO PUSH2 0x2BF JUMPI SWAP2 DUP3 ADD JUMPDEST DUP3 DUP2 GT ISZERO PUSH2 0x2BE JUMPI DUP3 MLOAD DUP3 SSTORE SWAP2 PUSH1 0x20 ADD SWAP2 SWAP1 PUSH1 0x1 ADD SWAP1 PUSH2 0x2A3 JUMP JUMPDEST JUMPDEST POP SWAP1 POP PUSH2 0x2CC SWAP2 SWAP1 PUSH2 0x2D0 JUMP JUMPDEST POP SWAP1 JUMP JUMPDEST JUMPDEST DUP1 DUP3 GT ISZERO PUSH2 0x2E9 JUMPI PUSH1 0x0 DUP2 PUSH1 0x0 SWAP1 SSTORE POP PUSH1 0x1 ADD PUSH2 0x2D1 JUMP JUMPDEST POP SWAP1 JUMP JUMPDEST PUSH1 0x0 PUSH2 0x300 PUSH2 0x2FB DUP5 PUSH2 0x4E6 JUMP JUMPDEST PUSH2 0x4C1 JUMP JUMPDEST SWAP1 POP DUP3 DUP2 MSTORE PUSH1 0x20 DUP2 ADD DUP5 DUP5 DUP5 ADD GT ISZERO PUSH2 0x31C JUMPI PUSH2 0x31B PUSH2 0x683 JUMP JUMPDEST JUMPDEST PUSH2 0x327 DUP5 DUP3 DUP6 PUSH2 0x57B JUMP JUMPDEST POP SWAP4 SWAP3 POP POP POP JUMP JUMPDEST PUSH1 0x0 DUP2 CALLDATALOAD SWAP1 POP PUSH2 0x33E DUP2 PUSH2 0x6A3 JUMP JUMPDEST SWAP3 SWAP2 POP POP JUMP JUMPDEST PUSH1 0x0 DUP3 PUSH1 0x1F DUP4 ADD SLT PUSH2 0x359 JUMPI PUSH2 0x358 PUSH2 0x67E JUMP JUMPDEST JUMPDEST DUP2 CALLDATALOAD PUSH2 0x369 DUP5 DUP3 PUSH1 0x20 DUP7 ADD PUSH2 0x2ED JUMP JUMPDEST SWAP2 POP POP SWAP3 SWAP2 POP POP JUMP JUMPDEST PUSH1 0x0 PUSH1 0x20 DUP3 DUP5 SUB SLT ISZERO PUSH2 0x388 JUMPI PUSH2 0x387 PUSH2 0x68D JUMP JUMPDEST JUMPDEST PUSH1 0x0 PUSH2 0x396 DUP5 DUP3 DUP6 ADD PUSH2 0x32F JUMP JUMPDEST SWAP2 POP POP SWAP3 SWAP2 POP POP JUMP JUMPDEST PUSH1 0x0 PUSH1 0x20 DUP3 DUP5 SUB SLT ISZERO PUSH2 0x3B5 JUMPI PUSH2 0x3B4 PUSH2 0x68D JUMP JUMPDEST JUMPDEST PUSH1 0x0 DUP3 ADD CALLDATALOAD PUSH8 0xFFFFFFFFFFFFFFFF DUP2 GT ISZERO PUSH2 0x3D3 JUMPI PUSH2 0x3D2 PUSH2 0x688 JUMP JUMPDEST JUMPDEST PUSH2 0x3DF DUP5 DUP3 DUP6 ADD PUSH2 0x344 JUMP JUMPDEST SWAP2 POP POP SWAP3 SWAP2 POP POP JUMP JUMPDEST PUSH2 0x3F1 DUP2 PUSH2 0x533 JUMP JUMPDEST DUP3 MSTORE POP POP JUMP JUMPDEST PUSH2 0x400 DUP2 PUSH2 0x545 JUMP JUMPDEST DUP3 MSTORE POP POP JUMP JUMPDEST PUSH2 0x40F DUP2 PUSH2 0x551 JUMP JUMPDEST DUP3 MSTORE POP POP JUMP JUMPDEST PUSH1 0x0 PUSH2 0x420 DUP3 PUSH2 0x517 JUMP JUMPDEST PUSH2 0x42A DUP2 DUP6 PUSH2 0x522 JUMP JUMPDEST SWAP4 POP PUSH2 0x43A DUP2 DUP6 PUSH1 0x20 DUP7 ADD PUSH2 0x58A JUMP JUMPDEST PUSH2 0x443 DUP2 PUSH2 0x692 JUMP JUMPDEST DUP5 ADD SWAP2 POP POP SWAP3 SWAP2 POP POP JUMP JUMPDEST PUSH1 0x0 PUSH1 0x20 DUP3 ADD SWAP1 POP PUSH2 0x463 PUSH1 0x0 DUP4 ADD DUP5 PUSH2 0x3E8 JUMP JUMPDEST SWAP3 SWAP2 POP POP JUMP JUMPDEST PUSH1 0x0 PUSH1 0x20 DUP3 ADD SWAP1 POP PUSH2 0x47E PUSH1 0x0 DUP4 ADD DUP5 PUSH2 0x3F7 JUMP JUMPDEST SWAP3 SWAP2 POP POP JUMP JUMPDEST PUSH1 0x0 PUSH1 0x20 DUP3 ADD SWAP1 POP PUSH2 0x499 PUSH1 0x0 DUP4 ADD DUP5 PUSH2 0x406 JUMP JUMPDEST SWAP3 SWAP2 POP POP JUMP JUMPDEST PUSH1 0x0 PUSH1 0x20 DUP3 ADD SWAP1 POP DUP2 DUP2 SUB PUSH1 0x0 DUP4 ADD MSTORE PUSH2 0x4B9 DUP2 DUP5 PUSH2 0x415 JUMP JUMPDEST SWAP1 POP SWAP3 SWAP2 POP POP JUMP JUMPDEST PUSH1 0x0 PUSH2 0x4CB PUSH2 0x4DC JUMP JUMPDEST SWAP1 POP PUSH2 0x4D7 DUP3 DUP3 PUSH2 0x5EF JUMP JUMPDEST SWAP2 SWAP1 POP JUMP JUMPDEST PUSH1 0x0 PUSH1 0x40 MLOAD SWAP1 POP SWAP1 JUMP JUMPDEST PUSH1 0x0 PUSH8 0xFFFFFFFFFFFFFFFF DUP3 GT ISZERO PUSH2 0x501 JUMPI PUSH2 0x500 PUSH2 0x64F JUMP JUMPDEST JUMPDEST PUSH2 0x50A DUP3 PUSH2 0x692 JUMP JUMPDEST SWAP1 POP PUSH1 0x20 DUP2 ADD SWAP1 POP SWAP2 SWAP1 POP JUMP JUMPDEST PUSH1 0x0 DUP2 MLOAD SWAP1 POP SWAP2 SWAP1 POP JUMP JUMPDEST PUSH1 0x0 DUP3 DUP3 MSTORE PUSH1 0x20 DUP3 ADD SWAP1 POP SWAP3 SWAP2 POP POP JUMP JUMPDEST PUSH1 0x0 PUSH2 0x53E DUP3 PUSH2 0x55B JUMP JUMPDEST SWAP1 POP SWAP2 SWAP1 POP JUMP JUMPDEST PUSH1 0x0 DUP2 ISZERO ISZERO SWAP1 POP SWAP2 SWAP1 POP JUMP JUMPDEST PUSH1 0x0 DUP2 SWAP1 POP SWAP2 SWAP1 POP JUMP JUMPDEST PUSH1 0x0 PUSH20 0xFFFFFFFFFFFFFFFFFFFFFFFFFFFFFFFFFFFFFFFF DUP3 AND SWAP1 POP SWAP2 SWAP1 POP JUMP JUMPDEST DUP3 DUP2 DUP4 CALLDATACOPY PUSH1 0x0 DUP4 DUP4 ADD MSTORE POP POP POP JUMP JUMPDEST PUSH1 0x0 JUMPDEST DUP4 DUP2 LT ISZERO PUSH2 0x5A8 JUMPI DUP1 DUP3 ADD MLOAD DUP2 DUP5 ADD MSTORE PUSH1 0x20 DUP2 ADD SWAP1 POP PUSH2 0x58D JUMP JUMPDEST DUP4 DUP2 GT ISZERO PUSH2 0x5B7 JUMPI PUSH1 0x0 DUP5 DUP5 ADD MSTORE JUMPDEST POP POP POP POP JUMP JUMPDEST PUSH1 0x0 PUSH1 0x2 DUP3 DIV SWAP1 POP PUSH1 0x1 DUP3 AND DUP1 PUSH2 0x5D5 JUMPI PUSH1 0x7F DUP3 AND SWAP2 POP JUMPDEST PUSH1 0x20 DUP3 LT DUP2 EQ ISZERO PUSH2 0x5E9 JUMPI PUSH2 0x5E8 PUSH2 0x620 JUMP JUMPDEST JUMPDEST POP SWAP2 SWAP1 POP JUMP JUMPDEST PUSH2 0x5F8 DUP3 PUSH2 0x692 JUMP JUMPDEST DUP2 ADD DUP2 DUP2 LT PUSH8 0xFFFFFFFFFFFFFFFF DUP3 GT OR ISZERO PUSH2 0x617 JUMPI PUSH2 0x616 PUSH2 0x64F JUMP JUMPDEST JUMPDEST DUP1 PUSH1 0x40 MSTORE POP POP POP JUMP JUMPDEST PUSH32 0x4E487B7100000000000000000000000000000000000000000000000000000000 PUSH1 0x0 MSTORE PUSH1 0x22 PUSH1 0x4 MSTORE PUSH1 0x24 PUSH1 0x0 REVERT JUMPDEST PUSH32 0x4E487B7100000000000000000000000000000000000000000000000000000000 PUSH1 0x0 MSTORE PUSH1 0x41 PUSH1 0x4 MSTORE PUSH1 0x24 PUSH1 0x0 REVERT JUMPDEST PUSH1 0x0 DUP1 REVERT JUMPDEST PUSH1 0x0 DUP1 REVERT JUMPDEST PUSH1 0x0 DUP1 REVERT JUMPDEST PUSH1 0x0 DUP1 REVERT JUMPDEST PUSH1 0x0 PUSH1 0x1F NOT PUSH1 0x1F DUP4 ADD AND SWAP1 POP SWAP2 SWAP1 POP JUMP JUMPDEST PUSH2 0x6AC DUP2 PUSH2 0x551 JUMP JUMPDEST DUP2 EQ PUSH2 0x6B7 JUMPI PUSH1 0x0 DUP1 REVERT JUMPDEST POP JUMP INVALID LOG2 PUSH5 0x6970667358 0x22 SLT KECCAK256 LOG1 PUSH31 0x7D3EB6954FA8D7397D30832AABA44A73385BEEC370AC29AD57607837528D64 PUSH20 0x6F6C634300080700330000000000000000000000 "
				},
				"gasEstimates": {
					"creation": {
						"codeDepositCost": "355200",
						"executionCost": "infinite",
						"totalCost": "infinite"
					},
					"external": {
						"getprice()": "2460",
						"location()": "infinite",
						"owner()": "2514",
						"price()": "2451",
						"setlocation(string)": "infinite",
						"setprice(int256)": "22564",
						"sold()": "2522"
					}
				},
				"methodIdentifiers": {
					"getprice()": "0fcb5984",
					"location()": "516f279e",
					"owner()": "8da5cb5b",
					"price()": "a035b1fe",
					"setlocation(string)": "ecc99d54",
					"setprice(int256)": "c5785975",
					"sold()": "02c7e7af"
				}
			},
			"storageLayout": {
				"storage": [
					{
						"astId": 3,
						"contract": "contracts/mycontract.sol:property",
						"label": "price",
						"offset": 0,
						"slot": "0",
						"type": "t_int256"
					},
					{
						"astId": 6,
						"contract": "contracts/mycontract.sol:property",
						"label": "location",
						"offset": 0,
						"slot": "1",
						"type": "t_string_storage"
					},
					{
						"astId": 8,
						"contract": "contracts/mycontract.sol:property",
						"label": "owner",
						"offset": 0,
						"slot": "2",
						"type": "t_address"
					},
					{
						"astId": 11,
						"contract": "contracts/mycontract.sol:property",
						"label": "sold",
						"offset": 20,
						"slot": "2",
						"type": "t_bool"
					}
				],
				"types": {
					"t_address": {
						"encoding": "inplace",
						"label": "address",
						"numberOfBytes": "20"
					},
					"t_bool": {
						"encoding": "inplace",
						"label": "bool",
						"numberOfBytes": "1"
					},
					"t_int256": {
						"encoding": "inplace",
						"label": "int256",
						"numberOfBytes": "32"
					},
					"t_string_storage": {
						"encoding": "bytes",
						"label": "string",
						"numberOfBytes": "32"
					}
				}
			},
			"userdoc": {
				"kind": "user",
				"methods": {},
				"version": 1
			}
		}
	}
}