{
	"contracts/mycall.sol": {
		"property": {
			"abi": [
				{
					"inputs": [],
					"name": "sold",
					"outputs": [
						{
							"internalType": "bool",
							"name": "",
							"type": "bool"
						}
					],
					"stateMutability": "view",
					"type": "function"
				},
				{
					"inputs": [],
					"name": "x",
					"outputs": [
						{
							"internalType": "int8",
							"name": "",
							"type": "int8"
						}
					],
					"stateMutability": "view",
					"type": "function"
				}
			],
			"devdoc": {
				"kind": "dev",
				"methods": {},
				"version": 1
			},
			"evm": {
				"assembly": "    /* \"contracts/mycall.sol\":107:182  contract property{\r... */\n  mstore(0x40, 0x80)\n    /* \"contracts/mycall.sol\":148:152  true */\n  0x01\n    /* \"contracts/mycall.sol\":131:152  bool public sold=true */\n  0x00\n  dup1\n  0x0100\n  exp\n  dup2\n  sload\n  dup2\n  0xff\n  mul\n  not\n  and\n  swap1\n  dup4\n  iszero\n  iszero\n  mul\n  or\n  swap1\n  sstore\n  pop\n    /* \"contracts/mycall.sol\":175:178  124 */\n  0x7c\n    /* \"contracts/mycall.sol\":161:178  int8 public x=124 */\n  0x00\n  exp(0x0100, 0x01)\n  dup2\n  sload\n  dup2\n  0xff\n  mul\n  not\n  and\n  swap1\n  dup4\n  0x00\n  signextend\n  0xff\n  and\n  mul\n  or\n  swap1\n  sstore\n  pop\n    /* \"contracts/mycall.sol\":107:182  contract property{\r... */\n  callvalue\n  dup1\n  iszero\n  tag_1\n  jumpi\n  0x00\n  dup1\n  revert\ntag_1:\n  pop\n  dataSize(sub_0)\n  dup1\n  dataOffset(sub_0)\n  0x00\n  codecopy\n  0x00\n  return\nstop\n\nsub_0: assembly {\n        /* \"contracts/mycall.sol\":107:182  contract property{\r... */\n      mstore(0x40, 0x80)\n      callvalue\n      dup1\n      iszero\n      tag_1\n      jumpi\n      0x00\n      dup1\n      revert\n    tag_1:\n      pop\n      jumpi(tag_2, lt(calldatasize, 0x04))\n      shr(0xe0, calldataload(0x00))\n      dup1\n      0x02c7e7af\n      eq\n      tag_3\n      jumpi\n      dup1\n      0x0c55699c\n      eq\n      tag_4\n      jumpi\n    tag_2:\n      0x00\n      dup1\n      revert\n        /* \"contracts/mycall.sol\":131:152  bool public sold=true */\n    tag_3:\n      tag_5\n      tag_6\n      jump\t// in\n    tag_5:\n      mload(0x40)\n      tag_7\n      swap2\n      swap1\n      tag_8\n      jump\t// in\n    tag_7:\n      mload(0x40)\n      dup1\n      swap2\n      sub\n      swap1\n      return\n        /* \"contracts/mycall.sol\":161:178  int8 public x=124 */\n    tag_4:\n      tag_9\n      tag_10\n      jump\t// in\n    tag_9:\n      mload(0x40)\n      tag_11\n      swap2\n      swap1\n      tag_12\n      jump\t// in\n    tag_11:\n      mload(0x40)\n      dup1\n      swap2\n      sub\n      swap1\n      return\n        /* \"contracts/mycall.sol\":131:152  bool public sold=true */\n    tag_6:\n      0x00\n      dup1\n      sload\n      swap1\n      0x0100\n      exp\n      swap1\n      div\n      0xff\n      and\n      dup2\n      jump\t// out\n        /* \"contracts/mycall.sol\":161:178  int8 public x=124 */\n    tag_10:\n      0x00\n      0x01\n      swap1\n      sload\n      swap1\n      0x0100\n      exp\n      swap1\n      div\n      0x00\n      signextend\n      dup2\n      jump\t// out\n        /* \"#utility.yul\":7:116   */\n    tag_14:\n        /* \"#utility.yul\":88:109   */\n      tag_16\n        /* \"#utility.yul\":103:108   */\n      dup2\n        /* \"#utility.yul\":88:109   */\n      tag_17\n      jump\t// in\n    tag_16:\n        /* \"#utility.yul\":83:86   */\n      dup3\n        /* \"#utility.yul\":76:110   */\n      mstore\n        /* \"#utility.yul\":7:116   */\n      pop\n      pop\n      jump\t// out\n        /* \"#utility.yul\":122:231   */\n    tag_18:\n        /* \"#utility.yul\":203:224   */\n      tag_20\n        /* \"#utility.yul\":218:223   */\n      dup2\n        /* \"#utility.yul\":203:224   */\n      tag_21\n      jump\t// in\n    tag_20:\n        /* \"#utility.yul\":198:201   */\n      dup3\n        /* \"#utility.yul\":191:225   */\n      mstore\n        /* \"#utility.yul\":122:231   */\n      pop\n      pop\n      jump\t// out\n        /* \"#utility.yul\":237:447   */\n    tag_8:\n        /* \"#utility.yul\":324:328   */\n      0x00\n        /* \"#utility.yul\":362:364   */\n      0x20\n        /* \"#utility.yul\":351:360   */\n      dup3\n        /* \"#utility.yul\":347:365   */\n      add\n        /* \"#utility.yul\":339:365   */\n      swap1\n      pop\n        /* \"#utility.yul\":375:440   */\n      tag_23\n        /* \"#utility.yul\":437:438   */\n      0x00\n        /* \"#utility.yul\":426:435   */\n      dup4\n        /* \"#utility.yul\":422:439   */\n      add\n        /* \"#utility.yul\":413:419   */\n      dup5\n        /* \"#utility.yul\":375:440   */\n      tag_14\n      jump\t// in\n    tag_23:\n        /* \"#utility.yul\":237:447   */\n      swap3\n      swap2\n      pop\n      pop\n      jump\t// out\n        /* \"#utility.yul\":453:663   */\n    tag_12:\n        /* \"#utility.yul\":540:544   */\n      0x00\n        /* \"#utility.yul\":578:580   */\n      0x20\n        /* \"#utility.yul\":567:576   */\n      dup3\n        /* \"#utility.yul\":563:581   */\n      add\n        /* \"#utility.yul\":555:581   */\n      swap1\n      pop\n        /* \"#utility.yul\":591:656   */\n      tag_25\n        /* \"#utility.yul\":653:654   */\n      0x00\n        /* \"#utility.yul\":642:651   */\n      dup4\n        /* \"#utility.yul\":638:655   */\n      add\n        /* \"#utility.yul\":629:635   */\n      dup5\n        /* \"#utility.yul\":591:656   */\n      tag_18\n      jump\t// in\n    tag_25:\n        /* \"#utility.yul\":453:663   */\n      swap3\n      swap2\n      pop\n      pop\n      jump\t// out\n        /* \"#utility.yul\":669:759   */\n    tag_17:\n        /* \"#utility.yul\":703:710   */\n      0x00\n        /* \"#utility.yul\":746:751   */\n      dup2\n        /* \"#utility.yul\":739:752   */\n      iszero\n        /* \"#utility.yul\":732:753   */\n      iszero\n        /* \"#utility.yul\":721:753   */\n      swap1\n      pop\n        /* \"#utility.yul\":669:759   */\n      swap2\n      swap1\n      pop\n      jump\t// out\n        /* \"#utility.yul\":765:854   */\n    tag_21:\n        /* \"#utility.yul\":799:806   */\n      0x00\n        /* \"#utility.yul\":842:847   */\n      dup2\n        /* \"#utility.yul\":839:840   */\n      0x00\n        /* \"#utility.yul\":828:848   */\n      signextend\n        /* \"#utility.yul\":817:848   */\n      swap1\n      pop\n        /* \"#utility.yul\":765:854   */\n      swap2\n      swap1\n      pop\n      jump\t// out\n\n    auxdata: 0xa2646970667358221220742934d7f0c374542287f2d89c0e182c64c350f03f69e13e1fa59a3bed8481ee64736f6c63430008070033\n}\n",
				"bytecode": {
					"linkReferences": {},
					"object": "608060405260016000806101000a81548160ff021916908315150217905550607c600060016101000a81548160ff021916908360000b60ff16021790555034801561004957600080fd5b5061012a806100596000396000f3fe6080604052348015600f57600080fd5b506004361060325760003560e01c806302c7e7af1460375780630c55699c146051575b600080fd5b603d606b565b6040516048919060a9565b60405180910390f35b6057607c565b6040516062919060c2565b60405180910390f35b60008054906101000a900460ff1681565b600060019054906101000a900460000b81565b60968160db565b82525050565b60a38160e7565b82525050565b600060208201905060bc6000830184608f565b92915050565b600060208201905060d56000830184609c565b92915050565b60008115159050919050565b60008160000b905091905056fea2646970667358221220742934d7f0c374542287f2d89c0e182c64c350f03f69e13e1fa59a3bed8481ee64736f6c63430008070033",
					"opcodes": "PUSH1 0x80 PUSH1 0x40 MSTORE PUSH1 0x1 PUSH1 0x0 DUP1 PUSH2 0x100 EXP DUP2 SLOAD DUP2 PUSH1 0xFF MUL NOT AND SWAP1 DUP4 ISZERO ISZERO MUL OR SWAP1 SSTORE POP PUSH1 0x7C PUSH1 0x0 PUSH1 0x1 PUSH2 0x100 EXP DUP2 SLOAD DUP2 PUSH1 0xFF MUL NOT AND SWAP1 DUP4 PUSH1 0x0 SIGNEXTEND PUSH1 0xFF AND MUL OR SWAP1 SSTORE POP CALLVALUE DUP1 ISZERO PUSH2 0x49 JUMPI PUSH1 0x0 DUP1 REVERT JUMPDEST POP PUSH2 0x12A DUP1 PUSH2 0x59 PUSH1 0x0 CODECOPY PUSH1 0x0 RETURN INVALID PUSH1 0x80 PUSH1 0x40 MSTORE CALLVALUE DUP1 ISZERO PUSH1 0xF JUMPI PUSH1 0x0 DUP1 REVERT JUMPDEST POP PUSH1 0x4 CALLDATASIZE LT PUSH1 0x32 JUMPI PUSH1 0x0 CALLDATALOAD PUSH1 0xE0 SHR DUP1 PUSH4 0x2C7E7AF EQ PUSH1 0x37 JUMPI DUP1 PUSH4 0xC55699C EQ PUSH1 0x51 JUMPI JUMPDEST PUSH1 0x0 DUP1 REVERT JUMPDEST PUSH1 0x3D PUSH1 0x6B JUMP JUMPDEST PUSH1 0x40 MLOAD PUSH1 0x48 SWAP2 SWAP1 PUSH1 0xA9 JUMP JUMPDEST PUSH1 0x40 MLOAD DUP1 SWAP2 SUB SWAP1 RETURN JUMPDEST PUSH1 0x57 PUSH1 0x7C JUMP JUMPDEST PUSH1 0x40 MLOAD PUSH1 0x62 SWAP2 SWAP1 PUSH1 0xC2 JUMP JUMPDEST PUSH1 0x40 MLOAD DUP1 SWAP2 SUB SWAP1 RETURN JUMPDEST PUSH1 0x0 DUP1 SLOAD SWAP1 PUSH2 0x100 EXP SWAP1 DIV PUSH1 0xFF AND DUP2 JUMP JUMPDEST PUSH1 0x0 PUSH1 0x1 SWAP1 SLOAD SWAP1 PUSH2 0x100 EXP SWAP1 DIV PUSH1 0x0 SIGNEXTEND DUP2 JUMP JUMPDEST PUSH1 0x96 DUP2 PUSH1 0xDB JUMP JUMPDEST DUP3 MSTORE POP POP JUMP JUMPDEST PUSH1 0xA3 DUP2 PUSH1 0xE7 JUMP JUMPDEST DUP3 MSTORE POP POP JUMP JUMPDEST PUSH1 0x0 PUSH1 0x20 DUP3 ADD SWAP1 POP PUSH1 0xBC PUSH1 0x0 DUP4 ADD DUP5 PUSH1 0x8F JUMP JUMPDEST SWAP3 SWAP2 POP POP JUMP JUMPDEST PUSH1 0x0 PUSH1 0x20 DUP3 ADD SWAP1 POP PUSH1 0xD5 PUSH1 0x0 DUP4 ADD DUP5 PUSH1 0x9C JUMP JUMPDEST SWAP3 SWAP2 POP POP JUMP JUMPDEST PUSH1 0x0 DUP2 ISZERO ISZERO SWAP1 POP SWAP2 SWAP1 POP JUMP JUMPDEST PUSH1 0x0 DUP2 PUSH1 0x0 SIGNEXTEND SWAP1 POP SWAP2 SWAP1 POP JUMP INVALID LOG2 PUSH5 0x6970667358 0x22 SLT KECCAK256 PUSH21 0x2934D7F0C374542287F2D89C0E182C64C350F03F69 0xE1 RETURNDATACOPY 0x1F 0xA5 SWAP11 EXTCODESIZE 0xED DUP5 DUP2 0xEE PUSH5 0x736F6C6343 STOP ADDMOD SMOD STOP CALLER "
				},
				"gasEstimates": {
					"creation": {
						"codeDepositCost": "59600",
						"executionCost": "48703",
						"totalCost": "108303"
					},
					"external": {
						"sold()": "2446",
						"x()": "2525"
					}
				},
				"methodIdentifiers": {
					"sold()": "02c7e7af",
					"x()": "0c55699c"
				}
			},
			"storageLayout": {
				"storage": [
					{
						"astId": 4,
						"contract": "contracts/mycall.sol:property",
						"label": "sold",
						"offset": 0,
						"slot": "0",
						"type": "t_bool"
					},
					{
						"astId": 7,
						"contract": "contracts/mycall.sol:property",
						"label": "x",
						"offset": 1,
						"slot": "0",
						"type": "t_int8"
					}
				],
				"types": {
					"t_bool": {
						"encoding": "inplace",
						"label": "bool",
						"numberOfBytes": "1"
					},
					"t_int8": {
						"encoding": "inplace",
						"label": "int8",
						"numberOfBytes": "1"
					}
				}
			},
			"userdoc": {
				"kind": "user",
				"methods": {},
				"version": 1
			}
		}
	}
}