{
	"contracts/visibility specifier.sol": {
		"child": {
			"abi": [
				{
					"inputs": [],
					"name": "f1",
					"outputs": [
						{
							"internalType": "uint256",
							"name": "",
							"type": "uint256"
						}
					],
					"stateMutability": "pure",
					"type": "function"
				},
				{
					"inputs": [],
					"name": "f4",
					"outputs": [
						{
							"internalType": "uint256",
							"name": "",
							"type": "uint256"
						}
					],
					"stateMutability": "pure",
					"type": "function"
				},
				{
					"inputs": [],
					"name": "x",
					"outputs": [
						{
							"internalType": "uint256",
							"name": "",
							"type": "uint256"
						}
					],
					"stateMutability": "view",
					"type": "function"
				}
			],
			"devdoc": {
				"kind": "dev",
				"methods": {},
				"version": 1
			},
			"evm": {
				"assembly": "    /* \"contracts/visibility specifier.sol\":481:560  contract child is parent { //derived contract\r... */\n  mstore(0x40, 0x80)\n    /* \"contracts/visibility specifier.sol\":552:556  f3() */\n  tag_1\n    /* \"contracts/visibility specifier.sol\":552:554  f3 */\n  shl(0x20, tag_2)\n    /* \"contracts/visibility specifier.sol\":552:556  f3() */\n  0x20\n  shr\n  jump\t// in\ntag_1:\n    /* \"contracts/visibility specifier.sol\":538:556  uint public x=f3() */\n  0x00\n  sstore\n    /* \"contracts/visibility specifier.sol\":481:560  contract child is parent { //derived contract\r... */\n  callvalue\n  dup1\n  iszero\n  tag_3\n  jumpi\n  0x00\n  dup1\n  revert\ntag_3:\n  pop\n  jump(tag_4)\n    /* \"contracts/visibility specifier.sol\":316:388  function f3() internal   pure  returns (uint){\r... */\ntag_2:\n    /* \"contracts/visibility specifier.sol\":356:360  uint */\n  0x00\n    /* \"contracts/visibility specifier.sol\":379:380  3 */\n  0x03\n    /* \"contracts/visibility specifier.sol\":372:380  return 3 */\n  swap1\n  pop\n    /* \"contracts/visibility specifier.sol\":316:388  function f3() internal   pure  returns (uint){\r... */\n  swap1\n  jump\t// out\n    /* \"contracts/visibility specifier.sol\":481:560  contract child is parent { //derived contract\r... */\ntag_4:\n  dataSize(sub_0)\n  dup1\n  dataOffset(sub_0)\n  0x00\n  codecopy\n  0x00\n  return\nstop\n\nsub_0: assembly {\n        /* \"contracts/visibility specifier.sol\":481:560  contract child is parent { //derived contract\r... */\n      mstore(0x40, 0x80)\n      callvalue\n      dup1\n      iszero\n      tag_1\n      jumpi\n      0x00\n      dup1\n      revert\n    tag_1:\n      pop\n      jumpi(tag_2, lt(calldatasize, 0x04))\n      shr(0xe0, calldataload(0x00))\n      dup1\n      0x0c55699c\n      eq\n      tag_3\n      jumpi\n      dup1\n      0xc27fc305\n      eq\n      tag_4\n      jumpi\n      dup1\n      0xc3f90202\n      eq\n      tag_5\n      jumpi\n    tag_2:\n      0x00\n      dup1\n      revert\n        /* \"contracts/visibility specifier.sol\":538:556  uint public x=f3() */\n    tag_3:\n      tag_6\n      tag_7\n      jump\t// in\n    tag_6:\n      mload(0x40)\n      tag_8\n      swap2\n      swap1\n      tag_9\n      jump\t// in\n    tag_8:\n      mload(0x40)\n      dup1\n      swap2\n      sub\n      swap1\n      return\n        /* \"contracts/visibility specifier.sol\":130:214  function f1() public  pure  returns (uint){\r... */\n    tag_4:\n      tag_10\n      tag_11\n      jump\t// in\n    tag_10:\n      mload(0x40)\n      tag_12\n      swap2\n      swap1\n      tag_9\n      jump\t// in\n    tag_12:\n      mload(0x40)\n      dup1\n      swap2\n      sub\n      swap1\n      return\n        /* \"contracts/visibility specifier.sol\":396:468  function f4() external   pure  returns (uint){\r... */\n    tag_5:\n      tag_13\n      tag_14\n      jump\t// in\n    tag_13:\n      mload(0x40)\n      tag_15\n      swap2\n      swap1\n      tag_9\n      jump\t// in\n    tag_15:\n      mload(0x40)\n      dup1\n      swap2\n      sub\n      swap1\n      return\n        /* \"contracts/visibility specifier.sol\":538:556  uint public x=f3() */\n    tag_7:\n      sload(0x00)\n      dup2\n      jump\t// out\n        /* \"contracts/visibility specifier.sol\":130:214  function f1() public  pure  returns (uint){\r... */\n    tag_11:\n        /* \"contracts/visibility specifier.sol\":167:171  uint */\n      0x00\n        /* \"contracts/visibility specifier.sol\":183:187  f2() */\n      tag_17\n        /* \"contracts/visibility specifier.sol\":183:185  f2 */\n      tag_18\n        /* \"contracts/visibility specifier.sol\":183:187  f2() */\n      jump\t// in\n    tag_17:\n      pop\n        /* \"contracts/visibility specifier.sol\":205:206  1 */\n      0x01\n        /* \"contracts/visibility specifier.sol\":198:206  return 1 */\n      swap1\n      pop\n        /* \"contracts/visibility specifier.sol\":130:214  function f1() public  pure  returns (uint){\r... */\n      swap1\n      jump\t// out\n        /* \"contracts/visibility specifier.sol\":396:468  function f4() external   pure  returns (uint){\r... */\n    tag_14:\n        /* \"contracts/visibility specifier.sol\":436:440  uint */\n      0x00\n        /* \"contracts/visibility specifier.sol\":459:460  4 */\n      0x04\n        /* \"contracts/visibility specifier.sol\":452:460  return 4 */\n      swap1\n      pop\n        /* \"contracts/visibility specifier.sol\":396:468  function f4() external   pure  returns (uint){\r... */\n      swap1\n      jump\t// out\n        /* \"contracts/visibility specifier.sol\":222:308  function f2() private   pure  returns (uint){\r... */\n    tag_18:\n        /* \"contracts/visibility specifier.sol\":261:265  uint */\n      0x00\n        /* \"contracts/visibility specifier.sol\":277:281  f3() */\n      tag_21\n        /* \"contracts/visibility specifier.sol\":277:279  f3 */\n      tag_22\n        /* \"contracts/visibility specifier.sol\":277:281  f3() */\n      jump\t// in\n    tag_21:\n      pop\n        /* \"contracts/visibility specifier.sol\":299:300  2 */\n      0x02\n        /* \"contracts/visibility specifier.sol\":292:300  return 2 */\n      swap1\n      pop\n        /* \"contracts/visibility specifier.sol\":222:308  function f2() private   pure  returns (uint){\r... */\n      swap1\n      jump\t// out\n        /* \"contracts/visibility specifier.sol\":316:388  function f3() internal   pure  returns (uint){\r... */\n    tag_22:\n        /* \"contracts/visibility specifier.sol\":356:360  uint */\n      0x00\n        /* \"contracts/visibility specifier.sol\":379:380  3 */\n      0x03\n        /* \"contracts/visibility specifier.sol\":372:380  return 3 */\n      swap1\n      pop\n        /* \"contracts/visibility specifier.sol\":316:388  function f3() internal   pure  returns (uint){\r... */\n      swap1\n      jump\t// out\n        /* \"#utility.yul\":7:125   */\n    tag_25:\n        /* \"#utility.yul\":94:118   */\n      tag_27\n        /* \"#utility.yul\":112:117   */\n      dup2\n        /* \"#utility.yul\":94:118   */\n      tag_28\n      jump\t// in\n    tag_27:\n        /* \"#utility.yul\":89:92   */\n      dup3\n        /* \"#utility.yul\":82:119   */\n      mstore\n        /* \"#utility.yul\":7:125   */\n      pop\n      pop\n      jump\t// out\n        /* \"#utility.yul\":131:353   */\n    tag_9:\n        /* \"#utility.yul\":224:228   */\n      0x00\n        /* \"#utility.yul\":262:264   */\n      0x20\n        /* \"#utility.yul\":251:260   */\n      dup3\n        /* \"#utility.yul\":247:265   */\n      add\n        /* \"#utility.yul\":239:265   */\n      swap1\n      pop\n        /* \"#utility.yul\":275:346   */\n      tag_30\n        /* \"#utility.yul\":343:344   */\n      0x00\n        /* \"#utility.yul\":332:341   */\n      dup4\n        /* \"#utility.yul\":328:345   */\n      add\n        /* \"#utility.yul\":319:325   */\n      dup5\n        /* \"#utility.yul\":275:346   */\n      tag_25\n      jump\t// in\n    tag_30:\n        /* \"#utility.yul\":131:353   */\n      swap3\n      swap2\n      pop\n      pop\n      jump\t// out\n        /* \"#utility.yul\":359:436   */\n    tag_28:\n        /* \"#utility.yul\":396:403   */\n      0x00\n        /* \"#utility.yul\":425:430   */\n      dup2\n        /* \"#utility.yul\":414:430   */\n      swap1\n      pop\n        /* \"#utility.yul\":359:436   */\n      swap2\n      swap1\n      pop\n      jump\t// out\n\n    auxdata: 0xa2646970667358221220b21a59071356e45725809f81ae7fa0a34034e942310b29612d7693646d330ecd64736f6c63430008070033\n}\n",
				"bytecode": {
					"linkReferences": {},
					"object": "608060405261001261002760201b60201c565b60005534801561002157600080fd5b50610030565b60006003905090565b61012d8061003f6000396000f3fe6080604052348015600f57600080fd5b5060043610603c5760003560e01c80630c55699c146041578063c27fc30514605b578063c3f90202146075575b600080fd5b6047608f565b6040516052919060d4565b60405180910390f35b60616095565b604051606c919060d4565b60405180910390f35b607b60a5565b6040516086919060d4565b60405180910390f35b60005481565b6000609d60ae565b506001905090565b60006004905090565b600060b660be565b506002905090565b60006003905090565b60ce8160ed565b82525050565b600060208201905060e7600083018460c7565b92915050565b600081905091905056fea2646970667358221220b21a59071356e45725809f81ae7fa0a34034e942310b29612d7693646d330ecd64736f6c63430008070033",
					"opcodes": "PUSH1 0x80 PUSH1 0x40 MSTORE PUSH2 0x12 PUSH2 0x27 PUSH1 0x20 SHL PUSH1 0x20 SHR JUMP JUMPDEST PUSH1 0x0 SSTORE CALLVALUE DUP1 ISZERO PUSH2 0x21 JUMPI PUSH1 0x0 DUP1 REVERT JUMPDEST POP PUSH2 0x30 JUMP JUMPDEST PUSH1 0x0 PUSH1 0x3 SWAP1 POP SWAP1 JUMP JUMPDEST PUSH2 0x12D DUP1 PUSH2 0x3F PUSH1 0x0 CODECOPY PUSH1 0x0 RETURN INVALID PUSH1 0x80 PUSH1 0x40 MSTORE CALLVALUE DUP1 ISZERO PUSH1 0xF JUMPI PUSH1 0x0 DUP1 REVERT JUMPDEST POP PUSH1 0x4 CALLDATASIZE LT PUSH1 0x3C JUMPI PUSH1 0x0 CALLDATALOAD PUSH1 0xE0 SHR DUP1 PUSH4 0xC55699C EQ PUSH1 0x41 JUMPI DUP1 PUSH4 0xC27FC305 EQ PUSH1 0x5B JUMPI DUP1 PUSH4 0xC3F90202 EQ PUSH1 0x75 JUMPI JUMPDEST PUSH1 0x0 DUP1 REVERT JUMPDEST PUSH1 0x47 PUSH1 0x8F JUMP JUMPDEST PUSH1 0x40 MLOAD PUSH1 0x52 SWAP2 SWAP1 PUSH1 0xD4 JUMP JUMPDEST PUSH1 0x40 MLOAD DUP1 SWAP2 SUB SWAP1 RETURN JUMPDEST PUSH1 0x61 PUSH1 0x95 JUMP JUMPDEST PUSH1 0x40 MLOAD PUSH1 0x6C SWAP2 SWAP1 PUSH1 0xD4 JUMP JUMPDEST PUSH1 0x40 MLOAD DUP1 SWAP2 SUB SWAP1 RETURN JUMPDEST PUSH1 0x7B PUSH1 0xA5 JUMP JUMPDEST PUSH1 0x40 MLOAD PUSH1 0x86 SWAP2 SWAP1 PUSH1 0xD4 JUMP JUMPDEST PUSH1 0x40 MLOAD DUP1 SWAP2 SUB SWAP1 RETURN JUMPDEST PUSH1 0x0 SLOAD DUP2 JUMP JUMPDEST PUSH1 0x0 PUSH1 0x9D PUSH1 0xAE JUMP JUMPDEST POP PUSH1 0x1 SWAP1 POP SWAP1 JUMP JUMPDEST PUSH1 0x0 PUSH1 0x4 SWAP1 POP SWAP1 JUMP JUMPDEST PUSH1 0x0 PUSH1 0xB6 PUSH1 0xBE JUMP JUMPDEST POP PUSH1 0x2 SWAP1 POP SWAP1 JUMP JUMPDEST PUSH1 0x0 PUSH1 0x3 SWAP1 POP SWAP1 JUMP JUMPDEST PUSH1 0xCE DUP2 PUSH1 0xED JUMP JUMPDEST DUP3 MSTORE POP POP JUMP JUMPDEST PUSH1 0x0 PUSH1 0x20 DUP3 ADD SWAP1 POP PUSH1 0xE7 PUSH1 0x0 DUP4 ADD DUP5 PUSH1 0xC7 JUMP JUMPDEST SWAP3 SWAP2 POP POP JUMP JUMPDEST PUSH1 0x0 DUP2 SWAP1 POP SWAP2 SWAP1 POP JUMP INVALID LOG2 PUSH5 0x6970667358 0x22 SLT KECCAK256 0xB2 BYTE MSIZE SMOD SGT JUMP 0xE4 JUMPI 0x25 DUP1 SWAP16 DUP2 0xAE PUSH32 0xA0A34034E942310B29612D7693646D330ECD64736F6C63430008070033000000 "
				},
				"gasEstimates": {
					"creation": {
						"codeDepositCost": "60200",
						"executionCost": "infinite",
						"totalCost": "infinite"
					},
					"external": {
						"f1()": "417",
						"f4()": "359",
						"x()": "2407"
					}
				},
				"methodIdentifiers": {
					"f1()": "c27fc305",
					"f4()": "c3f90202",
					"x()": "0c55699c"
				}
			},
			"storageLayout": {
				"storage": [
					{
						"astId": 46,
						"contract": "contracts/visibility specifier.sol:child",
						"label": "x",
						"offset": 0,
						"slot": "0",
						"type": "t_uint256"
					}
				],
				"types": {
					"t_uint256": {
						"encoding": "inplace",
						"label": "uint256",
						"numberOfBytes": "32"
					}
				}
			},
			"userdoc": {
				"kind": "user",
				"methods": {},
				"version": 1
			}
		}
	}
}