{
	"contracts/visibility specifier.sol": {
		"parent": {
			"abi": [
				{
					"inputs": [],
					"name": "f1",
					"outputs": [
						{
							"internalType": "uint256",
							"name": "",
							"type": "uint256"
						}
					],
					"stateMutability": "pure",
					"type": "function"
				},
				{
					"inputs": [],
					"name": "f4",
					"outputs": [
						{
							"internalType": "uint256",
							"name": "",
							"type": "uint256"
						}
					],
					"stateMutability": "pure",
					"type": "function"
				}
			],
			"devdoc": {
				"kind": "dev",
				"methods": {},
				"version": 1
			},
			"evm": {
				"assembly": "    /* \"contracts/visibility specifier.sol\":105:477  contract parent {\r... */\n  mstore(0x40, 0x80)\n  callvalue\n  dup1\n  iszero\n  tag_1\n  jumpi\n  0x00\n  dup1\n  revert\ntag_1:\n  pop\n  dataSize(sub_0)\n  dup1\n  dataOffset(sub_0)\n  0x00\n  codecopy\n  0x00\n  return\nstop\n\nsub_0: assembly {\n        /* \"contracts/visibility specifier.sol\":105:477  contract parent {\r... */\n      mstore(0x40, 0x80)\n      callvalue\n      dup1\n      iszero\n      tag_1\n      jumpi\n      0x00\n      dup1\n      revert\n    tag_1:\n      pop\n      jumpi(tag_2, lt(calldatasize, 0x04))\n      shr(0xe0, calldataload(0x00))\n      dup1\n      0xc27fc305\n      eq\n      tag_3\n      jumpi\n      dup1\n      0xc3f90202\n      eq\n      tag_4\n      jumpi\n    tag_2:\n      0x00\n      dup1\n      revert\n        /* \"contracts/visibility specifier.sol\":130:214  function f1() public  pure  returns (uint){\r... */\n    tag_3:\n      tag_5\n      tag_6\n      jump\t// in\n    tag_5:\n      mload(0x40)\n      tag_7\n      swap2\n      swap1\n      tag_8\n      jump\t// in\n    tag_7:\n      mload(0x40)\n      dup1\n      swap2\n      sub\n      swap1\n      return\n        /* \"contracts/visibility specifier.sol\":396:468  function f4() external   pure  returns (uint){\r... */\n    tag_4:\n      tag_9\n      tag_10\n      jump\t// in\n    tag_9:\n      mload(0x40)\n      tag_11\n      swap2\n      swap1\n      tag_8\n      jump\t// in\n    tag_11:\n      mload(0x40)\n      dup1\n      swap2\n      sub\n      swap1\n      return\n        /* \"contracts/visibility specifier.sol\":130:214  function f1() public  pure  returns (uint){\r... */\n    tag_6:\n        /* \"contracts/visibility specifier.sol\":167:171  uint */\n      0x00\n        /* \"contracts/visibility specifier.sol\":183:187  f2() */\n      tag_13\n        /* \"contracts/visibility specifier.sol\":183:185  f2 */\n      tag_14\n        /* \"contracts/visibility specifier.sol\":183:187  f2() */\n      jump\t// in\n    tag_13:\n      pop\n        /* \"contracts/visibility specifier.sol\":205:206  1 */\n      0x01\n        /* \"contracts/visibility specifier.sol\":198:206  return 1 */\n      swap1\n      pop\n        /* \"contracts/visibility specifier.sol\":130:214  function f1() public  pure  returns (uint){\r... */\n      swap1\n      jump\t// out\n        /* \"contracts/visibility specifier.sol\":396:468  function f4() external   pure  returns (uint){\r... */\n    tag_10:\n        /* \"contracts/visibility specifier.sol\":436:440  uint */\n      0x00\n        /* \"contracts/visibility specifier.sol\":459:460  4 */\n      0x04\n        /* \"contracts/visibility specifier.sol\":452:460  return 4 */\n      swap1\n      pop\n        /* \"contracts/visibility specifier.sol\":396:468  function f4() external   pure  returns (uint){\r... */\n      swap1\n      jump\t// out\n        /* \"contracts/visibility specifier.sol\":222:308  function f2() private   pure  returns (uint){\r... */\n    tag_14:\n        /* \"contracts/visibility specifier.sol\":261:265  uint */\n      0x00\n        /* \"contracts/visibility specifier.sol\":277:281  f3() */\n      tag_17\n        /* \"contracts/visibility specifier.sol\":277:279  f3 */\n      tag_18\n        /* \"contracts/visibility specifier.sol\":277:281  f3() */\n      jump\t// in\n    tag_17:\n      pop\n        /* \"contracts/visibility specifier.sol\":299:300  2 */\n      0x02\n        /* \"contracts/visibility specifier.sol\":292:300  return 2 */\n      swap1\n      pop\n        /* \"contracts/visibility specifier.sol\":222:308  function f2() private   pure  returns (uint){\r... */\n      swap1\n      jump\t// out\n        /* \"contracts/visibility specifier.sol\":316:388  function f3() internal   pure  returns (uint){\r... */\n    tag_18:\n        /* \"contracts/visibility specifier.sol\":356:360  uint */\n      0x00\n        /* \"contracts/visibility specifier.sol\":379:380  3 */\n      0x03\n        /* \"contracts/visibility specifier.sol\":372:380  return 3 */\n      swap1\n      pop\n        /* \"contracts/visibility specifier.sol\":316:388  function f3() internal   pure  returns (uint){\r... */\n      swap1\n      jump\t// out\n        /* \"#utility.yul\":7:125   */\n    tag_21:\n        /* \"#utility.yul\":94:118   */\n      tag_23\n        /* \"#utility.yul\":112:117   */\n      dup2\n        /* \"#utility.yul\":94:118   */\n      tag_24\n      jump\t// in\n    tag_23:\n        /* \"#utility.yul\":89:92   */\n      dup3\n        /* \"#utility.yul\":82:119   */\n      mstore\n        /* \"#utility.yul\":7:125   */\n      pop\n      pop\n      jump\t// out\n        /* \"#utility.yul\":131:353   */\n    tag_8:\n        /* \"#utility.yul\":224:228   */\n      0x00\n        /* \"#utility.yul\":262:264   */\n      0x20\n        /* \"#utility.yul\":251:260   */\n      dup3\n        /* \"#utility.yul\":247:265   */\n      add\n        /* \"#utility.yul\":239:265   */\n      swap1\n      pop\n        /* \"#utility.yul\":275:346   */\n      tag_26\n        /* \"#utility.yul\":343:344   */\n      0x00\n        /* \"#utility.yul\":332:341   */\n      dup4\n        /* \"#utility.yul\":328:345   */\n      add\n        /* \"#utility.yul\":319:325   */\n      dup5\n        /* \"#utility.yul\":275:346   */\n      tag_21\n      jump\t// in\n    tag_26:\n        /* \"#utility.yul\":131:353   */\n      swap3\n      swap2\n      pop\n      pop\n      jump\t// out\n        /* \"#utility.yul\":359:436   */\n    tag_24:\n        /* \"#utility.yul\":396:403   */\n      0x00\n        /* \"#utility.yul\":425:430   */\n      dup2\n        /* \"#utility.yul\":414:430   */\n      swap1\n      pop\n        /* \"#utility.yul\":359:436   */\n      swap2\n      swap1\n      pop\n      jump\t// out\n\n    auxdata: 0xa2646970667358221220d981de485e3e8ae609631ad9c899dcee6b05656834afa2bf646424ef21e14b5864736f6c63430008070033\n}\n",
				"bytecode": {
					"linkReferences": {},
					"object": "608060405234801561001057600080fd5b50610103806100206000396000f3fe6080604052348015600f57600080fd5b506004361060325760003560e01c8063c27fc305146037578063c3f90202146051575b600080fd5b603d606b565b6040516048919060aa565b60405180910390f35b6057607b565b6040516062919060aa565b60405180910390f35b600060736084565b506001905090565b60006004905090565b6000608c6094565b506002905090565b60006003905090565b60a48160c3565b82525050565b600060208201905060bd6000830184609d565b92915050565b600081905091905056fea2646970667358221220d981de485e3e8ae609631ad9c899dcee6b05656834afa2bf646424ef21e14b5864736f6c63430008070033",
					"opcodes": "PUSH1 0x80 PUSH1 0x40 MSTORE CALLVALUE DUP1 ISZERO PUSH2 0x10 JUMPI PUSH1 0x0 DUP1 REVERT JUMPDEST POP PUSH2 0x103 DUP1 PUSH2 0x20 PUSH1 0x0 CODECOPY PUSH1 0x0 RETURN INVALID PUSH1 0x80 PUSH1 0x40 MSTORE CALLVALUE DUP1 ISZERO PUSH1 0xF JUMPI PUSH1 0x0 DUP1 REVERT JUMPDEST POP PUSH1 0x4 CALLDATASIZE LT PUSH1 0x32 JUMPI PUSH1 0x0 CALLDATALOAD PUSH1 0xE0 SHR DUP1 PUSH4 0xC27FC305 EQ PUSH1 0x37 JUMPI DUP1 PUSH4 0xC3F90202 EQ PUSH1 0x51 JUMPI JUMPDEST PUSH1 0x0 DUP1 REVERT JUMPDEST PUSH1 0x3D PUSH1 0x6B JUMP JUMPDEST PUSH1 0x40 MLOAD PUSH1 0x48 SWAP2 SWAP1 PUSH1 0xAA JUMP JUMPDEST PUSH1 0x40 MLOAD DUP1 SWAP2 SUB SWAP1 RETURN JUMPDEST PUSH1 0x57 PUSH1 0x7B JUMP JUMPDEST PUSH1 0x40 MLOAD PUSH1 0x62 SWAP2 SWAP1 PUSH1 0xAA JUMP JUMPDEST PUSH1 0x40 MLOAD DUP1 SWAP2 SUB SWAP1 RETURN JUMPDEST PUSH1 0x0 PUSH1 0x73 PUSH1 0x84 JUMP JUMPDEST POP PUSH1 0x1 SWAP1 POP SWAP1 JUMP JUMPDEST PUSH1 0x0 PUSH1 0x4 SWAP1 POP SWAP1 JUMP JUMPDEST PUSH1 0x0 PUSH1 0x8C PUSH1 0x94 JUMP JUMPDEST POP PUSH1 0x2 SWAP1 POP SWAP1 JUMP JUMPDEST PUSH1 0x0 PUSH1 0x3 SWAP1 POP SWAP1 JUMP JUMPDEST PUSH1 0xA4 DUP2 PUSH1 0xC3 JUMP JUMPDEST DUP3 MSTORE POP POP JUMP JUMPDEST PUSH1 0x0 PUSH1 0x20 DUP3 ADD SWAP1 POP PUSH1 0xBD PUSH1 0x0 DUP4 ADD DUP5 PUSH1 0x9D JUMP JUMPDEST SWAP3 SWAP2 POP POP JUMP JUMPDEST PUSH1 0x0 DUP2 SWAP1 POP SWAP2 SWAP1 POP JUMP INVALID LOG2 PUSH5 0x6970667358 0x22 SLT KECCAK256 0xD9 DUP2 0xDE BASEFEE 0x5E RETURNDATACOPY DUP11 0xE6 MULMOD PUSH4 0x1AD9C899 0xDC 0xEE PUSH12 0x5656834AFA2BF646424EF21 0xE1 0x4B PC PUSH5 0x736F6C6343 STOP ADDMOD SMOD STOP CALLER "
				},
				"gasEstimates": {
					"creation": {
						"codeDepositCost": "51800",
						"executionCost": "105",
						"totalCost": "51905"
					},
					"external": {
						"f1()": "395",
						"f4()": "337"
					},
					"internal": {
						"f2()": "63",
						"f3()": "23"
					}
				},
				"methodIdentifiers": {
					"f1()": "c27fc305",
					"f4()": "c3f90202"
				}
			},
			"storageLayout": {
				"storage": [],
				"types": null
			},
			"userdoc": {
				"kind": "user",
				"methods": {},
				"version": 1
			}
		}
	}
}