{
	"contracts/structure.sol": {
		"academy": {
			"abi": [
				{
					"inputs": [
						{
							"internalType": "uint256",
							"name": "_age",
							"type": "uint256"
						},
						{
							"internalType": "string",
							"name": "_name",
							"type": "string"
						},
						{
							"internalType": "int256",
							"name": "_money",
							"type": "int256"
						}
					],
					"stateMutability": "nonpayable",
					"type": "constructor"
				},
				{
					"inputs": [],
					"name": "acedamyinstructor",
					"outputs": [
						{
							"internalType": "uint256",
							"name": "age",
							"type": "uint256"
						},
						{
							"internalType": "string",
							"name": "name",
							"type": "string"
						},
						{
							"internalType": "int256",
							"name": "money",
							"type": "int256"
						},
						{
							"internalType": "address",
							"name": "addr",
							"type": "address"
						}
					],
					"stateMutability": "view",
					"type": "function"
				},
				{
					"inputs": [
						{
							"internalType": "uint256",
							"name": "_age",
							"type": "uint256"
						},
						{
							"internalType": "string",
							"name": "_name",
							"type": "string"
						},
						{
							"internalType": "address",
							"name": "_addr",
							"type": "address"
						},
						{
							"internalType": "int256",
							"name": "_money",
							"type": "int256"
						}
					],
					"name": "changeinstructor",
					"outputs": [],
					"stateMutability": "nonpayable",
					"type": "function"
				}
			],
			"devdoc": {
				"kind": "dev",
				"methods": {},
				"version": 1
			},
			"evm": {
				"assembly": "    /* \"contracts/structure.sol\":206:811  contract academy{\r... */\n  mstore(0x40, 0x80)\n    /* \"contracts/structure.sol\":267:471  constructor (uint _age, string memory _name,int _money){\r... */\n  callvalue\n  dup1\n  iszero\n  tag_1\n  jumpi\n  0x00\n  dup1\n  revert\ntag_1:\n  pop\n  mload(0x40)\n  sub(codesize, bytecodeSize)\n  dup1\n  bytecodeSize\n  dup4\n  codecopy\n  dup2\n  dup2\n  add\n  0x40\n  mstore\n  dup2\n  add\n  swap1\n  tag_2\n  swap2\n  swap1\n  tag_3\n  jump\t// in\ntag_2:\n    /* \"contracts/structure.sol\":351:355  _age */\n  dup3\n    /* \"contracts/structure.sol\":329:346  acedamyinstructor */\n  0x00\n    /* \"contracts/structure.sol\":329:350  acedamyinstructor.age */\n  dup1\n  add\n    /* \"contracts/structure.sol\":329:355  acedamyinstructor.age=_age */\n  dup2\n  swap1\n  sstore\n  pop\n    /* \"contracts/structure.sol\":385:390  _name */\n  dup2\n    /* \"contracts/structure.sol\":362:379  acedamyinstructor */\n  0x00\n    /* \"contracts/structure.sol\":362:384  acedamyinstructor.name */\n  0x01\n  add\n    /* \"contracts/structure.sol\":362:390  acedamyinstructor.name=_name */\n  swap1\n  dup1\n  mload\n  swap1\n  0x20\n  add\n  swap1\n  tag_6\n  swap3\n  swap2\n  swap1\n  tag_7\n  jump\t// in\ntag_6:\n  pop\n    /* \"contracts/structure.sol\":421:427  _money */\n  dup1\n    /* \"contracts/structure.sol\":397:414  acedamyinstructor */\n  0x00\n    /* \"contracts/structure.sol\":397:420  acedamyinstructor.money */\n  0x02\n  add\n    /* \"contracts/structure.sol\":397:427  acedamyinstructor.money=_money */\n  dup2\n  swap1\n  sstore\n  pop\n    /* \"contracts/structure.sol\":457:467  msg.sender */\n  caller\n    /* \"contracts/structure.sol\":434:451  acedamyinstructor */\n  0x00\n    /* \"contracts/structure.sol\":434:456  acedamyinstructor.addr */\n  0x03\n  add\n  0x00\n    /* \"contracts/structure.sol\":434:467  acedamyinstructor.addr=msg.sender */\n  0x0100\n  exp\n  dup2\n  sload\n  dup2\n  0xffffffffffffffffffffffffffffffffffffffff\n  mul\n  not\n  and\n  swap1\n  dup4\n  0xffffffffffffffffffffffffffffffffffffffff\n  and\n  mul\n  or\n  swap1\n  sstore\n  pop\n    /* \"contracts/structure.sol\":267:471  constructor (uint _age, string memory _name,int _money){\r... */\n  pop\n  pop\n  pop\n    /* \"contracts/structure.sol\":206:811  contract academy{\r... */\n  jump(tag_8)\ntag_7:\n  dup3\n  dup1\n  sload\n  tag_9\n  swap1\n  tag_10\n  jump\t// in\ntag_9:\n  swap1\n  0x00\n  mstore\n  keccak256(0x00, 0x20)\n  swap1\n  0x1f\n  add\n  0x20\n  swap1\n  div\n  dup2\n  add\n  swap3\n  dup3\n  tag_12\n  jumpi\n  0x00\n  dup6\n  sstore\n  jump(tag_11)\ntag_12:\n  dup3\n  0x1f\n  lt\n  tag_13\n  jumpi\n  dup1\n  mload\n  not(0xff)\n  and\n  dup4\n  dup1\n  add\n  or\n  dup6\n  sstore\n  jump(tag_11)\ntag_13:\n  dup3\n  dup1\n  add\n  0x01\n  add\n  dup6\n  sstore\n  dup3\n  iszero\n  tag_11\n  jumpi\n  swap2\n  dup3\n  add\ntag_14:\n  dup3\n  dup2\n  gt\n  iszero\n  tag_15\n  jumpi\n  dup3\n  mload\n  dup3\n  sstore\n  swap2\n  0x20\n  add\n  swap2\n  swap1\n  0x01\n  add\n  swap1\n  jump(tag_14)\ntag_15:\ntag_11:\n  pop\n  swap1\n  pop\n  tag_16\n  swap2\n  swap1\n  tag_17\n  jump\t// in\ntag_16:\n  pop\n  swap1\n  jump\t// out\ntag_17:\ntag_18:\n  dup1\n  dup3\n  gt\n  iszero\n  tag_19\n  jumpi\n  0x00\n  dup2\n  0x00\n  swap1\n  sstore\n  pop\n  0x01\n  add\n  jump(tag_18)\ntag_19:\n  pop\n  swap1\n  jump\t// out\n    /* \"#utility.yul\":7:428   */\ntag_21:\n    /* \"#utility.yul\":96:101   */\n  0x00\n    /* \"#utility.yul\":121:187   */\n  tag_23\n    /* \"#utility.yul\":137:186   */\n  tag_24\n    /* \"#utility.yul\":179:185   */\n  dup5\n    /* \"#utility.yul\":137:186   */\n  tag_25\n  jump\t// in\ntag_24:\n    /* \"#utility.yul\":121:187   */\n  tag_26\n  jump\t// in\ntag_23:\n    /* \"#utility.yul\":112:187   */\n  swap1\n  pop\n    /* \"#utility.yul\":210:216   */\n  dup3\n    /* \"#utility.yul\":203:208   */\n  dup2\n    /* \"#utility.yul\":196:217   */\n  mstore\n    /* \"#utility.yul\":248:252   */\n  0x20\n    /* \"#utility.yul\":241:246   */\n  dup2\n    /* \"#utility.yul\":237:253   */\n  add\n    /* \"#utility.yul\":286:289   */\n  dup5\n    /* \"#utility.yul\":277:283   */\n  dup5\n    /* \"#utility.yul\":272:275   */\n  dup5\n    /* \"#utility.yul\":268:284   */\n  add\n    /* \"#utility.yul\":265:290   */\n  gt\n    /* \"#utility.yul\":262:374   */\n  iszero\n  tag_27\n  jumpi\n    /* \"#utility.yul\":293:372   */\n  tag_28\n  tag_29\n  jump\t// in\ntag_28:\n    /* \"#utility.yul\":262:374   */\ntag_27:\n    /* \"#utility.yul\":383:422   */\n  tag_30\n    /* \"#utility.yul\":415:421   */\n  dup5\n    /* \"#utility.yul\":410:413   */\n  dup3\n    /* \"#utility.yul\":405:408   */\n  dup6\n    /* \"#utility.yul\":383:422   */\n  tag_31\n  jump\t// in\ntag_30:\n    /* \"#utility.yul\":102:428   */\n  pop\n    /* \"#utility.yul\":7:428   */\n  swap4\n  swap3\n  pop\n  pop\n  pop\n  jump\t// out\n    /* \"#utility.yul\":434:575   */\ntag_32:\n    /* \"#utility.yul\":490:495   */\n  0x00\n    /* \"#utility.yul\":521:527   */\n  dup2\n    /* \"#utility.yul\":515:528   */\n  mload\n    /* \"#utility.yul\":506:528   */\n  swap1\n  pop\n    /* \"#utility.yul\":537:569   */\n  tag_34\n    /* \"#utility.yul\":563:568   */\n  dup2\n    /* \"#utility.yul\":537:569   */\n  tag_35\n  jump\t// in\ntag_34:\n    /* \"#utility.yul\":434:575   */\n  swap3\n  swap2\n  pop\n  pop\n  jump\t// out\n    /* \"#utility.yul\":595:950   */\ntag_36:\n    /* \"#utility.yul\":662:667   */\n  0x00\n    /* \"#utility.yul\":711:714   */\n  dup3\n    /* \"#utility.yul\":704:708   */\n  0x1f\n    /* \"#utility.yul\":696:702   */\n  dup4\n    /* \"#utility.yul\":692:709   */\n  add\n    /* \"#utility.yul\":688:715   */\n  slt\n    /* \"#utility.yul\":678:800   */\n  tag_38\n  jumpi\n    /* \"#utility.yul\":719:798   */\n  tag_39\n  tag_40\n  jump\t// in\ntag_39:\n    /* \"#utility.yul\":678:800   */\ntag_38:\n    /* \"#utility.yul\":829:835   */\n  dup2\n    /* \"#utility.yul\":823:836   */\n  mload\n    /* \"#utility.yul\":854:944   */\n  tag_41\n    /* \"#utility.yul\":940:943   */\n  dup5\n    /* \"#utility.yul\":932:938   */\n  dup3\n    /* \"#utility.yul\":925:929   */\n  0x20\n    /* \"#utility.yul\":917:923   */\n  dup7\n    /* \"#utility.yul\":913:930   */\n  add\n    /* \"#utility.yul\":854:944   */\n  tag_21\n  jump\t// in\ntag_41:\n    /* \"#utility.yul\":845:944   */\n  swap2\n  pop\n    /* \"#utility.yul\":668:950   */\n  pop\n    /* \"#utility.yul\":595:950   */\n  swap3\n  swap2\n  pop\n  pop\n  jump\t// out\n    /* \"#utility.yul\":956:1099   */\ntag_42:\n    /* \"#utility.yul\":1013:1018   */\n  0x00\n    /* \"#utility.yul\":1044:1050   */\n  dup2\n    /* \"#utility.yul\":1038:1051   */\n  mload\n    /* \"#utility.yul\":1029:1051   */\n  swap1\n  pop\n    /* \"#utility.yul\":1060:1093   */\n  tag_44\n    /* \"#utility.yul\":1087:1092   */\n  dup2\n    /* \"#utility.yul\":1060:1093   */\n  tag_45\n  jump\t// in\ntag_44:\n    /* \"#utility.yul\":956:1099   */\n  swap3\n  swap2\n  pop\n  pop\n  jump\t// out\n    /* \"#utility.yul\":1105:1939   */\ntag_3:\n    /* \"#utility.yul\":1202:1208   */\n  0x00\n    /* \"#utility.yul\":1210:1216   */\n  dup1\n    /* \"#utility.yul\":1218:1224   */\n  0x00\n    /* \"#utility.yul\":1267:1269   */\n  0x60\n    /* \"#utility.yul\":1255:1264   */\n  dup5\n    /* \"#utility.yul\":1246:1253   */\n  dup7\n    /* \"#utility.yul\":1242:1265   */\n  sub\n    /* \"#utility.yul\":1238:1270   */\n  slt\n    /* \"#utility.yul\":1235:1354   */\n  iszero\n  tag_47\n  jumpi\n    /* \"#utility.yul\":1273:1352   */\n  tag_48\n  tag_49\n  jump\t// in\ntag_48:\n    /* \"#utility.yul\":1235:1354   */\ntag_47:\n    /* \"#utility.yul\":1393:1394   */\n  0x00\n    /* \"#utility.yul\":1418:1482   */\n  tag_50\n    /* \"#utility.yul\":1474:1481   */\n  dup7\n    /* \"#utility.yul\":1465:1471   */\n  dup3\n    /* \"#utility.yul\":1454:1463   */\n  dup8\n    /* \"#utility.yul\":1450:1472   */\n  add\n    /* \"#utility.yul\":1418:1482   */\n  tag_42\n  jump\t// in\ntag_50:\n    /* \"#utility.yul\":1408:1482   */\n  swap4\n  pop\n    /* \"#utility.yul\":1364:1492   */\n  pop\n    /* \"#utility.yul\":1552:1554   */\n  0x20\n    /* \"#utility.yul\":1541:1550   */\n  dup5\n    /* \"#utility.yul\":1537:1555   */\n  add\n    /* \"#utility.yul\":1531:1556   */\n  mload\n    /* \"#utility.yul\":1583:1601   */\n  0xffffffffffffffff\n    /* \"#utility.yul\":1575:1581   */\n  dup2\n    /* \"#utility.yul\":1572:1602   */\n  gt\n    /* \"#utility.yul\":1569:1686   */\n  iszero\n  tag_51\n  jumpi\n    /* \"#utility.yul\":1605:1684   */\n  tag_52\n  tag_53\n  jump\t// in\ntag_52:\n    /* \"#utility.yul\":1569:1686   */\ntag_51:\n    /* \"#utility.yul\":1710:1784   */\n  tag_54\n    /* \"#utility.yul\":1776:1783   */\n  dup7\n    /* \"#utility.yul\":1767:1773   */\n  dup3\n    /* \"#utility.yul\":1756:1765   */\n  dup8\n    /* \"#utility.yul\":1752:1774   */\n  add\n    /* \"#utility.yul\":1710:1784   */\n  tag_36\n  jump\t// in\ntag_54:\n    /* \"#utility.yul\":1700:1784   */\n  swap3\n  pop\n    /* \"#utility.yul\":1502:1794   */\n  pop\n    /* \"#utility.yul\":1833:1835   */\n  0x40\n    /* \"#utility.yul\":1859:1922   */\n  tag_55\n    /* \"#utility.yul\":1914:1921   */\n  dup7\n    /* \"#utility.yul\":1905:1911   */\n  dup3\n    /* \"#utility.yul\":1894:1903   */\n  dup8\n    /* \"#utility.yul\":1890:1912   */\n  add\n    /* \"#utility.yul\":1859:1922   */\n  tag_32\n  jump\t// in\ntag_55:\n    /* \"#utility.yul\":1849:1922   */\n  swap2\n  pop\n    /* \"#utility.yul\":1804:1932   */\n  pop\n    /* \"#utility.yul\":1105:1939   */\n  swap3\n  pop\n  swap3\n  pop\n  swap3\n  jump\t// out\n    /* \"#utility.yul\":1945:2074   */\ntag_26:\n    /* \"#utility.yul\":1979:1985   */\n  0x00\n    /* \"#utility.yul\":2006:2026   */\n  tag_57\n  tag_58\n  jump\t// in\ntag_57:\n    /* \"#utility.yul\":1996:2026   */\n  swap1\n  pop\n    /* \"#utility.yul\":2035:2068   */\n  tag_59\n    /* \"#utility.yul\":2063:2067   */\n  dup3\n    /* \"#utility.yul\":2055:2061   */\n  dup3\n    /* \"#utility.yul\":2035:2068   */\n  tag_60\n  jump\t// in\ntag_59:\n    /* \"#utility.yul\":1945:2074   */\n  swap2\n  swap1\n  pop\n  jump\t// out\n    /* \"#utility.yul\":2080:2155   */\ntag_58:\n    /* \"#utility.yul\":2113:2119   */\n  0x00\n    /* \"#utility.yul\":2146:2148   */\n  0x40\n    /* \"#utility.yul\":2140:2149   */\n  mload\n    /* \"#utility.yul\":2130:2149   */\n  swap1\n  pop\n    /* \"#utility.yul\":2080:2155   */\n  swap1\n  jump\t// out\n    /* \"#utility.yul\":2161:2469   */\ntag_25:\n    /* \"#utility.yul\":2223:2227   */\n  0x00\n    /* \"#utility.yul\":2313:2331   */\n  0xffffffffffffffff\n    /* \"#utility.yul\":2305:2311   */\n  dup3\n    /* \"#utility.yul\":2302:2332   */\n  gt\n    /* \"#utility.yul\":2299:2355   */\n  iszero\n  tag_63\n  jumpi\n    /* \"#utility.yul\":2335:2353   */\n  tag_64\n  tag_65\n  jump\t// in\ntag_64:\n    /* \"#utility.yul\":2299:2355   */\ntag_63:\n    /* \"#utility.yul\":2373:2402   */\n  tag_66\n    /* \"#utility.yul\":2395:2401   */\n  dup3\n    /* \"#utility.yul\":2373:2402   */\n  tag_67\n  jump\t// in\ntag_66:\n    /* \"#utility.yul\":2365:2402   */\n  swap1\n  pop\n    /* \"#utility.yul\":2457:2461   */\n  0x20\n    /* \"#utility.yul\":2451:2455   */\n  dup2\n    /* \"#utility.yul\":2447:2462   */\n  add\n    /* \"#utility.yul\":2439:2462   */\n  swap1\n  pop\n    /* \"#utility.yul\":2161:2469   */\n  swap2\n  swap1\n  pop\n  jump\t// out\n    /* \"#utility.yul\":2475:2551   */\ntag_68:\n    /* \"#utility.yul\":2511:2518   */\n  0x00\n    /* \"#utility.yul\":2540:2545   */\n  dup2\n    /* \"#utility.yul\":2529:2545   */\n  swap1\n  pop\n    /* \"#utility.yul\":2475:2551   */\n  swap2\n  swap1\n  pop\n  jump\t// out\n    /* \"#utility.yul\":2557:2634   */\ntag_70:\n    /* \"#utility.yul\":2594:2601   */\n  0x00\n    /* \"#utility.yul\":2623:2628   */\n  dup2\n    /* \"#utility.yul\":2612:2628   */\n  swap1\n  pop\n    /* \"#utility.yul\":2557:2634   */\n  swap2\n  swap1\n  pop\n  jump\t// out\n    /* \"#utility.yul\":2640:2947   */\ntag_31:\n    /* \"#utility.yul\":2708:2709   */\n  0x00\n    /* \"#utility.yul\":2718:2831   */\ntag_73:\n    /* \"#utility.yul\":2732:2738   */\n  dup4\n    /* \"#utility.yul\":2729:2730   */\n  dup2\n    /* \"#utility.yul\":2726:2739   */\n  lt\n    /* \"#utility.yul\":2718:2831   */\n  iszero\n  tag_75\n  jumpi\n    /* \"#utility.yul\":2817:2818   */\n  dup1\n    /* \"#utility.yul\":2812:2815   */\n  dup3\n    /* \"#utility.yul\":2808:2819   */\n  add\n    /* \"#utility.yul\":2802:2820   */\n  mload\n    /* \"#utility.yul\":2798:2799   */\n  dup2\n    /* \"#utility.yul\":2793:2796   */\n  dup5\n    /* \"#utility.yul\":2789:2800   */\n  add\n    /* \"#utility.yul\":2782:2821   */\n  mstore\n    /* \"#utility.yul\":2754:2756   */\n  0x20\n    /* \"#utility.yul\":2751:2752   */\n  dup2\n    /* \"#utility.yul\":2747:2757   */\n  add\n    /* \"#utility.yul\":2742:2757   */\n  swap1\n  pop\n    /* \"#utility.yul\":2718:2831   */\n  jump(tag_73)\ntag_75:\n    /* \"#utility.yul\":2849:2855   */\n  dup4\n    /* \"#utility.yul\":2846:2847   */\n  dup2\n    /* \"#utility.yul\":2843:2856   */\n  gt\n    /* \"#utility.yul\":2840:2941   */\n  iszero\n  tag_76\n  jumpi\n    /* \"#utility.yul\":2929:2930   */\n  0x00\n    /* \"#utility.yul\":2920:2926   */\n  dup5\n    /* \"#utility.yul\":2915:2918   */\n  dup5\n    /* \"#utility.yul\":2911:2927   */\n  add\n    /* \"#utility.yul\":2904:2931   */\n  mstore\n    /* \"#utility.yul\":2840:2941   */\ntag_76:\n    /* \"#utility.yul\":2689:2947   */\n  pop\n    /* \"#utility.yul\":2640:2947   */\n  pop\n  pop\n  pop\n  jump\t// out\n    /* \"#utility.yul\":2953:3273   */\ntag_10:\n    /* \"#utility.yul\":2997:3003   */\n  0x00\n    /* \"#utility.yul\":3034:3035   */\n  0x02\n    /* \"#utility.yul\":3028:3032   */\n  dup3\n    /* \"#utility.yul\":3024:3036   */\n  div\n    /* \"#utility.yul\":3014:3036   */\n  swap1\n  pop\n    /* \"#utility.yul\":3081:3082   */\n  0x01\n    /* \"#utility.yul\":3075:3079   */\n  dup3\n    /* \"#utility.yul\":3071:3083   */\n  and\n    /* \"#utility.yul\":3102:3120   */\n  dup1\n    /* \"#utility.yul\":3092:3173   */\n  tag_78\n  jumpi\n    /* \"#utility.yul\":3158:3162   */\n  0x7f\n    /* \"#utility.yul\":3150:3156   */\n  dup3\n    /* \"#utility.yul\":3146:3163   */\n  and\n    /* \"#utility.yul\":3136:3163   */\n  swap2\n  pop\n    /* \"#utility.yul\":3092:3173   */\ntag_78:\n    /* \"#utility.yul\":3220:3222   */\n  0x20\n    /* \"#utility.yul\":3212:3218   */\n  dup3\n    /* \"#utility.yul\":3209:3223   */\n  lt\n    /* \"#utility.yul\":3189:3207   */\n  dup2\n    /* \"#utility.yul\":3186:3224   */\n  eq\n    /* \"#utility.yul\":3183:3267   */\n  iszero\n  tag_79\n  jumpi\n    /* \"#utility.yul\":3239:3257   */\n  tag_80\n  tag_81\n  jump\t// in\ntag_80:\n    /* \"#utility.yul\":3183:3267   */\ntag_79:\n    /* \"#utility.yul\":3004:3273   */\n  pop\n    /* \"#utility.yul\":2953:3273   */\n  swap2\n  swap1\n  pop\n  jump\t// out\n    /* \"#utility.yul\":3279:3560   */\ntag_60:\n    /* \"#utility.yul\":3362:3389   */\n  tag_83\n    /* \"#utility.yul\":3384:3388   */\n  dup3\n    /* \"#utility.yul\":3362:3389   */\n  tag_67\n  jump\t// in\ntag_83:\n    /* \"#utility.yul\":3354:3360   */\n  dup2\n    /* \"#utility.yul\":3350:3390   */\n  add\n    /* \"#utility.yul\":3492:3498   */\n  dup2\n    /* \"#utility.yul\":3480:3490   */\n  dup2\n    /* \"#utility.yul\":3477:3499   */\n  lt\n    /* \"#utility.yul\":3456:3474   */\n  0xffffffffffffffff\n    /* \"#utility.yul\":3444:3454   */\n  dup3\n    /* \"#utility.yul\":3441:3475   */\n  gt\n    /* \"#utility.yul\":3438:3500   */\n  or\n    /* \"#utility.yul\":3435:3523   */\n  iszero\n  tag_84\n  jumpi\n    /* \"#utility.yul\":3503:3521   */\n  tag_85\n  tag_65\n  jump\t// in\ntag_85:\n    /* \"#utility.yul\":3435:3523   */\ntag_84:\n    /* \"#utility.yul\":3543:3553   */\n  dup1\n    /* \"#utility.yul\":3539:3541   */\n  0x40\n    /* \"#utility.yul\":3532:3554   */\n  mstore\n    /* \"#utility.yul\":3322:3560   */\n  pop\n    /* \"#utility.yul\":3279:3560   */\n  pop\n  pop\n  jump\t// out\n    /* \"#utility.yul\":3566:3746   */\ntag_81:\n    /* \"#utility.yul\":3614:3691   */\n  0x4e487b7100000000000000000000000000000000000000000000000000000000\n    /* \"#utility.yul\":3611:3612   */\n  0x00\n    /* \"#utility.yul\":3604:3692   */\n  mstore\n    /* \"#utility.yul\":3711:3715   */\n  0x22\n    /* \"#utility.yul\":3708:3709   */\n  0x04\n    /* \"#utility.yul\":3701:3716   */\n  mstore\n    /* \"#utility.yul\":3735:3739   */\n  0x24\n    /* \"#utility.yul\":3732:3733   */\n  0x00\n    /* \"#utility.yul\":3725:3740   */\n  revert\n    /* \"#utility.yul\":3752:3932   */\ntag_65:\n    /* \"#utility.yul\":3800:3877   */\n  0x4e487b7100000000000000000000000000000000000000000000000000000000\n    /* \"#utility.yul\":3797:3798   */\n  0x00\n    /* \"#utility.yul\":3790:3878   */\n  mstore\n    /* \"#utility.yul\":3897:3901   */\n  0x41\n    /* \"#utility.yul\":3894:3895   */\n  0x04\n    /* \"#utility.yul\":3887:3902   */\n  mstore\n    /* \"#utility.yul\":3921:3925   */\n  0x24\n    /* \"#utility.yul\":3918:3919   */\n  0x00\n    /* \"#utility.yul\":3911:3926   */\n  revert\n    /* \"#utility.yul\":3938:4055   */\ntag_40:\n    /* \"#utility.yul\":4047:4048   */\n  0x00\n    /* \"#utility.yul\":4044:4045   */\n  dup1\n    /* \"#utility.yul\":4037:4049   */\n  revert\n    /* \"#utility.yul\":4061:4178   */\ntag_29:\n    /* \"#utility.yul\":4170:4171   */\n  0x00\n    /* \"#utility.yul\":4167:4168   */\n  dup1\n    /* \"#utility.yul\":4160:4172   */\n  revert\n    /* \"#utility.yul\":4184:4301   */\ntag_53:\n    /* \"#utility.yul\":4293:4294   */\n  0x00\n    /* \"#utility.yul\":4290:4291   */\n  dup1\n    /* \"#utility.yul\":4283:4295   */\n  revert\n    /* \"#utility.yul\":4307:4424   */\ntag_49:\n    /* \"#utility.yul\":4416:4417   */\n  0x00\n    /* \"#utility.yul\":4413:4414   */\n  dup1\n    /* \"#utility.yul\":4406:4418   */\n  revert\n    /* \"#utility.yul\":4430:4532   */\ntag_67:\n    /* \"#utility.yul\":4471:4477   */\n  0x00\n    /* \"#utility.yul\":4522:4524   */\n  0x1f\n    /* \"#utility.yul\":4518:4525   */\n  not\n    /* \"#utility.yul\":4513:4515   */\n  0x1f\n    /* \"#utility.yul\":4506:4511   */\n  dup4\n    /* \"#utility.yul\":4502:4516   */\n  add\n    /* \"#utility.yul\":4498:4526   */\n  and\n    /* \"#utility.yul\":4488:4526   */\n  swap1\n  pop\n    /* \"#utility.yul\":4430:4532   */\n  swap2\n  swap1\n  pop\n  jump\t// out\n    /* \"#utility.yul\":4538:4658   */\ntag_35:\n    /* \"#utility.yul\":4610:4633   */\n  tag_94\n    /* \"#utility.yul\":4627:4632   */\n  dup2\n    /* \"#utility.yul\":4610:4633   */\n  tag_68\n  jump\t// in\ntag_94:\n    /* \"#utility.yul\":4603:4608   */\n  dup2\n    /* \"#utility.yul\":4600:4634   */\n  eq\n    /* \"#utility.yul\":4590:4652   */\n  tag_95\n  jumpi\n    /* \"#utility.yul\":4648:4649   */\n  0x00\n    /* \"#utility.yul\":4645:4646   */\n  dup1\n    /* \"#utility.yul\":4638:4650   */\n  revert\n    /* \"#utility.yul\":4590:4652   */\ntag_95:\n    /* \"#utility.yul\":4538:4658   */\n  pop\n  jump\t// out\n    /* \"#utility.yul\":4664:4786   */\ntag_45:\n    /* \"#utility.yul\":4737:4761   */\n  tag_97\n    /* \"#utility.yul\":4755:4760   */\n  dup2\n    /* \"#utility.yul\":4737:4761   */\n  tag_70\n  jump\t// in\ntag_97:\n    /* \"#utility.yul\":4730:4735   */\n  dup2\n    /* \"#utility.yul\":4727:4762   */\n  eq\n    /* \"#utility.yul\":4717:4780   */\n  tag_98\n  jumpi\n    /* \"#utility.yul\":4776:4777   */\n  0x00\n    /* \"#utility.yul\":4773:4774   */\n  dup1\n    /* \"#utility.yul\":4766:4778   */\n  revert\n    /* \"#utility.yul\":4717:4780   */\ntag_98:\n    /* \"#utility.yul\":4664:4786   */\n  pop\n  jump\t// out\n    /* \"contracts/structure.sol\":206:811  contract academy{\r... */\ntag_8:\n  dataSize(sub_0)\n  dup1\n  dataOffset(sub_0)\n  0x00\n  codecopy\n  0x00\n  return\nstop\n\nsub_0: assembly {\n        /* \"contracts/structure.sol\":206:811  contract academy{\r... */\n      mstore(0x40, 0x80)\n      callvalue\n      dup1\n      iszero\n      tag_1\n      jumpi\n      0x00\n      dup1\n      revert\n    tag_1:\n      pop\n      jumpi(tag_2, lt(calldatasize, 0x04))\n      shr(0xe0, calldataload(0x00))\n      dup1\n      0x457a0af6\n      eq\n      tag_3\n      jumpi\n      dup1\n      0x48a941ab\n      eq\n      tag_4\n      jumpi\n    tag_2:\n      0x00\n      dup1\n      revert\n        /* \"contracts/structure.sol\":229:264  instructor public acedamyinstructor */\n    tag_3:\n      tag_5\n      tag_6\n      jump\t// in\n    tag_5:\n      mload(0x40)\n      tag_7\n      swap5\n      swap4\n      swap3\n      swap2\n      swap1\n      tag_8\n      jump\t// in\n    tag_7:\n      mload(0x40)\n      dup1\n      swap2\n      sub\n      swap1\n      return\n        /* \"contracts/structure.sol\":501:804  function changeinstructor(uint _age,string memory _name,address _addr,int _money) public {\r... */\n    tag_4:\n      tag_9\n      0x04\n      dup1\n      calldatasize\n      sub\n      dup2\n      add\n      swap1\n      tag_10\n      swap2\n      swap1\n      tag_11\n      jump\t// in\n    tag_10:\n      tag_12\n      jump\t// in\n    tag_9:\n      stop\n        /* \"contracts/structure.sol\":229:264  instructor public acedamyinstructor */\n    tag_6:\n      0x00\n      dup1\n      0x00\n      add\n      sload\n      swap1\n      dup1\n      0x01\n      add\n      dup1\n      sload\n      tag_13\n      swap1\n      tag_14\n      jump\t// in\n    tag_13:\n      dup1\n      0x1f\n      add\n      0x20\n      dup1\n      swap2\n      div\n      mul\n      0x20\n      add\n      mload(0x40)\n      swap1\n      dup2\n      add\n      0x40\n      mstore\n      dup1\n      swap3\n      swap2\n      swap1\n      dup2\n      dup2\n      mstore\n      0x20\n      add\n      dup3\n      dup1\n      sload\n      tag_15\n      swap1\n      tag_14\n      jump\t// in\n    tag_15:\n      dup1\n      iszero\n      tag_16\n      jumpi\n      dup1\n      0x1f\n      lt\n      tag_17\n      jumpi\n      0x0100\n      dup1\n      dup4\n      sload\n      div\n      mul\n      dup4\n      mstore\n      swap2\n      0x20\n      add\n      swap2\n      jump(tag_16)\n    tag_17:\n      dup3\n      add\n      swap2\n      swap1\n      0x00\n      mstore\n      keccak256(0x00, 0x20)\n      swap1\n    tag_18:\n      dup2\n      sload\n      dup2\n      mstore\n      swap1\n      0x01\n      add\n      swap1\n      0x20\n      add\n      dup1\n      dup4\n      gt\n      tag_18\n      jumpi\n      dup3\n      swap1\n      sub\n      0x1f\n      and\n      dup3\n      add\n      swap2\n    tag_16:\n      pop\n      pop\n      pop\n      pop\n      pop\n      swap1\n      dup1\n      0x02\n      add\n      sload\n      swap1\n      dup1\n      0x03\n      add\n      0x00\n      swap1\n      sload\n      swap1\n      0x0100\n      exp\n      swap1\n      div\n      0xffffffffffffffffffffffffffffffffffffffff\n      and\n      swap1\n      pop\n      dup5\n      jump\t// out\n        /* \"contracts/structure.sol\":501:804  function changeinstructor(uint _age,string memory _name,address _addr,int _money) public {\r... */\n    tag_12:\n        /* \"contracts/structure.sol\":601:631  instructor memory myinstructor */\n      0x00\n        /* \"contracts/structure.sol\":632:755  instructor({\r... */\n      mload(0x40)\n      dup1\n      0x80\n      add\n      0x40\n      mstore\n      dup1\n        /* \"contracts/structure.sol\":662:666  _age */\n      dup7\n        /* \"contracts/structure.sol\":632:755  instructor({\r... */\n      dup2\n      mstore\n      0x20\n      add\n        /* \"contracts/structure.sol\":686:691  _name */\n      dup6\n        /* \"contracts/structure.sol\":632:755  instructor({\r... */\n      dup2\n      mstore\n      0x20\n      add\n        /* \"contracts/structure.sol\":737:743  _money */\n      dup4\n        /* \"contracts/structure.sol\":632:755  instructor({\r... */\n      dup2\n      mstore\n      0x20\n      add\n        /* \"contracts/structure.sol\":711:716  _addr */\n      dup5\n        /* \"contracts/structure.sol\":632:755  instructor({\r... */\n      0xffffffffffffffffffffffffffffffffffffffff\n      and\n      dup2\n      mstore\n      pop\n        /* \"contracts/structure.sol\":601:755  instructor memory myinstructor=instructor({\r... */\n      swap1\n      pop\n        /* \"contracts/structure.sol\":784:796  myinstructor */\n      dup1\n        /* \"contracts/structure.sol\":766:783  acedamyinstructor */\n      0x00\n        /* \"contracts/structure.sol\":766:796  acedamyinstructor=myinstructor */\n      dup1\n      dup3\n      add\n      mload\n      dup2\n      0x00\n      add\n      sstore\n      0x20\n      dup3\n      add\n      mload\n      dup2\n      0x01\n      add\n      swap1\n      dup1\n      mload\n      swap1\n      0x20\n      add\n      swap1\n      tag_20\n      swap3\n      swap2\n      swap1\n      tag_21\n      jump\t// in\n    tag_20:\n      pop\n      0x40\n      dup3\n      add\n      mload\n      dup2\n      0x02\n      add\n      sstore\n      0x60\n      dup3\n      add\n      mload\n      dup2\n      0x03\n      add\n      exp(0x0100, 0x00)\n      dup2\n      sload\n      dup2\n      0xffffffffffffffffffffffffffffffffffffffff\n      mul\n      not\n      and\n      swap1\n      dup4\n      0xffffffffffffffffffffffffffffffffffffffff\n      and\n      mul\n      or\n      swap1\n      sstore\n      pop\n      swap1\n      pop\n      pop\n        /* \"contracts/structure.sol\":590:804  {\r... */\n      pop\n        /* \"contracts/structure.sol\":501:804  function changeinstructor(uint _age,string memory _name,address _addr,int _money) public {\r... */\n      pop\n      pop\n      pop\n      pop\n      jump\t// out\n    tag_21:\n      dup3\n      dup1\n      sload\n      tag_22\n      swap1\n      tag_14\n      jump\t// in\n    tag_22:\n      swap1\n      0x00\n      mstore\n      keccak256(0x00, 0x20)\n      swap1\n      0x1f\n      add\n      0x20\n      swap1\n      div\n      dup2\n      add\n      swap3\n      dup3\n      tag_24\n      jumpi\n      0x00\n      dup6\n      sstore\n      jump(tag_23)\n    tag_24:\n      dup3\n      0x1f\n      lt\n      tag_25\n      jumpi\n      dup1\n      mload\n      not(0xff)\n      and\n      dup4\n      dup1\n      add\n      or\n      dup6\n      sstore\n      jump(tag_23)\n    tag_25:\n      dup3\n      dup1\n      add\n      0x01\n      add\n      dup6\n      sstore\n      dup3\n      iszero\n      tag_23\n      jumpi\n      swap2\n      dup3\n      add\n    tag_26:\n      dup3\n      dup2\n      gt\n      iszero\n      tag_27\n      jumpi\n      dup3\n      mload\n      dup3\n      sstore\n      swap2\n      0x20\n      add\n      swap2\n      swap1\n      0x01\n      add\n      swap1\n      jump(tag_26)\n    tag_27:\n    tag_23:\n      pop\n      swap1\n      pop\n      tag_28\n      swap2\n      swap1\n      tag_29\n      jump\t// in\n    tag_28:\n      pop\n      swap1\n      jump\t// out\n    tag_29:\n    tag_30:\n      dup1\n      dup3\n      gt\n      iszero\n      tag_31\n      jumpi\n      0x00\n      dup2\n      0x00\n      swap1\n      sstore\n      pop\n      0x01\n      add\n      jump(tag_30)\n    tag_31:\n      pop\n      swap1\n      jump\t// out\n        /* \"#utility.yul\":7:419   */\n    tag_33:\n        /* \"#utility.yul\":85:90   */\n      0x00\n        /* \"#utility.yul\":110:176   */\n      tag_35\n        /* \"#utility.yul\":126:175   */\n      tag_36\n        /* \"#utility.yul\":168:174   */\n      dup5\n        /* \"#utility.yul\":126:175   */\n      tag_37\n      jump\t// in\n    tag_36:\n        /* \"#utility.yul\":110:176   */\n      tag_38\n      jump\t// in\n    tag_35:\n        /* \"#utility.yul\":101:176   */\n      swap1\n      pop\n        /* \"#utility.yul\":199:205   */\n      dup3\n        /* \"#utility.yul\":192:197   */\n      dup2\n        /* \"#utility.yul\":185:206   */\n      mstore\n        /* \"#utility.yul\":237:241   */\n      0x20\n        /* \"#utility.yul\":230:235   */\n      dup2\n        /* \"#utility.yul\":226:242   */\n      add\n        /* \"#utility.yul\":275:278   */\n      dup5\n        /* \"#utility.yul\":266:272   */\n      dup5\n        /* \"#utility.yul\":261:264   */\n      dup5\n        /* \"#utility.yul\":257:273   */\n      add\n        /* \"#utility.yul\":254:279   */\n      gt\n        /* \"#utility.yul\":251:363   */\n      iszero\n      tag_39\n      jumpi\n        /* \"#utility.yul\":282:361   */\n      tag_40\n      tag_41\n      jump\t// in\n    tag_40:\n        /* \"#utility.yul\":251:363   */\n    tag_39:\n        /* \"#utility.yul\":372:413   */\n      tag_42\n        /* \"#utility.yul\":406:412   */\n      dup5\n        /* \"#utility.yul\":401:404   */\n      dup3\n        /* \"#utility.yul\":396:399   */\n      dup6\n        /* \"#utility.yul\":372:413   */\n      tag_43\n      jump\t// in\n    tag_42:\n        /* \"#utility.yul\":91:419   */\n      pop\n        /* \"#utility.yul\":7:419   */\n      swap4\n      swap3\n      pop\n      pop\n      pop\n      jump\t// out\n        /* \"#utility.yul\":425:564   */\n    tag_44:\n        /* \"#utility.yul\":471:476   */\n      0x00\n        /* \"#utility.yul\":509:515   */\n      dup2\n        /* \"#utility.yul\":496:516   */\n      calldataload\n        /* \"#utility.yul\":487:516   */\n      swap1\n      pop\n        /* \"#utility.yul\":525:558   */\n      tag_46\n        /* \"#utility.yul\":552:557   */\n      dup2\n        /* \"#utility.yul\":525:558   */\n      tag_47\n      jump\t// in\n    tag_46:\n        /* \"#utility.yul\":425:564   */\n      swap3\n      swap2\n      pop\n      pop\n      jump\t// out\n        /* \"#utility.yul\":570:707   */\n    tag_48:\n        /* \"#utility.yul\":615:620   */\n      0x00\n        /* \"#utility.yul\":653:659   */\n      dup2\n        /* \"#utility.yul\":640:660   */\n      calldataload\n        /* \"#utility.yul\":631:660   */\n      swap1\n      pop\n        /* \"#utility.yul\":669:701   */\n      tag_50\n        /* \"#utility.yul\":695:700   */\n      dup2\n        /* \"#utility.yul\":669:701   */\n      tag_51\n      jump\t// in\n    tag_50:\n        /* \"#utility.yul\":570:707   */\n      swap3\n      swap2\n      pop\n      pop\n      jump\t// out\n        /* \"#utility.yul\":727:1067   */\n    tag_52:\n        /* \"#utility.yul\":783:788   */\n      0x00\n        /* \"#utility.yul\":832:835   */\n      dup3\n        /* \"#utility.yul\":825:829   */\n      0x1f\n        /* \"#utility.yul\":817:823   */\n      dup4\n        /* \"#utility.yul\":813:830   */\n      add\n        /* \"#utility.yul\":809:836   */\n      slt\n        /* \"#utility.yul\":799:921   */\n      tag_54\n      jumpi\n        /* \"#utility.yul\":840:919   */\n      tag_55\n      tag_56\n      jump\t// in\n    tag_55:\n        /* \"#utility.yul\":799:921   */\n    tag_54:\n        /* \"#utility.yul\":957:963   */\n      dup2\n        /* \"#utility.yul\":944:964   */\n      calldataload\n        /* \"#utility.yul\":982:1061   */\n      tag_57\n        /* \"#utility.yul\":1057:1060   */\n      dup5\n        /* \"#utility.yul\":1049:1055   */\n      dup3\n        /* \"#utility.yul\":1042:1046   */\n      0x20\n        /* \"#utility.yul\":1034:1040   */\n      dup7\n        /* \"#utility.yul\":1030:1047   */\n      add\n        /* \"#utility.yul\":982:1061   */\n      tag_33\n      jump\t// in\n    tag_57:\n        /* \"#utility.yul\":973:1061   */\n      swap2\n      pop\n        /* \"#utility.yul\":789:1067   */\n      pop\n        /* \"#utility.yul\":727:1067   */\n      swap3\n      swap2\n      pop\n      pop\n      jump\t// out\n        /* \"#utility.yul\":1073:1212   */\n    tag_58:\n        /* \"#utility.yul\":1119:1124   */\n      0x00\n        /* \"#utility.yul\":1157:1163   */\n      dup2\n        /* \"#utility.yul\":1144:1164   */\n      calldataload\n        /* \"#utility.yul\":1135:1164   */\n      swap1\n      pop\n        /* \"#utility.yul\":1173:1206   */\n      tag_60\n        /* \"#utility.yul\":1200:1205   */\n      dup2\n        /* \"#utility.yul\":1173:1206   */\n      tag_61\n      jump\t// in\n    tag_60:\n        /* \"#utility.yul\":1073:1212   */\n      swap3\n      swap2\n      pop\n      pop\n      jump\t// out\n        /* \"#utility.yul\":1218:2161   */\n    tag_11:\n        /* \"#utility.yul\":1313:1319   */\n      0x00\n        /* \"#utility.yul\":1321:1327   */\n      dup1\n        /* \"#utility.yul\":1329:1335   */\n      0x00\n        /* \"#utility.yul\":1337:1343   */\n      dup1\n        /* \"#utility.yul\":1386:1389   */\n      0x80\n        /* \"#utility.yul\":1374:1383   */\n      dup6\n        /* \"#utility.yul\":1365:1372   */\n      dup8\n        /* \"#utility.yul\":1361:1384   */\n      sub\n        /* \"#utility.yul\":1357:1390   */\n      slt\n        /* \"#utility.yul\":1354:1474   */\n      iszero\n      tag_63\n      jumpi\n        /* \"#utility.yul\":1393:1472   */\n      tag_64\n      tag_65\n      jump\t// in\n    tag_64:\n        /* \"#utility.yul\":1354:1474   */\n    tag_63:\n        /* \"#utility.yul\":1513:1514   */\n      0x00\n        /* \"#utility.yul\":1538:1591   */\n      tag_66\n        /* \"#utility.yul\":1583:1590   */\n      dup8\n        /* \"#utility.yul\":1574:1580   */\n      dup3\n        /* \"#utility.yul\":1563:1572   */\n      dup9\n        /* \"#utility.yul\":1559:1581   */\n      add\n        /* \"#utility.yul\":1538:1591   */\n      tag_58\n      jump\t// in\n    tag_66:\n        /* \"#utility.yul\":1528:1591   */\n      swap5\n      pop\n        /* \"#utility.yul\":1484:1601   */\n      pop\n        /* \"#utility.yul\":1668:1670   */\n      0x20\n        /* \"#utility.yul\":1657:1666   */\n      dup6\n        /* \"#utility.yul\":1653:1671   */\n      add\n        /* \"#utility.yul\":1640:1672   */\n      calldataload\n        /* \"#utility.yul\":1699:1717   */\n      0xffffffffffffffff\n        /* \"#utility.yul\":1691:1697   */\n      dup2\n        /* \"#utility.yul\":1688:1718   */\n      gt\n        /* \"#utility.yul\":1685:1802   */\n      iszero\n      tag_67\n      jumpi\n        /* \"#utility.yul\":1721:1800   */\n      tag_68\n      tag_69\n      jump\t// in\n    tag_68:\n        /* \"#utility.yul\":1685:1802   */\n    tag_67:\n        /* \"#utility.yul\":1826:1889   */\n      tag_70\n        /* \"#utility.yul\":1881:1888   */\n      dup8\n        /* \"#utility.yul\":1872:1878   */\n      dup3\n        /* \"#utility.yul\":1861:1870   */\n      dup9\n        /* \"#utility.yul\":1857:1879   */\n      add\n        /* \"#utility.yul\":1826:1889   */\n      tag_52\n      jump\t// in\n    tag_70:\n        /* \"#utility.yul\":1816:1889   */\n      swap4\n      pop\n        /* \"#utility.yul\":1611:1899   */\n      pop\n        /* \"#utility.yul\":1938:1940   */\n      0x40\n        /* \"#utility.yul\":1964:2017   */\n      tag_71\n        /* \"#utility.yul\":2009:2016   */\n      dup8\n        /* \"#utility.yul\":2000:2006   */\n      dup3\n        /* \"#utility.yul\":1989:1998   */\n      dup9\n        /* \"#utility.yul\":1985:2007   */\n      add\n        /* \"#utility.yul\":1964:2017   */\n      tag_44\n      jump\t// in\n    tag_71:\n        /* \"#utility.yul\":1954:2017   */\n      swap3\n      pop\n        /* \"#utility.yul\":1909:2027   */\n      pop\n        /* \"#utility.yul\":2066:2068   */\n      0x60\n        /* \"#utility.yul\":2092:2144   */\n      tag_72\n        /* \"#utility.yul\":2136:2143   */\n      dup8\n        /* \"#utility.yul\":2127:2133   */\n      dup3\n        /* \"#utility.yul\":2116:2125   */\n      dup9\n        /* \"#utility.yul\":2112:2134   */\n      add\n        /* \"#utility.yul\":2092:2144   */\n      tag_48\n      jump\t// in\n    tag_72:\n        /* \"#utility.yul\":2082:2144   */\n      swap2\n      pop\n        /* \"#utility.yul\":2037:2154   */\n      pop\n        /* \"#utility.yul\":1218:2161   */\n      swap3\n      swap6\n      swap2\n      swap5\n      pop\n      swap3\n      pop\n      jump\t// out\n        /* \"#utility.yul\":2167:2285   */\n    tag_73:\n        /* \"#utility.yul\":2254:2278   */\n      tag_75\n        /* \"#utility.yul\":2272:2277   */\n      dup2\n        /* \"#utility.yul\":2254:2278   */\n      tag_76\n      jump\t// in\n    tag_75:\n        /* \"#utility.yul\":2249:2252   */\n      dup3\n        /* \"#utility.yul\":2242:2279   */\n      mstore\n        /* \"#utility.yul\":2167:2285   */\n      pop\n      pop\n      jump\t// out\n        /* \"#utility.yul\":2291:2406   */\n    tag_77:\n        /* \"#utility.yul\":2376:2399   */\n      tag_79\n        /* \"#utility.yul\":2393:2398   */\n      dup2\n        /* \"#utility.yul\":2376:2399   */\n      tag_80\n      jump\t// in\n    tag_79:\n        /* \"#utility.yul\":2371:2374   */\n      dup3\n        /* \"#utility.yul\":2364:2400   */\n      mstore\n        /* \"#utility.yul\":2291:2406   */\n      pop\n      pop\n      jump\t// out\n        /* \"#utility.yul\":2412:2776   */\n    tag_81:\n        /* \"#utility.yul\":2500:2503   */\n      0x00\n        /* \"#utility.yul\":2528:2567   */\n      tag_83\n        /* \"#utility.yul\":2561:2566   */\n      dup3\n        /* \"#utility.yul\":2528:2567   */\n      tag_84\n      jump\t// in\n    tag_83:\n        /* \"#utility.yul\":2583:2654   */\n      tag_85\n        /* \"#utility.yul\":2647:2653   */\n      dup2\n        /* \"#utility.yul\":2642:2645   */\n      dup6\n        /* \"#utility.yul\":2583:2654   */\n      tag_86\n      jump\t// in\n    tag_85:\n        /* \"#utility.yul\":2576:2654   */\n      swap4\n      pop\n        /* \"#utility.yul\":2663:2715   */\n      tag_87\n        /* \"#utility.yul\":2708:2714   */\n      dup2\n        /* \"#utility.yul\":2703:2706   */\n      dup6\n        /* \"#utility.yul\":2696:2700   */\n      0x20\n        /* \"#utility.yul\":2689:2694   */\n      dup7\n        /* \"#utility.yul\":2685:2701   */\n      add\n        /* \"#utility.yul\":2663:2715   */\n      tag_88\n      jump\t// in\n    tag_87:\n        /* \"#utility.yul\":2740:2769   */\n      tag_89\n        /* \"#utility.yul\":2762:2768   */\n      dup2\n        /* \"#utility.yul\":2740:2769   */\n      tag_90\n      jump\t// in\n    tag_89:\n        /* \"#utility.yul\":2735:2738   */\n      dup5\n        /* \"#utility.yul\":2731:2770   */\n      add\n        /* \"#utility.yul\":2724:2770   */\n      swap2\n      pop\n        /* \"#utility.yul\":2504:2776   */\n      pop\n        /* \"#utility.yul\":2412:2776   */\n      swap3\n      swap2\n      pop\n      pop\n      jump\t// out\n        /* \"#utility.yul\":2782:2900   */\n    tag_91:\n        /* \"#utility.yul\":2869:2893   */\n      tag_93\n        /* \"#utility.yul\":2887:2892   */\n      dup2\n        /* \"#utility.yul\":2869:2893   */\n      tag_94\n      jump\t// in\n    tag_93:\n        /* \"#utility.yul\":2864:2867   */\n      dup3\n        /* \"#utility.yul\":2857:2894   */\n      mstore\n        /* \"#utility.yul\":2782:2900   */\n      pop\n      pop\n      jump\t// out\n        /* \"#utility.yul\":2906:3546   */\n    tag_8:\n        /* \"#utility.yul\":3101:3105   */\n      0x00\n        /* \"#utility.yul\":3139:3142   */\n      0x80\n        /* \"#utility.yul\":3128:3137   */\n      dup3\n        /* \"#utility.yul\":3124:3143   */\n      add\n        /* \"#utility.yul\":3116:3143   */\n      swap1\n      pop\n        /* \"#utility.yul\":3153:3224   */\n      tag_96\n        /* \"#utility.yul\":3221:3222   */\n      0x00\n        /* \"#utility.yul\":3210:3219   */\n      dup4\n        /* \"#utility.yul\":3206:3223   */\n      add\n        /* \"#utility.yul\":3197:3203   */\n      dup8\n        /* \"#utility.yul\":3153:3224   */\n      tag_91\n      jump\t// in\n    tag_96:\n        /* \"#utility.yul\":3271:3280   */\n      dup2\n        /* \"#utility.yul\":3265:3269   */\n      dup2\n        /* \"#utility.yul\":3261:3281   */\n      sub\n        /* \"#utility.yul\":3256:3258   */\n      0x20\n        /* \"#utility.yul\":3245:3254   */\n      dup4\n        /* \"#utility.yul\":3241:3259   */\n      add\n        /* \"#utility.yul\":3234:3282   */\n      mstore\n        /* \"#utility.yul\":3299:3377   */\n      tag_97\n        /* \"#utility.yul\":3372:3376   */\n      dup2\n        /* \"#utility.yul\":3363:3369   */\n      dup7\n        /* \"#utility.yul\":3299:3377   */\n      tag_81\n      jump\t// in\n    tag_97:\n        /* \"#utility.yul\":3291:3377   */\n      swap1\n      pop\n        /* \"#utility.yul\":3387:3457   */\n      tag_98\n        /* \"#utility.yul\":3453:3455   */\n      0x40\n        /* \"#utility.yul\":3442:3451   */\n      dup4\n        /* \"#utility.yul\":3438:3456   */\n      add\n        /* \"#utility.yul\":3429:3435   */\n      dup6\n        /* \"#utility.yul\":3387:3457   */\n      tag_77\n      jump\t// in\n    tag_98:\n        /* \"#utility.yul\":3467:3539   */\n      tag_99\n        /* \"#utility.yul\":3535:3537   */\n      0x60\n        /* \"#utility.yul\":3524:3533   */\n      dup4\n        /* \"#utility.yul\":3520:3538   */\n      add\n        /* \"#utility.yul\":3511:3517   */\n      dup5\n        /* \"#utility.yul\":3467:3539   */\n      tag_73\n      jump\t// in\n    tag_99:\n        /* \"#utility.yul\":2906:3546   */\n      swap6\n      swap5\n      pop\n      pop\n      pop\n      pop\n      pop\n      jump\t// out\n        /* \"#utility.yul\":3552:3681   */\n    tag_38:\n        /* \"#utility.yul\":3586:3592   */\n      0x00\n        /* \"#utility.yul\":3613:3633   */\n      tag_101\n      tag_102\n      jump\t// in\n    tag_101:\n        /* \"#utility.yul\":3603:3633   */\n      swap1\n      pop\n        /* \"#utility.yul\":3642:3675   */\n      tag_103\n        /* \"#utility.yul\":3670:3674   */\n      dup3\n        /* \"#utility.yul\":3662:3668   */\n      dup3\n        /* \"#utility.yul\":3642:3675   */\n      tag_104\n      jump\t// in\n    tag_103:\n        /* \"#utility.yul\":3552:3681   */\n      swap2\n      swap1\n      pop\n      jump\t// out\n        /* \"#utility.yul\":3687:3762   */\n    tag_102:\n        /* \"#utility.yul\":3720:3726   */\n      0x00\n        /* \"#utility.yul\":3753:3755   */\n      0x40\n        /* \"#utility.yul\":3747:3756   */\n      mload\n        /* \"#utility.yul\":3737:3756   */\n      swap1\n      pop\n        /* \"#utility.yul\":3687:3762   */\n      swap1\n      jump\t// out\n        /* \"#utility.yul\":3768:4076   */\n    tag_37:\n        /* \"#utility.yul\":3830:3834   */\n      0x00\n        /* \"#utility.yul\":3920:3938   */\n      0xffffffffffffffff\n        /* \"#utility.yul\":3912:3918   */\n      dup3\n        /* \"#utility.yul\":3909:3939   */\n      gt\n        /* \"#utility.yul\":3906:3962   */\n      iszero\n      tag_107\n      jumpi\n        /* \"#utility.yul\":3942:3960   */\n      tag_108\n      tag_109\n      jump\t// in\n    tag_108:\n        /* \"#utility.yul\":3906:3962   */\n    tag_107:\n        /* \"#utility.yul\":3980:4009   */\n      tag_110\n        /* \"#utility.yul\":4002:4008   */\n      dup3\n        /* \"#utility.yul\":3980:4009   */\n      tag_90\n      jump\t// in\n    tag_110:\n        /* \"#utility.yul\":3972:4009   */\n      swap1\n      pop\n        /* \"#utility.yul\":4064:4068   */\n      0x20\n        /* \"#utility.yul\":4058:4062   */\n      dup2\n        /* \"#utility.yul\":4054:4069   */\n      add\n        /* \"#utility.yul\":4046:4069   */\n      swap1\n      pop\n        /* \"#utility.yul\":3768:4076   */\n      swap2\n      swap1\n      pop\n      jump\t// out\n        /* \"#utility.yul\":4082:4181   */\n    tag_84:\n        /* \"#utility.yul\":4134:4140   */\n      0x00\n        /* \"#utility.yul\":4168:4173   */\n      dup2\n        /* \"#utility.yul\":4162:4174   */\n      mload\n        /* \"#utility.yul\":4152:4174   */\n      swap1\n      pop\n        /* \"#utility.yul\":4082:4181   */\n      swap2\n      swap1\n      pop\n      jump\t// out\n        /* \"#utility.yul\":4187:4356   */\n    tag_86:\n        /* \"#utility.yul\":4271:4282   */\n      0x00\n        /* \"#utility.yul\":4305:4311   */\n      dup3\n        /* \"#utility.yul\":4300:4303   */\n      dup3\n        /* \"#utility.yul\":4293:4312   */\n      mstore\n        /* \"#utility.yul\":4345:4349   */\n      0x20\n        /* \"#utility.yul\":4340:4343   */\n      dup3\n        /* \"#utility.yul\":4336:4350   */\n      add\n        /* \"#utility.yul\":4321:4350   */\n      swap1\n      pop\n        /* \"#utility.yul\":4187:4356   */\n      swap3\n      swap2\n      pop\n      pop\n      jump\t// out\n        /* \"#utility.yul\":4362:4458   */\n    tag_76:\n        /* \"#utility.yul\":4399:4406   */\n      0x00\n        /* \"#utility.yul\":4428:4452   */\n      tag_114\n        /* \"#utility.yul\":4446:4451   */\n      dup3\n        /* \"#utility.yul\":4428:4452   */\n      tag_115\n      jump\t// in\n    tag_114:\n        /* \"#utility.yul\":4417:4452   */\n      swap1\n      pop\n        /* \"#utility.yul\":4362:4458   */\n      swap2\n      swap1\n      pop\n      jump\t// out\n        /* \"#utility.yul\":4464:4540   */\n    tag_80:\n        /* \"#utility.yul\":4500:4507   */\n      0x00\n        /* \"#utility.yul\":4529:4534   */\n      dup2\n        /* \"#utility.yul\":4518:4534   */\n      swap1\n      pop\n        /* \"#utility.yul\":4464:4540   */\n      swap2\n      swap1\n      pop\n      jump\t// out\n        /* \"#utility.yul\":4546:4672   */\n    tag_115:\n        /* \"#utility.yul\":4583:4590   */\n      0x00\n        /* \"#utility.yul\":4623:4665   */\n      0xffffffffffffffffffffffffffffffffffffffff\n        /* \"#utility.yul\":4616:4621   */\n      dup3\n        /* \"#utility.yul\":4612:4666   */\n      and\n        /* \"#utility.yul\":4601:4666   */\n      swap1\n      pop\n        /* \"#utility.yul\":4546:4672   */\n      swap2\n      swap1\n      pop\n      jump\t// out\n        /* \"#utility.yul\":4678:4755   */\n    tag_94:\n        /* \"#utility.yul\":4715:4722   */\n      0x00\n        /* \"#utility.yul\":4744:4749   */\n      dup2\n        /* \"#utility.yul\":4733:4749   */\n      swap1\n      pop\n        /* \"#utility.yul\":4678:4755   */\n      swap2\n      swap1\n      pop\n      jump\t// out\n        /* \"#utility.yul\":4761:4915   */\n    tag_43:\n        /* \"#utility.yul\":4845:4851   */\n      dup3\n        /* \"#utility.yul\":4840:4843   */\n      dup2\n        /* \"#utility.yul\":4835:4838   */\n      dup4\n        /* \"#utility.yul\":4822:4852   */\n      calldatacopy\n        /* \"#utility.yul\":4907:4908   */\n      0x00\n        /* \"#utility.yul\":4898:4904   */\n      dup4\n        /* \"#utility.yul\":4893:4896   */\n      dup4\n        /* \"#utility.yul\":4889:4905   */\n      add\n        /* \"#utility.yul\":4882:4909   */\n      mstore\n        /* \"#utility.yul\":4761:4915   */\n      pop\n      pop\n      pop\n      jump\t// out\n        /* \"#utility.yul\":4921:5228   */\n    tag_88:\n        /* \"#utility.yul\":4989:4990   */\n      0x00\n        /* \"#utility.yul\":4999:5112   */\n    tag_121:\n        /* \"#utility.yul\":5013:5019   */\n      dup4\n        /* \"#utility.yul\":5010:5011   */\n      dup2\n        /* \"#utility.yul\":5007:5020   */\n      lt\n        /* \"#utility.yul\":4999:5112   */\n      iszero\n      tag_123\n      jumpi\n        /* \"#utility.yul\":5098:5099   */\n      dup1\n        /* \"#utility.yul\":5093:5096   */\n      dup3\n        /* \"#utility.yul\":5089:5100   */\n      add\n        /* \"#utility.yul\":5083:5101   */\n      mload\n        /* \"#utility.yul\":5079:5080   */\n      dup2\n        /* \"#utility.yul\":5074:5077   */\n      dup5\n        /* \"#utility.yul\":5070:5081   */\n      add\n        /* \"#utility.yul\":5063:5102   */\n      mstore\n        /* \"#utility.yul\":5035:5037   */\n      0x20\n        /* \"#utility.yul\":5032:5033   */\n      dup2\n        /* \"#utility.yul\":5028:5038   */\n      add\n        /* \"#utility.yul\":5023:5038   */\n      swap1\n      pop\n        /* \"#utility.yul\":4999:5112   */\n      jump(tag_121)\n    tag_123:\n        /* \"#utility.yul\":5130:5136   */\n      dup4\n        /* \"#utility.yul\":5127:5128   */\n      dup2\n        /* \"#utility.yul\":5124:5137   */\n      gt\n        /* \"#utility.yul\":5121:5222   */\n      iszero\n      tag_124\n      jumpi\n        /* \"#utility.yul\":5210:5211   */\n      0x00\n        /* \"#utility.yul\":5201:5207   */\n      dup5\n        /* \"#utility.yul\":5196:5199   */\n      dup5\n        /* \"#utility.yul\":5192:5208   */\n      add\n        /* \"#utility.yul\":5185:5212   */\n      mstore\n        /* \"#utility.yul\":5121:5222   */\n    tag_124:\n        /* \"#utility.yul\":4970:5228   */\n      pop\n        /* \"#utility.yul\":4921:5228   */\n      pop\n      pop\n      pop\n      jump\t// out\n        /* \"#utility.yul\":5234:5554   */\n    tag_14:\n        /* \"#utility.yul\":5278:5284   */\n      0x00\n        /* \"#utility.yul\":5315:5316   */\n      0x02\n        /* \"#utility.yul\":5309:5313   */\n      dup3\n        /* \"#utility.yul\":5305:5317   */\n      div\n        /* \"#utility.yul\":5295:5317   */\n      swap1\n      pop\n        /* \"#utility.yul\":5362:5363   */\n      0x01\n        /* \"#utility.yul\":5356:5360   */\n      dup3\n        /* \"#utility.yul\":5352:5364   */\n      and\n        /* \"#utility.yul\":5383:5401   */\n      dup1\n        /* \"#utility.yul\":5373:5454   */\n      tag_126\n      jumpi\n        /* \"#utility.yul\":5439:5443   */\n      0x7f\n        /* \"#utility.yul\":5431:5437   */\n      dup3\n        /* \"#utility.yul\":5427:5444   */\n      and\n        /* \"#utility.yul\":5417:5444   */\n      swap2\n      pop\n        /* \"#utility.yul\":5373:5454   */\n    tag_126:\n        /* \"#utility.yul\":5501:5503   */\n      0x20\n        /* \"#utility.yul\":5493:5499   */\n      dup3\n        /* \"#utility.yul\":5490:5504   */\n      lt\n        /* \"#utility.yul\":5470:5488   */\n      dup2\n        /* \"#utility.yul\":5467:5505   */\n      eq\n        /* \"#utility.yul\":5464:5548   */\n      iszero\n      tag_127\n      jumpi\n        /* \"#utility.yul\":5520:5538   */\n      tag_128\n      tag_129\n      jump\t// in\n    tag_128:\n        /* \"#utility.yul\":5464:5548   */\n    tag_127:\n        /* \"#utility.yul\":5285:5554   */\n      pop\n        /* \"#utility.yul\":5234:5554   */\n      swap2\n      swap1\n      pop\n      jump\t// out\n        /* \"#utility.yul\":5560:5841   */\n    tag_104:\n        /* \"#utility.yul\":5643:5670   */\n      tag_131\n        /* \"#utility.yul\":5665:5669   */\n      dup3\n        /* \"#utility.yul\":5643:5670   */\n      tag_90\n      jump\t// in\n    tag_131:\n        /* \"#utility.yul\":5635:5641   */\n      dup2\n        /* \"#utility.yul\":5631:5671   */\n      add\n        /* \"#utility.yul\":5773:5779   */\n      dup2\n        /* \"#utility.yul\":5761:5771   */\n      dup2\n        /* \"#utility.yul\":5758:5780   */\n      lt\n        /* \"#utility.yul\":5737:5755   */\n      0xffffffffffffffff\n        /* \"#utility.yul\":5725:5735   */\n      dup3\n        /* \"#utility.yul\":5722:5756   */\n      gt\n        /* \"#utility.yul\":5719:5781   */\n      or\n        /* \"#utility.yul\":5716:5804   */\n      iszero\n      tag_132\n      jumpi\n        /* \"#utility.yul\":5784:5802   */\n      tag_133\n      tag_109\n      jump\t// in\n    tag_133:\n        /* \"#utility.yul\":5716:5804   */\n    tag_132:\n        /* \"#utility.yul\":5824:5834   */\n      dup1\n        /* \"#utility.yul\":5820:5822   */\n      0x40\n        /* \"#utility.yul\":5813:5835   */\n      mstore\n        /* \"#utility.yul\":5603:5841   */\n      pop\n        /* \"#utility.yul\":5560:5841   */\n      pop\n      pop\n      jump\t// out\n        /* \"#utility.yul\":5847:6027   */\n    tag_129:\n        /* \"#utility.yul\":5895:5972   */\n      0x4e487b7100000000000000000000000000000000000000000000000000000000\n        /* \"#utility.yul\":5892:5893   */\n      0x00\n        /* \"#utility.yul\":5885:5973   */\n      mstore\n        /* \"#utility.yul\":5992:5996   */\n      0x22\n        /* \"#utility.yul\":5989:5990   */\n      0x04\n        /* \"#utility.yul\":5982:5997   */\n      mstore\n        /* \"#utility.yul\":6016:6020   */\n      0x24\n        /* \"#utility.yul\":6013:6014   */\n      0x00\n        /* \"#utility.yul\":6006:6021   */\n      revert\n        /* \"#utility.yul\":6033:6213   */\n    tag_109:\n        /* \"#utility.yul\":6081:6158   */\n      0x4e487b7100000000000000000000000000000000000000000000000000000000\n        /* \"#utility.yul\":6078:6079   */\n      0x00\n        /* \"#utility.yul\":6071:6159   */\n      mstore\n        /* \"#utility.yul\":6178:6182   */\n      0x41\n        /* \"#utility.yul\":6175:6176   */\n      0x04\n        /* \"#utility.yul\":6168:6183   */\n      mstore\n        /* \"#utility.yul\":6202:6206   */\n      0x24\n        /* \"#utility.yul\":6199:6200   */\n      0x00\n        /* \"#utility.yul\":6192:6207   */\n      revert\n        /* \"#utility.yul\":6219:6336   */\n    tag_56:\n        /* \"#utility.yul\":6328:6329   */\n      0x00\n        /* \"#utility.yul\":6325:6326   */\n      dup1\n        /* \"#utility.yul\":6318:6330   */\n      revert\n        /* \"#utility.yul\":6342:6459   */\n    tag_41:\n        /* \"#utility.yul\":6451:6452   */\n      0x00\n        /* \"#utility.yul\":6448:6449   */\n      dup1\n        /* \"#utility.yul\":6441:6453   */\n      revert\n        /* \"#utility.yul\":6465:6582   */\n    tag_69:\n        /* \"#utility.yul\":6574:6575   */\n      0x00\n        /* \"#utility.yul\":6571:6572   */\n      dup1\n        /* \"#utility.yul\":6564:6576   */\n      revert\n        /* \"#utility.yul\":6588:6705   */\n    tag_65:\n        /* \"#utility.yul\":6697:6698   */\n      0x00\n        /* \"#utility.yul\":6694:6695   */\n      dup1\n        /* \"#utility.yul\":6687:6699   */\n      revert\n        /* \"#utility.yul\":6711:6813   */\n    tag_90:\n        /* \"#utility.yul\":6752:6758   */\n      0x00\n        /* \"#utility.yul\":6803:6805   */\n      0x1f\n        /* \"#utility.yul\":6799:6806   */\n      not\n        /* \"#utility.yul\":6794:6796   */\n      0x1f\n        /* \"#utility.yul\":6787:6792   */\n      dup4\n        /* \"#utility.yul\":6783:6797   */\n      add\n        /* \"#utility.yul\":6779:6807   */\n      and\n        /* \"#utility.yul\":6769:6807   */\n      swap1\n      pop\n        /* \"#utility.yul\":6711:6813   */\n      swap2\n      swap1\n      pop\n      jump\t// out\n        /* \"#utility.yul\":6819:6941   */\n    tag_47:\n        /* \"#utility.yul\":6892:6916   */\n      tag_142\n        /* \"#utility.yul\":6910:6915   */\n      dup2\n        /* \"#utility.yul\":6892:6916   */\n      tag_76\n      jump\t// in\n    tag_142:\n        /* \"#utility.yul\":6885:6890   */\n      dup2\n        /* \"#utility.yul\":6882:6917   */\n      eq\n        /* \"#utility.yul\":6872:6935   */\n      tag_143\n      jumpi\n        /* \"#utility.yul\":6931:6932   */\n      0x00\n        /* \"#utility.yul\":6928:6929   */\n      dup1\n        /* \"#utility.yul\":6921:6933   */\n      revert\n        /* \"#utility.yul\":6872:6935   */\n    tag_143:\n        /* \"#utility.yul\":6819:6941   */\n      pop\n      jump\t// out\n        /* \"#utility.yul\":6947:7067   */\n    tag_51:\n        /* \"#utility.yul\":7019:7042   */\n      tag_145\n        /* \"#utility.yul\":7036:7041   */\n      dup2\n        /* \"#utility.yul\":7019:7042   */\n      tag_80\n      jump\t// in\n    tag_145:\n        /* \"#utility.yul\":7012:7017   */\n      dup2\n        /* \"#utility.yul\":7009:7043   */\n      eq\n        /* \"#utility.yul\":6999:7061   */\n      tag_146\n      jumpi\n        /* \"#utility.yul\":7057:7058   */\n      0x00\n        /* \"#utility.yul\":7054:7055   */\n      dup1\n        /* \"#utility.yul\":7047:7059   */\n      revert\n        /* \"#utility.yul\":6999:7061   */\n    tag_146:\n        /* \"#utility.yul\":6947:7067   */\n      pop\n      jump\t// out\n        /* \"#utility.yul\":7073:7195   */\n    tag_61:\n        /* \"#utility.yul\":7146:7170   */\n      tag_148\n        /* \"#utility.yul\":7164:7169   */\n      dup2\n        /* \"#utility.yul\":7146:7170   */\n      tag_94\n      jump\t// in\n    tag_148:\n        /* \"#utility.yul\":7139:7144   */\n      dup2\n        /* \"#utility.yul\":7136:7171   */\n      eq\n        /* \"#utility.yul\":7126:7189   */\n      tag_149\n      jumpi\n        /* \"#utility.yul\":7185:7186   */\n      0x00\n        /* \"#utility.yul\":7182:7183   */\n      dup1\n        /* \"#utility.yul\":7175:7187   */\n      revert\n        /* \"#utility.yul\":7126:7189   */\n    tag_149:\n        /* \"#utility.yul\":7073:7195   */\n      pop\n      jump\t// out\n\n    auxdata: 0xa26469706673582212206de0deedcc7d975adb52b05d78b352b07a345c636b05f54957e3f7b32340991964736f6c63430008070033\n}\n",
				"bytecode": {
					"linkReferences": {},
					"object": "60806040523480156200001157600080fd5b5060405162000b4538038062000b4583398181016040528101906200003791906200020f565b82600080018190555081600060010190805190602001906200005b929190620000b3565b508060006002018190555033600060030160006101000a81548173ffffffffffffffffffffffffffffffffffffffff021916908373ffffffffffffffffffffffffffffffffffffffff16021790555050505062000456565b828054620000c19062000333565b90600052602060002090601f016020900481019282620000e5576000855562000131565b82601f106200010057805160ff191683800117855562000131565b8280016001018555821562000131579182015b828111156200013057825182559160200191906001019062000113565b5b50905062000140919062000144565b5090565b5b808211156200015f57600081600090555060010162000145565b5090565b60006200017a6200017484620002b3565b6200028a565b90508281526020810184848401111562000199576200019862000402565b5b620001a6848285620002fd565b509392505050565b600081519050620001bf8162000422565b92915050565b600082601f830112620001dd57620001dc620003fd565b5b8151620001ef84826020860162000163565b91505092915050565b60008151905062000209816200043c565b92915050565b6000806000606084860312156200022b576200022a6200040c565b5b60006200023b86828701620001f8565b935050602084015167ffffffffffffffff8111156200025f576200025e62000407565b5b6200026d86828701620001c5565b92505060406200028086828701620001ae565b9150509250925092565b600062000296620002a9565b9050620002a4828262000369565b919050565b6000604051905090565b600067ffffffffffffffff821115620002d157620002d0620003ce565b5b620002dc8262000411565b9050602081019050919050565b6000819050919050565b6000819050919050565b60005b838110156200031d57808201518184015260208101905062000300565b838111156200032d576000848401525b50505050565b600060028204905060018216806200034c57607f821691505b602082108114156200036357620003626200039f565b5b50919050565b620003748262000411565b810181811067ffffffffffffffff82111715620003965762000395620003ce565b5b80604052505050565b7f4e487b7100000000000000000000000000000000000000000000000000000000600052602260045260246000fd5b7f4e487b7100000000000000000000000000000000000000000000000000000000600052604160045260246000fd5b600080fd5b600080fd5b600080fd5b600080fd5b6000601f19601f8301169050919050565b6200042d81620002e9565b81146200043957600080fd5b50565b6200044781620002f3565b81146200045357600080fd5b50565b6106df80620004666000396000f3fe608060405234801561001057600080fd5b50600436106100365760003560e01c8063457a0af61461003b57806348a941ab1461005c575b600080fd5b610043610078565b6040516100539493929190610438565b60405180910390f35b6100766004803603810190610071919061034f565b61013e565b005b600080600001549080600101805461008f9061057e565b80601f01602080910402602001604051908101604052809291908181526020018280546100bb9061057e565b80156101085780601f106100dd57610100808354040283529160200191610108565b820191906000526020600020905b8154815290600101906020018083116100eb57829003601f168201915b5050505050908060020154908060030160009054906101000a900473ffffffffffffffffffffffffffffffffffffffff16905084565b600060405180608001604052808681526020018581526020018381526020018473ffffffffffffffffffffffffffffffffffffffff16815250905080600080820151816000015560208201518160010190805190602001906101a19291906101fd565b506040820151816002015560608201518160030160006101000a81548173ffffffffffffffffffffffffffffffffffffffff021916908373ffffffffffffffffffffffffffffffffffffffff1602179055509050505050505050565b8280546102099061057e565b90600052602060002090601f01602090048101928261022b5760008555610272565b82601f1061024457805160ff1916838001178555610272565b82800160010185558215610272579182015b82811115610271578251825591602001919060010190610256565b5b50905061027f9190610283565b5090565b5b8082111561029c576000816000905550600101610284565b5090565b60006102b36102ae846104a9565b610484565b9050828152602081018484840111156102cf576102ce610644565b5b6102da84828561053c565b509392505050565b6000813590506102f181610664565b92915050565b6000813590506103068161067b565b92915050565b600082601f8301126103215761032061063f565b5b81356103318482602086016102a0565b91505092915050565b60008135905061034981610692565b92915050565b600080600080608085870312156103695761036861064e565b5b60006103778782880161033a565b945050602085013567ffffffffffffffff81111561039857610397610649565b5b6103a48782880161030c565b93505060406103b5878288016102e2565b92505060606103c6878288016102f7565b91505092959194509250565b6103db816104f6565b82525050565b6103ea81610508565b82525050565b60006103fb826104da565b61040581856104e5565b935061041581856020860161054b565b61041e81610653565b840191505092915050565b61043281610532565b82525050565b600060808201905061044d6000830187610429565b818103602083015261045f81866103f0565b905061046e60408301856103e1565b61047b60608301846103d2565b95945050505050565b600061048e61049f565b905061049a82826105b0565b919050565b6000604051905090565b600067ffffffffffffffff8211156104c4576104c3610610565b5b6104cd82610653565b9050602081019050919050565b600081519050919050565b600082825260208201905092915050565b600061050182610512565b9050919050565b6000819050919050565b600073ffffffffffffffffffffffffffffffffffffffff82169050919050565b6000819050919050565b82818337600083830152505050565b60005b8381101561056957808201518184015260208101905061054e565b83811115610578576000848401525b50505050565b6000600282049050600182168061059657607f821691505b602082108114156105aa576105a96105e1565b5b50919050565b6105b982610653565b810181811067ffffffffffffffff821117156105d8576105d7610610565b5b80604052505050565b7f4e487b7100000000000000000000000000000000000000000000000000000000600052602260045260246000fd5b7f4e487b7100000000000000000000000000000000000000000000000000000000600052604160045260246000fd5b600080fd5b600080fd5b600080fd5b600080fd5b6000601f19601f8301169050919050565b61066d816104f6565b811461067857600080fd5b50565b61068481610508565b811461068f57600080fd5b50565b61069b81610532565b81146106a657600080fd5b5056fea26469706673582212206de0deedcc7d975adb52b05d78b352b07a345c636b05f54957e3f7b32340991964736f6c63430008070033",
					"opcodes": "PUSH1 0x80 PUSH1 0x40 MSTORE CALLVALUE DUP1 ISZERO PUSH3 0x11 JUMPI PUSH1 0x0 DUP1 REVERT JUMPDEST POP PUSH1 0x40 MLOAD PUSH3 0xB45 CODESIZE SUB DUP1 PUSH3 0xB45 DUP4 CODECOPY DUP2 DUP2 ADD PUSH1 0x40 MSTORE DUP2 ADD SWAP1 PUSH3 0x37 SWAP2 SWAP1 PUSH3 0x20F JUMP JUMPDEST DUP3 PUSH1 0x0 DUP1 ADD DUP2 SWAP1 SSTORE POP DUP2 PUSH1 0x0 PUSH1 0x1 ADD SWAP1 DUP1 MLOAD SWAP1 PUSH1 0x20 ADD SWAP1 PUSH3 0x5B SWAP3 SWAP2 SWAP1 PUSH3 0xB3 JUMP JUMPDEST POP DUP1 PUSH1 0x0 PUSH1 0x2 ADD DUP2 SWAP1 SSTORE POP CALLER PUSH1 0x0 PUSH1 0x3 ADD PUSH1 0x0 PUSH2 0x100 EXP DUP2 SLOAD DUP2 PUSH20 0xFFFFFFFFFFFFFFFFFFFFFFFFFFFFFFFFFFFFFFFF MUL NOT AND SWAP1 DUP4 PUSH20 0xFFFFFFFFFFFFFFFFFFFFFFFFFFFFFFFFFFFFFFFF AND MUL OR SWAP1 SSTORE POP POP POP POP PUSH3 0x456 JUMP JUMPDEST DUP3 DUP1 SLOAD PUSH3 0xC1 SWAP1 PUSH3 0x333 JUMP JUMPDEST SWAP1 PUSH1 0x0 MSTORE PUSH1 0x20 PUSH1 0x0 KECCAK256 SWAP1 PUSH1 0x1F ADD PUSH1 0x20 SWAP1 DIV DUP2 ADD SWAP3 DUP3 PUSH3 0xE5 JUMPI PUSH1 0x0 DUP6 SSTORE PUSH3 0x131 JUMP JUMPDEST DUP3 PUSH1 0x1F LT PUSH3 0x100 JUMPI DUP1 MLOAD PUSH1 0xFF NOT AND DUP4 DUP1 ADD OR DUP6 SSTORE PUSH3 0x131 JUMP JUMPDEST DUP3 DUP1 ADD PUSH1 0x1 ADD DUP6 SSTORE DUP3 ISZERO PUSH3 0x131 JUMPI SWAP2 DUP3 ADD JUMPDEST DUP3 DUP2 GT ISZERO PUSH3 0x130 JUMPI DUP3 MLOAD DUP3 SSTORE SWAP2 PUSH1 0x20 ADD SWAP2 SWAP1 PUSH1 0x1 ADD SWAP1 PUSH3 0x113 JUMP JUMPDEST JUMPDEST POP SWAP1 POP PUSH3 0x140 SWAP2 SWAP1 PUSH3 0x144 JUMP JUMPDEST POP SWAP1 JUMP JUMPDEST JUMPDEST DUP1 DUP3 GT ISZERO PUSH3 0x15F JUMPI PUSH1 0x0 DUP2 PUSH1 0x0 SWAP1 SSTORE POP PUSH1 0x1 ADD PUSH3 0x145 JUMP JUMPDEST POP SWAP1 JUMP JUMPDEST PUSH1 0x0 PUSH3 0x17A PUSH3 0x174 DUP5 PUSH3 0x2B3 JUMP JUMPDEST PUSH3 0x28A JUMP JUMPDEST SWAP1 POP DUP3 DUP2 MSTORE PUSH1 0x20 DUP2 ADD DUP5 DUP5 DUP5 ADD GT ISZERO PUSH3 0x199 JUMPI PUSH3 0x198 PUSH3 0x402 JUMP JUMPDEST JUMPDEST PUSH3 0x1A6 DUP5 DUP3 DUP6 PUSH3 0x2FD JUMP JUMPDEST POP SWAP4 SWAP3 POP POP POP JUMP JUMPDEST PUSH1 0x0 DUP2 MLOAD SWAP1 POP PUSH3 0x1BF DUP2 PUSH3 0x422 JUMP JUMPDEST SWAP3 SWAP2 POP POP JUMP JUMPDEST PUSH1 0x0 DUP3 PUSH1 0x1F DUP4 ADD SLT PUSH3 0x1DD JUMPI PUSH3 0x1DC PUSH3 0x3FD JUMP JUMPDEST JUMPDEST DUP2 MLOAD PUSH3 0x1EF DUP5 DUP3 PUSH1 0x20 DUP7 ADD PUSH3 0x163 JUMP JUMPDEST SWAP2 POP POP SWAP3 SWAP2 POP POP JUMP JUMPDEST PUSH1 0x0 DUP2 MLOAD SWAP1 POP PUSH3 0x209 DUP2 PUSH3 0x43C JUMP JUMPDEST SWAP3 SWAP2 POP POP JUMP JUMPDEST PUSH1 0x0 DUP1 PUSH1 0x0 PUSH1 0x60 DUP5 DUP7 SUB SLT ISZERO PUSH3 0x22B JUMPI PUSH3 0x22A PUSH3 0x40C JUMP JUMPDEST JUMPDEST PUSH1 0x0 PUSH3 0x23B DUP7 DUP3 DUP8 ADD PUSH3 0x1F8 JUMP JUMPDEST SWAP4 POP POP PUSH1 0x20 DUP5 ADD MLOAD PUSH8 0xFFFFFFFFFFFFFFFF DUP2 GT ISZERO PUSH3 0x25F JUMPI PUSH3 0x25E PUSH3 0x407 JUMP JUMPDEST JUMPDEST PUSH3 0x26D DUP7 DUP3 DUP8 ADD PUSH3 0x1C5 JUMP JUMPDEST SWAP3 POP POP PUSH1 0x40 PUSH3 0x280 DUP7 DUP3 DUP8 ADD PUSH3 0x1AE JUMP JUMPDEST SWAP2 POP POP SWAP3 POP SWAP3 POP SWAP3 JUMP JUMPDEST PUSH1 0x0 PUSH3 0x296 PUSH3 0x2A9 JUMP JUMPDEST SWAP1 POP PUSH3 0x2A4 DUP3 DUP3 PUSH3 0x369 JUMP JUMPDEST SWAP2 SWAP1 POP JUMP JUMPDEST PUSH1 0x0 PUSH1 0x40 MLOAD SWAP1 POP SWAP1 JUMP JUMPDEST PUSH1 0x0 PUSH8 0xFFFFFFFFFFFFFFFF DUP3 GT ISZERO PUSH3 0x2D1 JUMPI PUSH3 0x2D0 PUSH3 0x3CE JUMP JUMPDEST JUMPDEST PUSH3 0x2DC DUP3 PUSH3 0x411 JUMP JUMPDEST SWAP1 POP PUSH1 0x20 DUP2 ADD SWAP1 POP SWAP2 SWAP1 POP JUMP JUMPDEST PUSH1 0x0 DUP2 SWAP1 POP SWAP2 SWAP1 POP JUMP JUMPDEST PUSH1 0x0 DUP2 SWAP1 POP SWAP2 SWAP1 POP JUMP JUMPDEST PUSH1 0x0 JUMPDEST DUP4 DUP2 LT ISZERO PUSH3 0x31D JUMPI DUP1 DUP3 ADD MLOAD DUP2 DUP5 ADD MSTORE PUSH1 0x20 DUP2 ADD SWAP1 POP PUSH3 0x300 JUMP JUMPDEST DUP4 DUP2 GT ISZERO PUSH3 0x32D JUMPI PUSH1 0x0 DUP5 DUP5 ADD MSTORE JUMPDEST POP POP POP POP JUMP JUMPDEST PUSH1 0x0 PUSH1 0x2 DUP3 DIV SWAP1 POP PUSH1 0x1 DUP3 AND DUP1 PUSH3 0x34C JUMPI PUSH1 0x7F DUP3 AND SWAP2 POP JUMPDEST PUSH1 0x20 DUP3 LT DUP2 EQ ISZERO PUSH3 0x363 JUMPI PUSH3 0x362 PUSH3 0x39F JUMP JUMPDEST JUMPDEST POP SWAP2 SWAP1 POP JUMP JUMPDEST PUSH3 0x374 DUP3 PUSH3 0x411 JUMP JUMPDEST DUP2 ADD DUP2 DUP2 LT PUSH8 0xFFFFFFFFFFFFFFFF DUP3 GT OR ISZERO PUSH3 0x396 JUMPI PUSH3 0x395 PUSH3 0x3CE JUMP JUMPDEST JUMPDEST DUP1 PUSH1 0x40 MSTORE POP POP POP JUMP JUMPDEST PUSH32 0x4E487B7100000000000000000000000000000000000000000000000000000000 PUSH1 0x0 MSTORE PUSH1 0x22 PUSH1 0x4 MSTORE PUSH1 0x24 PUSH1 0x0 REVERT JUMPDEST PUSH32 0x4E487B7100000000000000000000000000000000000000000000000000000000 PUSH1 0x0 MSTORE PUSH1 0x41 PUSH1 0x4 MSTORE PUSH1 0x24 PUSH1 0x0 REVERT JUMPDEST PUSH1 0x0 DUP1 REVERT JUMPDEST PUSH1 0x0 DUP1 REVERT JUMPDEST PUSH1 0x0 DUP1 REVERT JUMPDEST PUSH1 0x0 DUP1 REVERT JUMPDEST PUSH1 0x0 PUSH1 0x1F NOT PUSH1 0x1F DUP4 ADD AND SWAP1 POP SWAP2 SWAP1 POP JUMP JUMPDEST PUSH3 0x42D DUP2 PUSH3 0x2E9 JUMP JUMPDEST DUP2 EQ PUSH3 0x439 JUMPI PUSH1 0x0 DUP1 REVERT JUMPDEST POP JUMP JUMPDEST PUSH3 0x447 DUP2 PUSH3 0x2F3 JUMP JUMPDEST DUP2 EQ PUSH3 0x453 JUMPI PUSH1 0x0 DUP1 REVERT JUMPDEST POP JUMP JUMPDEST PUSH2 0x6DF DUP1 PUSH3 0x466 PUSH1 0x0 CODECOPY PUSH1 0x0 RETURN INVALID PUSH1 0x80 PUSH1 0x40 MSTORE CALLVALUE DUP1 ISZERO PUSH2 0x10 JUMPI PUSH1 0x0 DUP1 REVERT JUMPDEST POP PUSH1 0x4 CALLDATASIZE LT PUSH2 0x36 JUMPI PUSH1 0x0 CALLDATALOAD PUSH1 0xE0 SHR DUP1 PUSH4 0x457A0AF6 EQ PUSH2 0x3B JUMPI DUP1 PUSH4 0x48A941AB EQ PUSH2 0x5C JUMPI JUMPDEST PUSH1 0x0 DUP1 REVERT JUMPDEST PUSH2 0x43 PUSH2 0x78 JUMP JUMPDEST PUSH1 0x40 MLOAD PUSH2 0x53 SWAP5 SWAP4 SWAP3 SWAP2 SWAP1 PUSH2 0x438 JUMP JUMPDEST PUSH1 0x40 MLOAD DUP1 SWAP2 SUB SWAP1 RETURN JUMPDEST PUSH2 0x76 PUSH1 0x4 DUP1 CALLDATASIZE SUB DUP2 ADD SWAP1 PUSH2 0x71 SWAP2 SWAP1 PUSH2 0x34F JUMP JUMPDEST PUSH2 0x13E JUMP JUMPDEST STOP JUMPDEST PUSH1 0x0 DUP1 PUSH1 0x0 ADD SLOAD SWAP1 DUP1 PUSH1 0x1 ADD DUP1 SLOAD PUSH2 0x8F SWAP1 PUSH2 0x57E JUMP JUMPDEST DUP1 PUSH1 0x1F ADD PUSH1 0x20 DUP1 SWAP2 DIV MUL PUSH1 0x20 ADD PUSH1 0x40 MLOAD SWAP1 DUP2 ADD PUSH1 0x40 MSTORE DUP1 SWAP3 SWAP2 SWAP1 DUP2 DUP2 MSTORE PUSH1 0x20 ADD DUP3 DUP1 SLOAD PUSH2 0xBB SWAP1 PUSH2 0x57E JUMP JUMPDEST DUP1 ISZERO PUSH2 0x108 JUMPI DUP1 PUSH1 0x1F LT PUSH2 0xDD JUMPI PUSH2 0x100 DUP1 DUP4 SLOAD DIV MUL DUP4 MSTORE SWAP2 PUSH1 0x20 ADD SWAP2 PUSH2 0x108 JUMP JUMPDEST DUP3 ADD SWAP2 SWAP1 PUSH1 0x0 MSTORE PUSH1 0x20 PUSH1 0x0 KECCAK256 SWAP1 JUMPDEST DUP2 SLOAD DUP2 MSTORE SWAP1 PUSH1 0x1 ADD SWAP1 PUSH1 0x20 ADD DUP1 DUP4 GT PUSH2 0xEB JUMPI DUP3 SWAP1 SUB PUSH1 0x1F AND DUP3 ADD SWAP2 JUMPDEST POP POP POP POP POP SWAP1 DUP1 PUSH1 0x2 ADD SLOAD SWAP1 DUP1 PUSH1 0x3 ADD PUSH1 0x0 SWAP1 SLOAD SWAP1 PUSH2 0x100 EXP SWAP1 DIV PUSH20 0xFFFFFFFFFFFFFFFFFFFFFFFFFFFFFFFFFFFFFFFF AND SWAP1 POP DUP5 JUMP JUMPDEST PUSH1 0x0 PUSH1 0x40 MLOAD DUP1 PUSH1 0x80 ADD PUSH1 0x40 MSTORE DUP1 DUP7 DUP2 MSTORE PUSH1 0x20 ADD DUP6 DUP2 MSTORE PUSH1 0x20 ADD DUP4 DUP2 MSTORE PUSH1 0x20 ADD DUP5 PUSH20 0xFFFFFFFFFFFFFFFFFFFFFFFFFFFFFFFFFFFFFFFF AND DUP2 MSTORE POP SWAP1 POP DUP1 PUSH1 0x0 DUP1 DUP3 ADD MLOAD DUP2 PUSH1 0x0 ADD SSTORE PUSH1 0x20 DUP3 ADD MLOAD DUP2 PUSH1 0x1 ADD SWAP1 DUP1 MLOAD SWAP1 PUSH1 0x20 ADD SWAP1 PUSH2 0x1A1 SWAP3 SWAP2 SWAP1 PUSH2 0x1FD JUMP JUMPDEST POP PUSH1 0x40 DUP3 ADD MLOAD DUP2 PUSH1 0x2 ADD SSTORE PUSH1 0x60 DUP3 ADD MLOAD DUP2 PUSH1 0x3 ADD PUSH1 0x0 PUSH2 0x100 EXP DUP2 SLOAD DUP2 PUSH20 0xFFFFFFFFFFFFFFFFFFFFFFFFFFFFFFFFFFFFFFFF MUL NOT AND SWAP1 DUP4 PUSH20 0xFFFFFFFFFFFFFFFFFFFFFFFFFFFFFFFFFFFFFFFF AND MUL OR SWAP1 SSTORE POP SWAP1 POP POP POP POP POP POP POP JUMP JUMPDEST DUP3 DUP1 SLOAD PUSH2 0x209 SWAP1 PUSH2 0x57E JUMP JUMPDEST SWAP1 PUSH1 0x0 MSTORE PUSH1 0x20 PUSH1 0x0 KECCAK256 SWAP1 PUSH1 0x1F ADD PUSH1 0x20 SWAP1 DIV DUP2 ADD SWAP3 DUP3 PUSH2 0x22B JUMPI PUSH1 0x0 DUP6 SSTORE PUSH2 0x272 JUMP JUMPDEST DUP3 PUSH1 0x1F LT PUSH2 0x244 JUMPI DUP1 MLOAD PUSH1 0xFF NOT AND DUP4 DUP1 ADD OR DUP6 SSTORE PUSH2 0x272 JUMP JUMPDEST DUP3 DUP1 ADD PUSH1 0x1 ADD DUP6 SSTORE DUP3 ISZERO PUSH2 0x272 JUMPI SWAP2 DUP3 ADD JUMPDEST DUP3 DUP2 GT ISZERO PUSH2 0x271 JUMPI DUP3 MLOAD DUP3 SSTORE SWAP2 PUSH1 0x20 ADD SWAP2 SWAP1 PUSH1 0x1 ADD SWAP1 PUSH2 0x256 JUMP JUMPDEST JUMPDEST POP SWAP1 POP PUSH2 0x27F SWAP2 SWAP1 PUSH2 0x283 JUMP JUMPDEST POP SWAP1 JUMP JUMPDEST JUMPDEST DUP1 DUP3 GT ISZERO PUSH2 0x29C JUMPI PUSH1 0x0 DUP2 PUSH1 0x0 SWAP1 SSTORE POP PUSH1 0x1 ADD PUSH2 0x284 JUMP JUMPDEST POP SWAP1 JUMP JUMPDEST PUSH1 0x0 PUSH2 0x2B3 PUSH2 0x2AE DUP5 PUSH2 0x4A9 JUMP JUMPDEST PUSH2 0x484 JUMP JUMPDEST SWAP1 POP DUP3 DUP2 MSTORE PUSH1 0x20 DUP2 ADD DUP5 DUP5 DUP5 ADD GT ISZERO PUSH2 0x2CF JUMPI PUSH2 0x2CE PUSH2 0x644 JUMP JUMPDEST JUMPDEST PUSH2 0x2DA DUP5 DUP3 DUP6 PUSH2 0x53C JUMP JUMPDEST POP SWAP4 SWAP3 POP POP POP JUMP JUMPDEST PUSH1 0x0 DUP2 CALLDATALOAD SWAP1 POP PUSH2 0x2F1 DUP2 PUSH2 0x664 JUMP JUMPDEST SWAP3 SWAP2 POP POP JUMP JUMPDEST PUSH1 0x0 DUP2 CALLDATALOAD SWAP1 POP PUSH2 0x306 DUP2 PUSH2 0x67B JUMP JUMPDEST SWAP3 SWAP2 POP POP JUMP JUMPDEST PUSH1 0x0 DUP3 PUSH1 0x1F DUP4 ADD SLT PUSH2 0x321 JUMPI PUSH2 0x320 PUSH2 0x63F JUMP JUMPDEST JUMPDEST DUP2 CALLDATALOAD PUSH2 0x331 DUP5 DUP3 PUSH1 0x20 DUP7 ADD PUSH2 0x2A0 JUMP JUMPDEST SWAP2 POP POP SWAP3 SWAP2 POP POP JUMP JUMPDEST PUSH1 0x0 DUP2 CALLDATALOAD SWAP1 POP PUSH2 0x349 DUP2 PUSH2 0x692 JUMP JUMPDEST SWAP3 SWAP2 POP POP JUMP JUMPDEST PUSH1 0x0 DUP1 PUSH1 0x0 DUP1 PUSH1 0x80 DUP6 DUP8 SUB SLT ISZERO PUSH2 0x369 JUMPI PUSH2 0x368 PUSH2 0x64E JUMP JUMPDEST JUMPDEST PUSH1 0x0 PUSH2 0x377 DUP8 DUP3 DUP9 ADD PUSH2 0x33A JUMP JUMPDEST SWAP5 POP POP PUSH1 0x20 DUP6 ADD CALLDATALOAD PUSH8 0xFFFFFFFFFFFFFFFF DUP2 GT ISZERO PUSH2 0x398 JUMPI PUSH2 0x397 PUSH2 0x649 JUMP JUMPDEST JUMPDEST PUSH2 0x3A4 DUP8 DUP3 DUP9 ADD PUSH2 0x30C JUMP JUMPDEST SWAP4 POP POP PUSH1 0x40 PUSH2 0x3B5 DUP8 DUP3 DUP9 ADD PUSH2 0x2E2 JUMP JUMPDEST SWAP3 POP POP PUSH1 0x60 PUSH2 0x3C6 DUP8 DUP3 DUP9 ADD PUSH2 0x2F7 JUMP JUMPDEST SWAP2 POP POP SWAP3 SWAP6 SWAP2 SWAP5 POP SWAP3 POP JUMP JUMPDEST PUSH2 0x3DB DUP2 PUSH2 0x4F6 JUMP JUMPDEST DUP3 MSTORE POP POP JUMP JUMPDEST PUSH2 0x3EA DUP2 PUSH2 0x508 JUMP JUMPDEST DUP3 MSTORE POP POP JUMP JUMPDEST PUSH1 0x0 PUSH2 0x3FB DUP3 PUSH2 0x4DA JUMP JUMPDEST PUSH2 0x405 DUP2 DUP6 PUSH2 0x4E5 JUMP JUMPDEST SWAP4 POP PUSH2 0x415 DUP2 DUP6 PUSH1 0x20 DUP7 ADD PUSH2 0x54B JUMP JUMPDEST PUSH2 0x41E DUP2 PUSH2 0x653 JUMP JUMPDEST DUP5 ADD SWAP2 POP POP SWAP3 SWAP2 POP POP JUMP JUMPDEST PUSH2 0x432 DUP2 PUSH2 0x532 JUMP JUMPDEST DUP3 MSTORE POP POP JUMP JUMPDEST PUSH1 0x0 PUSH1 0x80 DUP3 ADD SWAP1 POP PUSH2 0x44D PUSH1 0x0 DUP4 ADD DUP8 PUSH2 0x429 JUMP JUMPDEST DUP2 DUP2 SUB PUSH1 0x20 DUP4 ADD MSTORE PUSH2 0x45F DUP2 DUP7 PUSH2 0x3F0 JUMP JUMPDEST SWAP1 POP PUSH2 0x46E PUSH1 0x40 DUP4 ADD DUP6 PUSH2 0x3E1 JUMP JUMPDEST PUSH2 0x47B PUSH1 0x60 DUP4 ADD DUP5 PUSH2 0x3D2 JUMP JUMPDEST SWAP6 SWAP5 POP POP POP POP POP JUMP JUMPDEST PUSH1 0x0 PUSH2 0x48E PUSH2 0x49F JUMP JUMPDEST SWAP1 POP PUSH2 0x49A DUP3 DUP3 PUSH2 0x5B0 JUMP JUMPDEST SWAP2 SWAP1 POP JUMP JUMPDEST PUSH1 0x0 PUSH1 0x40 MLOAD SWAP1 POP SWAP1 JUMP JUMPDEST PUSH1 0x0 PUSH8 0xFFFFFFFFFFFFFFFF DUP3 GT ISZERO PUSH2 0x4C4 JUMPI PUSH2 0x4C3 PUSH2 0x610 JUMP JUMPDEST JUMPDEST PUSH2 0x4CD DUP3 PUSH2 0x653 JUMP JUMPDEST SWAP1 POP PUSH1 0x20 DUP2 ADD SWAP1 POP SWAP2 SWAP1 POP JUMP JUMPDEST PUSH1 0x0 DUP2 MLOAD SWAP1 POP SWAP2 SWAP1 POP JUMP JUMPDEST PUSH1 0x0 DUP3 DUP3 MSTORE PUSH1 0x20 DUP3 ADD SWAP1 POP SWAP3 SWAP2 POP POP JUMP JUMPDEST PUSH1 0x0 PUSH2 0x501 DUP3 PUSH2 0x512 JUMP JUMPDEST SWAP1 POP SWAP2 SWAP1 POP JUMP JUMPDEST PUSH1 0x0 DUP2 SWAP1 POP SWAP2 SWAP1 POP JUMP JUMPDEST PUSH1 0x0 PUSH20 0xFFFFFFFFFFFFFFFFFFFFFFFFFFFFFFFFFFFFFFFF DUP3 AND SWAP1 POP SWAP2 SWAP1 POP JUMP JUMPDEST PUSH1 0x0 DUP2 SWAP1 POP SWAP2 SWAP1 POP JUMP JUMPDEST DUP3 DUP2 DUP4 CALLDATACOPY PUSH1 0x0 DUP4 DUP4 ADD MSTORE POP POP POP JUMP JUMPDEST PUSH1 0x0 JUMPDEST DUP4 DUP2 LT ISZERO PUSH2 0x569 JUMPI DUP1 DUP3 ADD MLOAD DUP2 DUP5 ADD MSTORE PUSH1 0x20 DUP2 ADD SWAP1 POP PUSH2 0x54E JUMP JUMPDEST DUP4 DUP2 GT ISZERO PUSH2 0x578 JUMPI PUSH1 0x0 DUP5 DUP5 ADD MSTORE JUMPDEST POP POP POP POP JUMP JUMPDEST PUSH1 0x0 PUSH1 0x2 DUP3 DIV SWAP1 POP PUSH1 0x1 DUP3 AND DUP1 PUSH2 0x596 JUMPI PUSH1 0x7F DUP3 AND SWAP2 POP JUMPDEST PUSH1 0x20 DUP3 LT DUP2 EQ ISZERO PUSH2 0x5AA JUMPI PUSH2 0x5A9 PUSH2 0x5E1 JUMP JUMPDEST JUMPDEST POP SWAP2 SWAP1 POP JUMP JUMPDEST PUSH2 0x5B9 DUP3 PUSH2 0x653 JUMP JUMPDEST DUP2 ADD DUP2 DUP2 LT PUSH8 0xFFFFFFFFFFFFFFFF DUP3 GT OR ISZERO PUSH2 0x5D8 JUMPI PUSH2 0x5D7 PUSH2 0x610 JUMP JUMPDEST JUMPDEST DUP1 PUSH1 0x40 MSTORE POP POP POP JUMP JUMPDEST PUSH32 0x4E487B7100000000000000000000000000000000000000000000000000000000 PUSH1 0x0 MSTORE PUSH1 0x22 PUSH1 0x4 MSTORE PUSH1 0x24 PUSH1 0x0 REVERT JUMPDEST PUSH32 0x4E487B7100000000000000000000000000000000000000000000000000000000 PUSH1 0x0 MSTORE PUSH1 0x41 PUSH1 0x4 MSTORE PUSH1 0x24 PUSH1 0x0 REVERT JUMPDEST PUSH1 0x0 DUP1 REVERT JUMPDEST PUSH1 0x0 DUP1 REVERT JUMPDEST PUSH1 0x0 DUP1 REVERT JUMPDEST PUSH1 0x0 DUP1 REVERT JUMPDEST PUSH1 0x0 PUSH1 0x1F NOT PUSH1 0x1F DUP4 ADD AND SWAP1 POP SWAP2 SWAP1 POP JUMP JUMPDEST PUSH2 0x66D DUP2 PUSH2 0x4F6 JUMP JUMPDEST DUP2 EQ PUSH2 0x678 JUMPI PUSH1 0x0 DUP1 REVERT JUMPDEST POP JUMP JUMPDEST PUSH2 0x684 DUP2 PUSH2 0x508 JUMP JUMPDEST DUP2 EQ PUSH2 0x68F JUMPI PUSH1 0x0 DUP1 REVERT JUMPDEST POP JUMP JUMPDEST PUSH2 0x69B DUP2 PUSH2 0x532 JUMP JUMPDEST DUP2 EQ PUSH2 0x6A6 JUMPI PUSH1 0x0 DUP1 REVERT JUMPDEST POP JUMP INVALID LOG2 PUSH5 0x6970667358 0x22 SLT KECCAK256 PUSH14 0xE0DEEDCC7D975ADB52B05D78B352 0xB0 PUSH27 0x345C636B05F54957E3F7B32340991964736F6C6343000807003300 "
				},
				"gasEstimates": {
					"creation": {
						"codeDepositCost": "351800",
						"executionCost": "infinite",
						"totalCost": "infinite"
					},
					"external": {
						"acedamyinstructor()": "infinite",
						"changeinstructor(uint256,string,address,int256)": "infinite"
					}
				},
				"methodIdentifiers": {
					"acedamyinstructor()": "457a0af6",
					"changeinstructor(uint256,string,address,int256)": "48a941ab"
				}
			},
			"storageLayout": {
				"storage": [
					{
						"astId": 13,
						"contract": "contracts/structure.sol:academy",
						"label": "acedamyinstructor",
						"offset": 0,
						"slot": "0",
						"type": "t_struct(instructor)10_storage"
					}
				],
				"types": {
					"t_address": {
						"encoding": "inplace",
						"label": "address",
						"numberOfBytes": "20"
					},
					"t_int256": {
						"encoding": "inplace",
						"label": "int256",
						"numberOfBytes": "32"
					},
					"t_string_storage": {
						"encoding": "bytes",
						"label": "string",
						"numberOfBytes": "32"
					},
					"t_struct(instructor)10_storage": {
						"encoding": "inplace",
						"label": "struct instructor",
						"members": [
							{
								"astId": 3,
								"contract": "contracts/structure.sol:academy",
								"label": "age",
								"offset": 0,
								"slot": "0",
								"type": "t_uint256"
							},
							{
								"astId": 5,
								"contract": "contracts/structure.sol:academy",
								"label": "name",
								"offset": 0,
								"slot": "1",
								"type": "t_string_storage"
							},
							{
								"astId": 7,
								"contract": "contracts/structure.sol:academy",
								"label": "money",
								"offset": 0,
								"slot": "2",
								"type": "t_int256"
							},
							{
								"astId": 9,
								"contract": "contracts/structure.sol:academy",
								"label": "addr",
								"offset": 0,
								"slot": "3",
								"type": "t_address"
							}
						],
						"numberOfBytes": "128"
					},
					"t_uint256": {
						"encoding": "inplace",
						"label": "uint256",
						"numberOfBytes": "32"
					}
				}
			},
			"userdoc": {
				"kind": "user",
				"methods": {},
				"version": 1
			}
		}
	}
}