{
	"contracts/Event.sol": {
		"demo": {
			"abi": [
				{
					"anonymous": false,
					"inputs": [
						{
							"indexed": false,
							"internalType": "address",
							"name": "manager",
							"type": "address"
						},
						{
							"indexed": false,
							"internalType": "string",
							"name": "char",
							"type": "string"
						}
					],
					"name": "register",
					"type": "event"
				},
				{
					"inputs": [
						{
							"internalType": "string",
							"name": "_str",
							"type": "string"
						}
					],
					"name": "setter",
					"outputs": [],
					"stateMutability": "nonpayable",
					"type": "function"
				},
				{
					"inputs": [],
					"name": "str",
					"outputs": [
						{
							"internalType": "string",
							"name": "",
							"type": "string"
						}
					],
					"stateMutability": "view",
					"type": "function"
				}
			],
			"devdoc": {
				"kind": "dev",
				"methods": {},
				"version": 1
			},
			"evm": {
				"assembly": "    /* \"contracts/Event.sol\":107:326  contract demo {\r... */\n  mstore(0x40, 0x80)\n  callvalue\n  dup1\n  iszero\n  tag_1\n  jumpi\n  0x00\n  dup1\n  revert\ntag_1:\n  pop\n  dataSize(sub_0)\n  dup1\n  dataOffset(sub_0)\n  0x00\n  codecopy\n  0x00\n  return\nstop\n\nsub_0: assembly {\n        /* \"contracts/Event.sol\":107:326  contract demo {\r... */\n      mstore(0x40, 0x80)\n      callvalue\n      dup1\n      iszero\n      tag_1\n      jumpi\n      0x00\n      dup1\n      revert\n    tag_1:\n      pop\n      jumpi(tag_2, lt(calldatasize, 0x04))\n      shr(0xe0, calldataload(0x00))\n      dup1\n      0x846228a3\n      eq\n      tag_3\n      jumpi\n      dup1\n      0xc15bae84\n      eq\n      tag_4\n      jumpi\n    tag_2:\n      0x00\n      dup1\n      revert\n        /* \"contracts/Event.sol\":213:321  function setter(string memory _str) public {\r... */\n    tag_3:\n      tag_5\n      0x04\n      dup1\n      calldatasize\n      sub\n      dup2\n      add\n      swap1\n      tag_6\n      swap2\n      swap1\n      tag_7\n      jump\t// in\n    tag_6:\n      tag_8\n      jump\t// in\n    tag_5:\n      stop\n        /* \"contracts/Event.sol\":128:145  string public str */\n    tag_4:\n      tag_9\n      tag_10\n      jump\t// in\n    tag_9:\n      mload(0x40)\n      tag_11\n      swap2\n      swap1\n      tag_12\n      jump\t// in\n    tag_11:\n      mload(0x40)\n      dup1\n      swap2\n      sub\n      swap1\n      return\n        /* \"contracts/Event.sol\":213:321  function setter(string memory _str) public {\r... */\n    tag_8:\n        /* \"contracts/Event.sol\":271:275  _str */\n      dup1\n        /* \"contracts/Event.sol\":267:270  str */\n      0x00\n        /* \"contracts/Event.sol\":267:275  str=_str */\n      swap1\n      dup1\n      mload\n      swap1\n      0x20\n      add\n      swap1\n      tag_14\n      swap3\n      swap2\n      swap1\n      tag_15\n      jump\t// in\n    tag_14:\n      pop\n        /* \"contracts/Event.sol\":289:313  register(msg.sender,str) */\n      0x32434a2e90725ed590daff07a244305001c58c49f7bef73ce5e7249acf69f561\n        /* \"contracts/Event.sol\":298:308  msg.sender */\n      caller\n        /* \"contracts/Event.sol\":309:312  str */\n      0x00\n        /* \"contracts/Event.sol\":289:313  register(msg.sender,str) */\n      mload(0x40)\n      tag_16\n      swap3\n      swap2\n      swap1\n      tag_17\n      jump\t// in\n    tag_16:\n      mload(0x40)\n      dup1\n      swap2\n      sub\n      swap1\n      log1\n        /* \"contracts/Event.sol\":213:321  function setter(string memory _str) public {\r... */\n      pop\n      jump\t// out\n        /* \"contracts/Event.sol\":128:145  string public str */\n    tag_10:\n      0x00\n      dup1\n      sload\n      tag_18\n      swap1\n      tag_19\n      jump\t// in\n    tag_18:\n      dup1\n      0x1f\n      add\n      0x20\n      dup1\n      swap2\n      div\n      mul\n      0x20\n      add\n      mload(0x40)\n      swap1\n      dup2\n      add\n      0x40\n      mstore\n      dup1\n      swap3\n      swap2\n      swap1\n      dup2\n      dup2\n      mstore\n      0x20\n      add\n      dup3\n      dup1\n      sload\n      tag_20\n      swap1\n      tag_19\n      jump\t// in\n    tag_20:\n      dup1\n      iszero\n      tag_21\n      jumpi\n      dup1\n      0x1f\n      lt\n      tag_22\n      jumpi\n      0x0100\n      dup1\n      dup4\n      sload\n      div\n      mul\n      dup4\n      mstore\n      swap2\n      0x20\n      add\n      swap2\n      jump(tag_21)\n    tag_22:\n      dup3\n      add\n      swap2\n      swap1\n      0x00\n      mstore\n      keccak256(0x00, 0x20)\n      swap1\n    tag_23:\n      dup2\n      sload\n      dup2\n      mstore\n      swap1\n      0x01\n      add\n      swap1\n      0x20\n      add\n      dup1\n      dup4\n      gt\n      tag_23\n      jumpi\n      dup3\n      swap1\n      sub\n      0x1f\n      and\n      dup3\n      add\n      swap2\n    tag_21:\n      pop\n      pop\n      pop\n      pop\n      pop\n      dup2\n      jump\t// out\n    tag_15:\n      dup3\n      dup1\n      sload\n      tag_24\n      swap1\n      tag_19\n      jump\t// in\n    tag_24:\n      swap1\n      0x00\n      mstore\n      keccak256(0x00, 0x20)\n      swap1\n      0x1f\n      add\n      0x20\n      swap1\n      div\n      dup2\n      add\n      swap3\n      dup3\n      tag_26\n      jumpi\n      0x00\n      dup6\n      sstore\n      jump(tag_25)\n    tag_26:\n      dup3\n      0x1f\n      lt\n      tag_27\n      jumpi\n      dup1\n      mload\n      not(0xff)\n      and\n      dup4\n      dup1\n      add\n      or\n      dup6\n      sstore\n      jump(tag_25)\n    tag_27:\n      dup3\n      dup1\n      add\n      0x01\n      add\n      dup6\n      sstore\n      dup3\n      iszero\n      tag_25\n      jumpi\n      swap2\n      dup3\n      add\n    tag_28:\n      dup3\n      dup2\n      gt\n      iszero\n      tag_29\n      jumpi\n      dup3\n      mload\n      dup3\n      sstore\n      swap2\n      0x20\n      add\n      swap2\n      swap1\n      0x01\n      add\n      swap1\n      jump(tag_28)\n    tag_29:\n    tag_25:\n      pop\n      swap1\n      pop\n      tag_30\n      swap2\n      swap1\n      tag_31\n      jump\t// in\n    tag_30:\n      pop\n      swap1\n      jump\t// out\n    tag_31:\n    tag_32:\n      dup1\n      dup3\n      gt\n      iszero\n      tag_33\n      jumpi\n      0x00\n      dup2\n      0x00\n      swap1\n      sstore\n      pop\n      0x01\n      add\n      jump(tag_32)\n    tag_33:\n      pop\n      swap1\n      jump\t// out\n        /* \"#utility.yul\":7:419   */\n    tag_35:\n        /* \"#utility.yul\":85:90   */\n      0x00\n        /* \"#utility.yul\":110:176   */\n      tag_37\n        /* \"#utility.yul\":126:175   */\n      tag_38\n        /* \"#utility.yul\":168:174   */\n      dup5\n        /* \"#utility.yul\":126:175   */\n      tag_39\n      jump\t// in\n    tag_38:\n        /* \"#utility.yul\":110:176   */\n      tag_40\n      jump\t// in\n    tag_37:\n        /* \"#utility.yul\":101:176   */\n      swap1\n      pop\n        /* \"#utility.yul\":199:205   */\n      dup3\n        /* \"#utility.yul\":192:197   */\n      dup2\n        /* \"#utility.yul\":185:206   */\n      mstore\n        /* \"#utility.yul\":237:241   */\n      0x20\n        /* \"#utility.yul\":230:235   */\n      dup2\n        /* \"#utility.yul\":226:242   */\n      add\n        /* \"#utility.yul\":275:278   */\n      dup5\n        /* \"#utility.yul\":266:272   */\n      dup5\n        /* \"#utility.yul\":261:264   */\n      dup5\n        /* \"#utility.yul\":257:273   */\n      add\n        /* \"#utility.yul\":254:279   */\n      gt\n        /* \"#utility.yul\":251:363   */\n      iszero\n      tag_41\n      jumpi\n        /* \"#utility.yul\":282:361   */\n      tag_42\n      tag_43\n      jump\t// in\n    tag_42:\n        /* \"#utility.yul\":251:363   */\n    tag_41:\n        /* \"#utility.yul\":372:413   */\n      tag_44\n        /* \"#utility.yul\":406:412   */\n      dup5\n        /* \"#utility.yul\":401:404   */\n      dup3\n        /* \"#utility.yul\":396:399   */\n      dup6\n        /* \"#utility.yul\":372:413   */\n      tag_45\n      jump\t// in\n    tag_44:\n        /* \"#utility.yul\":91:419   */\n      pop\n        /* \"#utility.yul\":7:419   */\n      swap4\n      swap3\n      pop\n      pop\n      pop\n      jump\t// out\n        /* \"#utility.yul\":439:779   */\n    tag_46:\n        /* \"#utility.yul\":495:500   */\n      0x00\n        /* \"#utility.yul\":544:547   */\n      dup3\n        /* \"#utility.yul\":537:541   */\n      0x1f\n        /* \"#utility.yul\":529:535   */\n      dup4\n        /* \"#utility.yul\":525:542   */\n      add\n        /* \"#utility.yul\":521:548   */\n      slt\n        /* \"#utility.yul\":511:633   */\n      tag_48\n      jumpi\n        /* \"#utility.yul\":552:631   */\n      tag_49\n      tag_50\n      jump\t// in\n    tag_49:\n        /* \"#utility.yul\":511:633   */\n    tag_48:\n        /* \"#utility.yul\":669:675   */\n      dup2\n        /* \"#utility.yul\":656:676   */\n      calldataload\n        /* \"#utility.yul\":694:773   */\n      tag_51\n        /* \"#utility.yul\":769:772   */\n      dup5\n        /* \"#utility.yul\":761:767   */\n      dup3\n        /* \"#utility.yul\":754:758   */\n      0x20\n        /* \"#utility.yul\":746:752   */\n      dup7\n        /* \"#utility.yul\":742:759   */\n      add\n        /* \"#utility.yul\":694:773   */\n      tag_35\n      jump\t// in\n    tag_51:\n        /* \"#utility.yul\":685:773   */\n      swap2\n      pop\n        /* \"#utility.yul\":501:779   */\n      pop\n        /* \"#utility.yul\":439:779   */\n      swap3\n      swap2\n      pop\n      pop\n      jump\t// out\n        /* \"#utility.yul\":785:1294   */\n    tag_7:\n        /* \"#utility.yul\":854:860   */\n      0x00\n        /* \"#utility.yul\":903:905   */\n      0x20\n        /* \"#utility.yul\":891:900   */\n      dup3\n        /* \"#utility.yul\":882:889   */\n      dup5\n        /* \"#utility.yul\":878:901   */\n      sub\n        /* \"#utility.yul\":874:906   */\n      slt\n        /* \"#utility.yul\":871:990   */\n      iszero\n      tag_53\n      jumpi\n        /* \"#utility.yul\":909:988   */\n      tag_54\n      tag_55\n      jump\t// in\n    tag_54:\n        /* \"#utility.yul\":871:990   */\n    tag_53:\n        /* \"#utility.yul\":1057:1058   */\n      0x00\n        /* \"#utility.yul\":1046:1055   */\n      dup3\n        /* \"#utility.yul\":1042:1059   */\n      add\n        /* \"#utility.yul\":1029:1060   */\n      calldataload\n        /* \"#utility.yul\":1087:1105   */\n      0xffffffffffffffff\n        /* \"#utility.yul\":1079:1085   */\n      dup2\n        /* \"#utility.yul\":1076:1106   */\n      gt\n        /* \"#utility.yul\":1073:1190   */\n      iszero\n      tag_56\n      jumpi\n        /* \"#utility.yul\":1109:1188   */\n      tag_57\n      tag_58\n      jump\t// in\n    tag_57:\n        /* \"#utility.yul\":1073:1190   */\n    tag_56:\n        /* \"#utility.yul\":1214:1277   */\n      tag_59\n        /* \"#utility.yul\":1269:1276   */\n      dup5\n        /* \"#utility.yul\":1260:1266   */\n      dup3\n        /* \"#utility.yul\":1249:1258   */\n      dup6\n        /* \"#utility.yul\":1245:1267   */\n      add\n        /* \"#utility.yul\":1214:1277   */\n      tag_46\n      jump\t// in\n    tag_59:\n        /* \"#utility.yul\":1204:1277   */\n      swap2\n      pop\n        /* \"#utility.yul\":1000:1287   */\n      pop\n        /* \"#utility.yul\":785:1294   */\n      swap3\n      swap2\n      pop\n      pop\n      jump\t// out\n        /* \"#utility.yul\":1300:1418   */\n    tag_60:\n        /* \"#utility.yul\":1387:1411   */\n      tag_62\n        /* \"#utility.yul\":1405:1410   */\n      dup2\n        /* \"#utility.yul\":1387:1411   */\n      tag_63\n      jump\t// in\n    tag_62:\n        /* \"#utility.yul\":1382:1385   */\n      dup3\n        /* \"#utility.yul\":1375:1412   */\n      mstore\n        /* \"#utility.yul\":1300:1418   */\n      pop\n      pop\n      jump\t// out\n        /* \"#utility.yul\":1424:1788   */\n    tag_64:\n        /* \"#utility.yul\":1512:1515   */\n      0x00\n        /* \"#utility.yul\":1540:1579   */\n      tag_66\n        /* \"#utility.yul\":1573:1578   */\n      dup3\n        /* \"#utility.yul\":1540:1579   */\n      tag_67\n      jump\t// in\n    tag_66:\n        /* \"#utility.yul\":1595:1666   */\n      tag_68\n        /* \"#utility.yul\":1659:1665   */\n      dup2\n        /* \"#utility.yul\":1654:1657   */\n      dup6\n        /* \"#utility.yul\":1595:1666   */\n      tag_69\n      jump\t// in\n    tag_68:\n        /* \"#utility.yul\":1588:1666   */\n      swap4\n      pop\n        /* \"#utility.yul\":1675:1727   */\n      tag_70\n        /* \"#utility.yul\":1720:1726   */\n      dup2\n        /* \"#utility.yul\":1715:1718   */\n      dup6\n        /* \"#utility.yul\":1708:1712   */\n      0x20\n        /* \"#utility.yul\":1701:1706   */\n      dup7\n        /* \"#utility.yul\":1697:1713   */\n      add\n        /* \"#utility.yul\":1675:1727   */\n      tag_71\n      jump\t// in\n    tag_70:\n        /* \"#utility.yul\":1752:1781   */\n      tag_72\n        /* \"#utility.yul\":1774:1780   */\n      dup2\n        /* \"#utility.yul\":1752:1781   */\n      tag_73\n      jump\t// in\n    tag_72:\n        /* \"#utility.yul\":1747:1750   */\n      dup5\n        /* \"#utility.yul\":1743:1782   */\n      add\n        /* \"#utility.yul\":1736:1782   */\n      swap2\n      pop\n        /* \"#utility.yul\":1516:1788   */\n      pop\n        /* \"#utility.yul\":1424:1788   */\n      swap3\n      swap2\n      pop\n      pop\n      jump\t// out\n        /* \"#utility.yul\":1818:2620   */\n    tag_74:\n        /* \"#utility.yul\":1903:1906   */\n      0x00\n        /* \"#utility.yul\":1940:1945   */\n      dup2\n        /* \"#utility.yul\":1934:1946   */\n      sload\n        /* \"#utility.yul\":1969:2005   */\n      tag_76\n        /* \"#utility.yul\":1995:2004   */\n      dup2\n        /* \"#utility.yul\":1969:2005   */\n      tag_19\n      jump\t// in\n    tag_76:\n        /* \"#utility.yul\":2021:2092   */\n      tag_77\n        /* \"#utility.yul\":2085:2091   */\n      dup2\n        /* \"#utility.yul\":2080:2083   */\n      dup7\n        /* \"#utility.yul\":2021:2092   */\n      tag_69\n      jump\t// in\n    tag_77:\n        /* \"#utility.yul\":2014:2092   */\n      swap5\n      pop\n        /* \"#utility.yul\":2123:2124   */\n      0x01\n        /* \"#utility.yul\":2112:2121   */\n      dup3\n        /* \"#utility.yul\":2108:2125   */\n      and\n        /* \"#utility.yul\":2139:2140   */\n      0x00\n        /* \"#utility.yul\":2134:2269   */\n      dup2\n      eq\n      tag_79\n      jumpi\n        /* \"#utility.yul\":2283:2284   */\n      0x01\n        /* \"#utility.yul\":2278:2614   */\n      dup2\n      eq\n      tag_80\n      jumpi\n        /* \"#utility.yul\":2101:2614   */\n      jump(tag_78)\n        /* \"#utility.yul\":2134:2269   */\n    tag_79:\n        /* \"#utility.yul\":2218:2222   */\n      0xff\n        /* \"#utility.yul\":2214:2223   */\n      not\n        /* \"#utility.yul\":2203:2212   */\n      dup4\n        /* \"#utility.yul\":2199:2224   */\n      and\n        /* \"#utility.yul\":2194:2197   */\n      dup7\n        /* \"#utility.yul\":2187:2225   */\n      mstore\n        /* \"#utility.yul\":2254:2258   */\n      0x20\n        /* \"#utility.yul\":2249:2252   */\n      dup7\n        /* \"#utility.yul\":2245:2259   */\n      add\n        /* \"#utility.yul\":2238:2259   */\n      swap4\n      pop\n        /* \"#utility.yul\":2134:2269   */\n      jump(tag_78)\n        /* \"#utility.yul\":2278:2614   */\n    tag_80:\n        /* \"#utility.yul\":2345:2383   */\n      tag_81\n        /* \"#utility.yul\":2377:2382   */\n      dup6\n        /* \"#utility.yul\":2345:2383   */\n      tag_82\n      jump\t// in\n    tag_81:\n        /* \"#utility.yul\":2405:2406   */\n      0x00\n        /* \"#utility.yul\":2419:2573   */\n    tag_83:\n        /* \"#utility.yul\":2433:2439   */\n      dup4\n        /* \"#utility.yul\":2430:2431   */\n      dup2\n        /* \"#utility.yul\":2427:2440   */\n      lt\n        /* \"#utility.yul\":2419:2573   */\n      iszero\n      tag_85\n      jumpi\n        /* \"#utility.yul\":2507:2514   */\n      dup2\n        /* \"#utility.yul\":2501:2515   */\n      sload\n        /* \"#utility.yul\":2497:2498   */\n      dup2\n        /* \"#utility.yul\":2492:2495   */\n      dup10\n        /* \"#utility.yul\":2488:2499   */\n      add\n        /* \"#utility.yul\":2481:2516   */\n      mstore\n        /* \"#utility.yul\":2557:2558   */\n      0x01\n        /* \"#utility.yul\":2548:2555   */\n      dup3\n        /* \"#utility.yul\":2544:2559   */\n      add\n        /* \"#utility.yul\":2533:2559   */\n      swap2\n      pop\n        /* \"#utility.yul\":2455:2459   */\n      0x20\n        /* \"#utility.yul\":2452:2453   */\n      dup2\n        /* \"#utility.yul\":2448:2460   */\n      add\n        /* \"#utility.yul\":2443:2460   */\n      swap1\n      pop\n        /* \"#utility.yul\":2419:2573   */\n      jump(tag_83)\n    tag_85:\n        /* \"#utility.yul\":2602:2603   */\n      dup1\n        /* \"#utility.yul\":2597:2600   */\n      dup9\n        /* \"#utility.yul\":2593:2604   */\n      add\n        /* \"#utility.yul\":2586:2604   */\n      swap6\n      pop\n        /* \"#utility.yul\":2285:2614   */\n      pop\n      pop\n        /* \"#utility.yul\":2101:2614   */\n    tag_78:\n      pop\n        /* \"#utility.yul\":1907:2620   */\n      pop\n      pop\n        /* \"#utility.yul\":1818:2620   */\n      swap3\n      swap2\n      pop\n      pop\n      jump\t// out\n        /* \"#utility.yul\":2626:3043   */\n    tag_17:\n        /* \"#utility.yul\":2764:2768   */\n      0x00\n        /* \"#utility.yul\":2802:2804   */\n      0x40\n        /* \"#utility.yul\":2791:2800   */\n      dup3\n        /* \"#utility.yul\":2787:2805   */\n      add\n        /* \"#utility.yul\":2779:2805   */\n      swap1\n      pop\n        /* \"#utility.yul\":2815:2886   */\n      tag_87\n        /* \"#utility.yul\":2883:2884   */\n      0x00\n        /* \"#utility.yul\":2872:2881   */\n      dup4\n        /* \"#utility.yul\":2868:2885   */\n      add\n        /* \"#utility.yul\":2859:2865   */\n      dup6\n        /* \"#utility.yul\":2815:2886   */\n      tag_60\n      jump\t// in\n    tag_87:\n        /* \"#utility.yul\":2933:2942   */\n      dup2\n        /* \"#utility.yul\":2927:2931   */\n      dup2\n        /* \"#utility.yul\":2923:2943   */\n      sub\n        /* \"#utility.yul\":2918:2920   */\n      0x20\n        /* \"#utility.yul\":2907:2916   */\n      dup4\n        /* \"#utility.yul\":2903:2921   */\n      add\n        /* \"#utility.yul\":2896:2944   */\n      mstore\n        /* \"#utility.yul\":2961:3036   */\n      tag_88\n        /* \"#utility.yul\":3031:3035   */\n      dup2\n        /* \"#utility.yul\":3022:3028   */\n      dup5\n        /* \"#utility.yul\":2961:3036   */\n      tag_74\n      jump\t// in\n    tag_88:\n        /* \"#utility.yul\":2953:3036   */\n      swap1\n      pop\n        /* \"#utility.yul\":2626:3043   */\n      swap4\n      swap3\n      pop\n      pop\n      pop\n      jump\t// out\n        /* \"#utility.yul\":3049:3362   */\n    tag_12:\n        /* \"#utility.yul\":3162:3166   */\n      0x00\n        /* \"#utility.yul\":3200:3202   */\n      0x20\n        /* \"#utility.yul\":3189:3198   */\n      dup3\n        /* \"#utility.yul\":3185:3203   */\n      add\n        /* \"#utility.yul\":3177:3203   */\n      swap1\n      pop\n        /* \"#utility.yul\":3249:3258   */\n      dup2\n        /* \"#utility.yul\":3243:3247   */\n      dup2\n        /* \"#utility.yul\":3239:3259   */\n      sub\n        /* \"#utility.yul\":3235:3236   */\n      0x00\n        /* \"#utility.yul\":3224:3233   */\n      dup4\n        /* \"#utility.yul\":3220:3237   */\n      add\n        /* \"#utility.yul\":3213:3260   */\n      mstore\n        /* \"#utility.yul\":3277:3355   */\n      tag_90\n        /* \"#utility.yul\":3350:3354   */\n      dup2\n        /* \"#utility.yul\":3341:3347   */\n      dup5\n        /* \"#utility.yul\":3277:3355   */\n      tag_64\n      jump\t// in\n    tag_90:\n        /* \"#utility.yul\":3269:3355   */\n      swap1\n      pop\n        /* \"#utility.yul\":3049:3362   */\n      swap3\n      swap2\n      pop\n      pop\n      jump\t// out\n        /* \"#utility.yul\":3368:3497   */\n    tag_40:\n        /* \"#utility.yul\":3402:3408   */\n      0x00\n        /* \"#utility.yul\":3429:3449   */\n      tag_92\n      tag_93\n      jump\t// in\n    tag_92:\n        /* \"#utility.yul\":3419:3449   */\n      swap1\n      pop\n        /* \"#utility.yul\":3458:3491   */\n      tag_94\n        /* \"#utility.yul\":3486:3490   */\n      dup3\n        /* \"#utility.yul\":3478:3484   */\n      dup3\n        /* \"#utility.yul\":3458:3491   */\n      tag_95\n      jump\t// in\n    tag_94:\n        /* \"#utility.yul\":3368:3497   */\n      swap2\n      swap1\n      pop\n      jump\t// out\n        /* \"#utility.yul\":3503:3578   */\n    tag_93:\n        /* \"#utility.yul\":3536:3542   */\n      0x00\n        /* \"#utility.yul\":3569:3571   */\n      0x40\n        /* \"#utility.yul\":3563:3572   */\n      mload\n        /* \"#utility.yul\":3553:3572   */\n      swap1\n      pop\n        /* \"#utility.yul\":3503:3578   */\n      swap1\n      jump\t// out\n        /* \"#utility.yul\":3584:3892   */\n    tag_39:\n        /* \"#utility.yul\":3646:3650   */\n      0x00\n        /* \"#utility.yul\":3736:3754   */\n      0xffffffffffffffff\n        /* \"#utility.yul\":3728:3734   */\n      dup3\n        /* \"#utility.yul\":3725:3755   */\n      gt\n        /* \"#utility.yul\":3722:3778   */\n      iszero\n      tag_98\n      jumpi\n        /* \"#utility.yul\":3758:3776   */\n      tag_99\n      tag_100\n      jump\t// in\n    tag_99:\n        /* \"#utility.yul\":3722:3778   */\n    tag_98:\n        /* \"#utility.yul\":3796:3825   */\n      tag_101\n        /* \"#utility.yul\":3818:3824   */\n      dup3\n        /* \"#utility.yul\":3796:3825   */\n      tag_73\n      jump\t// in\n    tag_101:\n        /* \"#utility.yul\":3788:3825   */\n      swap1\n      pop\n        /* \"#utility.yul\":3880:3884   */\n      0x20\n        /* \"#utility.yul\":3874:3878   */\n      dup2\n        /* \"#utility.yul\":3870:3885   */\n      add\n        /* \"#utility.yul\":3862:3885   */\n      swap1\n      pop\n        /* \"#utility.yul\":3584:3892   */\n      swap2\n      swap1\n      pop\n      jump\t// out\n        /* \"#utility.yul\":3898:4039   */\n    tag_82:\n        /* \"#utility.yul\":3947:3951   */\n      0x00\n        /* \"#utility.yul\":3970:3973   */\n      dup2\n        /* \"#utility.yul\":3962:3973   */\n      swap1\n      pop\n        /* \"#utility.yul\":3993:3996   */\n      dup2\n        /* \"#utility.yul\":3990:3991   */\n      0x00\n        /* \"#utility.yul\":3983:3997   */\n      mstore\n        /* \"#utility.yul\":4027:4031   */\n      0x20\n        /* \"#utility.yul\":4024:4025   */\n      0x00\n        /* \"#utility.yul\":4014:4032   */\n      keccak256\n        /* \"#utility.yul\":4006:4032   */\n      swap1\n      pop\n        /* \"#utility.yul\":3898:4039   */\n      swap2\n      swap1\n      pop\n      jump\t// out\n        /* \"#utility.yul\":4045:4144   */\n    tag_67:\n        /* \"#utility.yul\":4097:4103   */\n      0x00\n        /* \"#utility.yul\":4131:4136   */\n      dup2\n        /* \"#utility.yul\":4125:4137   */\n      mload\n        /* \"#utility.yul\":4115:4137   */\n      swap1\n      pop\n        /* \"#utility.yul\":4045:4144   */\n      swap2\n      swap1\n      pop\n      jump\t// out\n        /* \"#utility.yul\":4150:4319   */\n    tag_69:\n        /* \"#utility.yul\":4234:4245   */\n      0x00\n        /* \"#utility.yul\":4268:4274   */\n      dup3\n        /* \"#utility.yul\":4263:4266   */\n      dup3\n        /* \"#utility.yul\":4256:4275   */\n      mstore\n        /* \"#utility.yul\":4308:4312   */\n      0x20\n        /* \"#utility.yul\":4303:4306   */\n      dup3\n        /* \"#utility.yul\":4299:4313   */\n      add\n        /* \"#utility.yul\":4284:4313   */\n      swap1\n      pop\n        /* \"#utility.yul\":4150:4319   */\n      swap3\n      swap2\n      pop\n      pop\n      jump\t// out\n        /* \"#utility.yul\":4325:4421   */\n    tag_63:\n        /* \"#utility.yul\":4362:4369   */\n      0x00\n        /* \"#utility.yul\":4391:4415   */\n      tag_106\n        /* \"#utility.yul\":4409:4414   */\n      dup3\n        /* \"#utility.yul\":4391:4415   */\n      tag_107\n      jump\t// in\n    tag_106:\n        /* \"#utility.yul\":4380:4415   */\n      swap1\n      pop\n        /* \"#utility.yul\":4325:4421   */\n      swap2\n      swap1\n      pop\n      jump\t// out\n        /* \"#utility.yul\":4427:4553   */\n    tag_107:\n        /* \"#utility.yul\":4464:4471   */\n      0x00\n        /* \"#utility.yul\":4504:4546   */\n      0xffffffffffffffffffffffffffffffffffffffff\n        /* \"#utility.yul\":4497:4502   */\n      dup3\n        /* \"#utility.yul\":4493:4547   */\n      and\n        /* \"#utility.yul\":4482:4547   */\n      swap1\n      pop\n        /* \"#utility.yul\":4427:4553   */\n      swap2\n      swap1\n      pop\n      jump\t// out\n        /* \"#utility.yul\":4559:4713   */\n    tag_45:\n        /* \"#utility.yul\":4643:4649   */\n      dup3\n        /* \"#utility.yul\":4638:4641   */\n      dup2\n        /* \"#utility.yul\":4633:4636   */\n      dup4\n        /* \"#utility.yul\":4620:4650   */\n      calldatacopy\n        /* \"#utility.yul\":4705:4706   */\n      0x00\n        /* \"#utility.yul\":4696:4702   */\n      dup4\n        /* \"#utility.yul\":4691:4694   */\n      dup4\n        /* \"#utility.yul\":4687:4703   */\n      add\n        /* \"#utility.yul\":4680:4707   */\n      mstore\n        /* \"#utility.yul\":4559:4713   */\n      pop\n      pop\n      pop\n      jump\t// out\n        /* \"#utility.yul\":4719:5026   */\n    tag_71:\n        /* \"#utility.yul\":4787:4788   */\n      0x00\n        /* \"#utility.yul\":4797:4910   */\n    tag_111:\n        /* \"#utility.yul\":4811:4817   */\n      dup4\n        /* \"#utility.yul\":4808:4809   */\n      dup2\n        /* \"#utility.yul\":4805:4818   */\n      lt\n        /* \"#utility.yul\":4797:4910   */\n      iszero\n      tag_113\n      jumpi\n        /* \"#utility.yul\":4896:4897   */\n      dup1\n        /* \"#utility.yul\":4891:4894   */\n      dup3\n        /* \"#utility.yul\":4887:4898   */\n      add\n        /* \"#utility.yul\":4881:4899   */\n      mload\n        /* \"#utility.yul\":4877:4878   */\n      dup2\n        /* \"#utility.yul\":4872:4875   */\n      dup5\n        /* \"#utility.yul\":4868:4879   */\n      add\n        /* \"#utility.yul\":4861:4900   */\n      mstore\n        /* \"#utility.yul\":4833:4835   */\n      0x20\n        /* \"#utility.yul\":4830:4831   */\n      dup2\n        /* \"#utility.yul\":4826:4836   */\n      add\n        /* \"#utility.yul\":4821:4836   */\n      swap1\n      pop\n        /* \"#utility.yul\":4797:4910   */\n      jump(tag_111)\n    tag_113:\n        /* \"#utility.yul\":4928:4934   */\n      dup4\n        /* \"#utility.yul\":4925:4926   */\n      dup2\n        /* \"#utility.yul\":4922:4935   */\n      gt\n        /* \"#utility.yul\":4919:5020   */\n      iszero\n      tag_114\n      jumpi\n        /* \"#utility.yul\":5008:5009   */\n      0x00\n        /* \"#utility.yul\":4999:5005   */\n      dup5\n        /* \"#utility.yul\":4994:4997   */\n      dup5\n        /* \"#utility.yul\":4990:5006   */\n      add\n        /* \"#utility.yul\":4983:5010   */\n      mstore\n        /* \"#utility.yul\":4919:5020   */\n    tag_114:\n        /* \"#utility.yul\":4768:5026   */\n      pop\n        /* \"#utility.yul\":4719:5026   */\n      pop\n      pop\n      pop\n      jump\t// out\n        /* \"#utility.yul\":5032:5352   */\n    tag_19:\n        /* \"#utility.yul\":5076:5082   */\n      0x00\n        /* \"#utility.yul\":5113:5114   */\n      0x02\n        /* \"#utility.yul\":5107:5111   */\n      dup3\n        /* \"#utility.yul\":5103:5115   */\n      div\n        /* \"#utility.yul\":5093:5115   */\n      swap1\n      pop\n        /* \"#utility.yul\":5160:5161   */\n      0x01\n        /* \"#utility.yul\":5154:5158   */\n      dup3\n        /* \"#utility.yul\":5150:5162   */\n      and\n        /* \"#utility.yul\":5181:5199   */\n      dup1\n        /* \"#utility.yul\":5171:5252   */\n      tag_116\n      jumpi\n        /* \"#utility.yul\":5237:5241   */\n      0x7f\n        /* \"#utility.yul\":5229:5235   */\n      dup3\n        /* \"#utility.yul\":5225:5242   */\n      and\n        /* \"#utility.yul\":5215:5242   */\n      swap2\n      pop\n        /* \"#utility.yul\":5171:5252   */\n    tag_116:\n        /* \"#utility.yul\":5299:5301   */\n      0x20\n        /* \"#utility.yul\":5291:5297   */\n      dup3\n        /* \"#utility.yul\":5288:5302   */\n      lt\n        /* \"#utility.yul\":5268:5286   */\n      dup2\n        /* \"#utility.yul\":5265:5303   */\n      eq\n        /* \"#utility.yul\":5262:5346   */\n      iszero\n      tag_117\n      jumpi\n        /* \"#utility.yul\":5318:5336   */\n      tag_118\n      tag_119\n      jump\t// in\n    tag_118:\n        /* \"#utility.yul\":5262:5346   */\n    tag_117:\n        /* \"#utility.yul\":5083:5352   */\n      pop\n        /* \"#utility.yul\":5032:5352   */\n      swap2\n      swap1\n      pop\n      jump\t// out\n        /* \"#utility.yul\":5358:5639   */\n    tag_95:\n        /* \"#utility.yul\":5441:5468   */\n      tag_121\n        /* \"#utility.yul\":5463:5467   */\n      dup3\n        /* \"#utility.yul\":5441:5468   */\n      tag_73\n      jump\t// in\n    tag_121:\n        /* \"#utility.yul\":5433:5439   */\n      dup2\n        /* \"#utility.yul\":5429:5469   */\n      add\n        /* \"#utility.yul\":5571:5577   */\n      dup2\n        /* \"#utility.yul\":5559:5569   */\n      dup2\n        /* \"#utility.yul\":5556:5578   */\n      lt\n        /* \"#utility.yul\":5535:5553   */\n      0xffffffffffffffff\n        /* \"#utility.yul\":5523:5533   */\n      dup3\n        /* \"#utility.yul\":5520:5554   */\n      gt\n        /* \"#utility.yul\":5517:5579   */\n      or\n        /* \"#utility.yul\":5514:5602   */\n      iszero\n      tag_122\n      jumpi\n        /* \"#utility.yul\":5582:5600   */\n      tag_123\n      tag_100\n      jump\t// in\n    tag_123:\n        /* \"#utility.yul\":5514:5602   */\n    tag_122:\n        /* \"#utility.yul\":5622:5632   */\n      dup1\n        /* \"#utility.yul\":5618:5620   */\n      0x40\n        /* \"#utility.yul\":5611:5633   */\n      mstore\n        /* \"#utility.yul\":5401:5639   */\n      pop\n        /* \"#utility.yul\":5358:5639   */\n      pop\n      pop\n      jump\t// out\n        /* \"#utility.yul\":5645:5825   */\n    tag_119:\n        /* \"#utility.yul\":5693:5770   */\n      0x4e487b7100000000000000000000000000000000000000000000000000000000\n        /* \"#utility.yul\":5690:5691   */\n      0x00\n        /* \"#utility.yul\":5683:5771   */\n      mstore\n        /* \"#utility.yul\":5790:5794   */\n      0x22\n        /* \"#utility.yul\":5787:5788   */\n      0x04\n        /* \"#utility.yul\":5780:5795   */\n      mstore\n        /* \"#utility.yul\":5814:5818   */\n      0x24\n        /* \"#utility.yul\":5811:5812   */\n      0x00\n        /* \"#utility.yul\":5804:5819   */\n      revert\n        /* \"#utility.yul\":5831:6011   */\n    tag_100:\n        /* \"#utility.yul\":5879:5956   */\n      0x4e487b7100000000000000000000000000000000000000000000000000000000\n        /* \"#utility.yul\":5876:5877   */\n      0x00\n        /* \"#utility.yul\":5869:5957   */\n      mstore\n        /* \"#utility.yul\":5976:5980   */\n      0x41\n        /* \"#utility.yul\":5973:5974   */\n      0x04\n        /* \"#utility.yul\":5966:5981   */\n      mstore\n        /* \"#utility.yul\":6000:6004   */\n      0x24\n        /* \"#utility.yul\":5997:5998   */\n      0x00\n        /* \"#utility.yul\":5990:6005   */\n      revert\n        /* \"#utility.yul\":6017:6134   */\n    tag_50:\n        /* \"#utility.yul\":6126:6127   */\n      0x00\n        /* \"#utility.yul\":6123:6124   */\n      dup1\n        /* \"#utility.yul\":6116:6128   */\n      revert\n        /* \"#utility.yul\":6140:6257   */\n    tag_43:\n        /* \"#utility.yul\":6249:6250   */\n      0x00\n        /* \"#utility.yul\":6246:6247   */\n      dup1\n        /* \"#utility.yul\":6239:6251   */\n      revert\n        /* \"#utility.yul\":6263:6380   */\n    tag_58:\n        /* \"#utility.yul\":6372:6373   */\n      0x00\n        /* \"#utility.yul\":6369:6370   */\n      dup1\n        /* \"#utility.yul\":6362:6374   */\n      revert\n        /* \"#utility.yul\":6386:6503   */\n    tag_55:\n        /* \"#utility.yul\":6495:6496   */\n      0x00\n        /* \"#utility.yul\":6492:6493   */\n      dup1\n        /* \"#utility.yul\":6485:6497   */\n      revert\n        /* \"#utility.yul\":6509:6611   */\n    tag_73:\n        /* \"#utility.yul\":6550:6556   */\n      0x00\n        /* \"#utility.yul\":6601:6603   */\n      0x1f\n        /* \"#utility.yul\":6597:6604   */\n      not\n        /* \"#utility.yul\":6592:6594   */\n      0x1f\n        /* \"#utility.yul\":6585:6590   */\n      dup4\n        /* \"#utility.yul\":6581:6595   */\n      add\n        /* \"#utility.yul\":6577:6605   */\n      and\n        /* \"#utility.yul\":6567:6605   */\n      swap1\n      pop\n        /* \"#utility.yul\":6509:6611   */\n      swap2\n      swap1\n      pop\n      jump\t// out\n\n    auxdata: 0xa2646970667358221220db7fe85b1d3428233768163ad2f2cf3c0f7218a65e056b92a305296223a86cb764736f6c63430008070033\n}\n",
				"bytecode": {
					"linkReferences": {},
					"object": "608060405234801561001057600080fd5b506105e4806100206000396000f3fe608060405234801561001057600080fd5b50600436106100365760003560e01c8063846228a31461003b578063c15bae8414610057575b600080fd5b6100556004803603810190610050919061026a565b610075565b005b61005f6100c9565b60405161006c91906103ab565b60405180910390f35b806000908051906020019061008b929190610157565b507f32434a2e90725ed590daff07a244305001c58c49f7bef73ce5e7249acf69f5613360006040516100be92919061037b565b60405180910390a150565b600080546100d6906104c8565b80601f0160208091040260200160405190810160405280929190818152602001828054610102906104c8565b801561014f5780601f106101245761010080835404028352916020019161014f565b820191906000526020600020905b81548152906001019060200180831161013257829003601f168201915b505050505081565b828054610163906104c8565b90600052602060002090601f01602090048101928261018557600085556101cc565b82601f1061019e57805160ff19168380011785556101cc565b828001600101855582156101cc579182015b828111156101cb5782518255916020019190600101906101b0565b5b5090506101d991906101dd565b5090565b5b808211156101f65760008160009055506001016101de565b5090565b600061020d610208846103f2565b6103cd565b9050828152602081018484840111156102295761022861058e565b5b610234848285610486565b509392505050565b600082601f83011261025157610250610589565b5b81356102618482602086016101fa565b91505092915050565b6000602082840312156102805761027f610598565b5b600082013567ffffffffffffffff81111561029e5761029d610593565b5b6102aa8482850161023c565b91505092915050565b6102bc81610454565b82525050565b60006102cd82610438565b6102d78185610443565b93506102e7818560208601610495565b6102f08161059d565b840191505092915050565b60008154610308816104c8565b6103128186610443565b9450600182166000811461032d576001811461033f57610372565b60ff1983168652602086019350610372565b61034885610423565b60005b8381101561036a5781548189015260018201915060208101905061034b565b808801955050505b50505092915050565b600060408201905061039060008301856102b3565b81810360208301526103a281846102fb565b90509392505050565b600060208201905081810360008301526103c581846102c2565b905092915050565b60006103d76103e8565b90506103e382826104fa565b919050565b6000604051905090565b600067ffffffffffffffff82111561040d5761040c61055a565b5b6104168261059d565b9050602081019050919050565b60008190508160005260206000209050919050565b600081519050919050565b600082825260208201905092915050565b600061045f82610466565b9050919050565b600073ffffffffffffffffffffffffffffffffffffffff82169050919050565b82818337600083830152505050565b60005b838110156104b3578082015181840152602081019050610498565b838111156104c2576000848401525b50505050565b600060028204905060018216806104e057607f821691505b602082108114156104f4576104f361052b565b5b50919050565b6105038261059d565b810181811067ffffffffffffffff821117156105225761052161055a565b5b80604052505050565b7f4e487b7100000000000000000000000000000000000000000000000000000000600052602260045260246000fd5b7f4e487b7100000000000000000000000000000000000000000000000000000000600052604160045260246000fd5b600080fd5b600080fd5b600080fd5b600080fd5b6000601f19601f830116905091905056fea2646970667358221220db7fe85b1d3428233768163ad2f2cf3c0f7218a65e056b92a305296223a86cb764736f6c63430008070033",
					"opcodes": "PUSH1 0x80 PUSH1 0x40 MSTORE CALLVALUE DUP1 ISZERO PUSH2 0x10 JUMPI PUSH1 0x0 DUP1 REVERT JUMPDEST POP PUSH2 0x5E4 DUP1 PUSH2 0x20 PUSH1 0x0 CODECOPY PUSH1 0x0 RETURN INVALID PUSH1 0x80 PUSH1 0x40 MSTORE CALLVALUE DUP1 ISZERO PUSH2 0x10 JUMPI PUSH1 0x0 DUP1 REVERT JUMPDEST POP PUSH1 0x4 CALLDATASIZE LT PUSH2 0x36 JUMPI PUSH1 0x0 CALLDATALOAD PUSH1 0xE0 SHR DUP1 PUSH4 0x846228A3 EQ PUSH2 0x3B JUMPI DUP1 PUSH4 0xC15BAE84 EQ PUSH2 0x57 JUMPI JUMPDEST PUSH1 0x0 DUP1 REVERT JUMPDEST PUSH2 0x55 PUSH1 0x4 DUP1 CALLDATASIZE SUB DUP2 ADD SWAP1 PUSH2 0x50 SWAP2 SWAP1 PUSH2 0x26A JUMP JUMPDEST PUSH2 0x75 JUMP JUMPDEST STOP JUMPDEST PUSH2 0x5F PUSH2 0xC9 JUMP JUMPDEST PUSH1 0x40 MLOAD PUSH2 0x6C SWAP2 SWAP1 PUSH2 0x3AB JUMP JUMPDEST PUSH1 0x40 MLOAD DUP1 SWAP2 SUB SWAP1 RETURN JUMPDEST DUP1 PUSH1 0x0 SWAP1 DUP1 MLOAD SWAP1 PUSH1 0x20 ADD SWAP1 PUSH2 0x8B SWAP3 SWAP2 SWAP1 PUSH2 0x157 JUMP JUMPDEST POP PUSH32 0x32434A2E90725ED590DAFF07A244305001C58C49F7BEF73CE5E7249ACF69F561 CALLER PUSH1 0x0 PUSH1 0x40 MLOAD PUSH2 0xBE SWAP3 SWAP2 SWAP1 PUSH2 0x37B JUMP JUMPDEST PUSH1 0x40 MLOAD DUP1 SWAP2 SUB SWAP1 LOG1 POP JUMP JUMPDEST PUSH1 0x0 DUP1 SLOAD PUSH2 0xD6 SWAP1 PUSH2 0x4C8 JUMP JUMPDEST DUP1 PUSH1 0x1F ADD PUSH1 0x20 DUP1 SWAP2 DIV MUL PUSH1 0x20 ADD PUSH1 0x40 MLOAD SWAP1 DUP2 ADD PUSH1 0x40 MSTORE DUP1 SWAP3 SWAP2 SWAP1 DUP2 DUP2 MSTORE PUSH1 0x20 ADD DUP3 DUP1 SLOAD PUSH2 0x102 SWAP1 PUSH2 0x4C8 JUMP JUMPDEST DUP1 ISZERO PUSH2 0x14F JUMPI DUP1 PUSH1 0x1F LT PUSH2 0x124 JUMPI PUSH2 0x100 DUP1 DUP4 SLOAD DIV MUL DUP4 MSTORE SWAP2 PUSH1 0x20 ADD SWAP2 PUSH2 0x14F JUMP JUMPDEST DUP3 ADD SWAP2 SWAP1 PUSH1 0x0 MSTORE PUSH1 0x20 PUSH1 0x0 KECCAK256 SWAP1 JUMPDEST DUP2 SLOAD DUP2 MSTORE SWAP1 PUSH1 0x1 ADD SWAP1 PUSH1 0x20 ADD DUP1 DUP4 GT PUSH2 0x132 JUMPI DUP3 SWAP1 SUB PUSH1 0x1F AND DUP3 ADD SWAP2 JUMPDEST POP POP POP POP POP DUP2 JUMP JUMPDEST DUP3 DUP1 SLOAD PUSH2 0x163 SWAP1 PUSH2 0x4C8 JUMP JUMPDEST SWAP1 PUSH1 0x0 MSTORE PUSH1 0x20 PUSH1 0x0 KECCAK256 SWAP1 PUSH1 0x1F ADD PUSH1 0x20 SWAP1 DIV DUP2 ADD SWAP3 DUP3 PUSH2 0x185 JUMPI PUSH1 0x0 DUP6 SSTORE PUSH2 0x1CC JUMP JUMPDEST DUP3 PUSH1 0x1F LT PUSH2 0x19E JUMPI DUP1 MLOAD PUSH1 0xFF NOT AND DUP4 DUP1 ADD OR DUP6 SSTORE PUSH2 0x1CC JUMP JUMPDEST DUP3 DUP1 ADD PUSH1 0x1 ADD DUP6 SSTORE DUP3 ISZERO PUSH2 0x1CC JUMPI SWAP2 DUP3 ADD JUMPDEST DUP3 DUP2 GT ISZERO PUSH2 0x1CB JUMPI DUP3 MLOAD DUP3 SSTORE SWAP2 PUSH1 0x20 ADD SWAP2 SWAP1 PUSH1 0x1 ADD SWAP1 PUSH2 0x1B0 JUMP JUMPDEST JUMPDEST POP SWAP1 POP PUSH2 0x1D9 SWAP2 SWAP1 PUSH2 0x1DD JUMP JUMPDEST POP SWAP1 JUMP JUMPDEST JUMPDEST DUP1 DUP3 GT ISZERO PUSH2 0x1F6 JUMPI PUSH1 0x0 DUP2 PUSH1 0x0 SWAP1 SSTORE POP PUSH1 0x1 ADD PUSH2 0x1DE JUMP JUMPDEST POP SWAP1 JUMP JUMPDEST PUSH1 0x0 PUSH2 0x20D PUSH2 0x208 DUP5 PUSH2 0x3F2 JUMP JUMPDEST PUSH2 0x3CD JUMP JUMPDEST SWAP1 POP DUP3 DUP2 MSTORE PUSH1 0x20 DUP2 ADD DUP5 DUP5 DUP5 ADD GT ISZERO PUSH2 0x229 JUMPI PUSH2 0x228 PUSH2 0x58E JUMP JUMPDEST JUMPDEST PUSH2 0x234 DUP5 DUP3 DUP6 PUSH2 0x486 JUMP JUMPDEST POP SWAP4 SWAP3 POP POP POP JUMP JUMPDEST PUSH1 0x0 DUP3 PUSH1 0x1F DUP4 ADD SLT PUSH2 0x251 JUMPI PUSH2 0x250 PUSH2 0x589 JUMP JUMPDEST JUMPDEST DUP2 CALLDATALOAD PUSH2 0x261 DUP5 DUP3 PUSH1 0x20 DUP7 ADD PUSH2 0x1FA JUMP JUMPDEST SWAP2 POP POP SWAP3 SWAP2 POP POP JUMP JUMPDEST PUSH1 0x0 PUSH1 0x20 DUP3 DUP5 SUB SLT ISZERO PUSH2 0x280 JUMPI PUSH2 0x27F PUSH2 0x598 JUMP JUMPDEST JUMPDEST PUSH1 0x0 DUP3 ADD CALLDATALOAD PUSH8 0xFFFFFFFFFFFFFFFF DUP2 GT ISZERO PUSH2 0x29E JUMPI PUSH2 0x29D PUSH2 0x593 JUMP JUMPDEST JUMPDEST PUSH2 0x2AA DUP5 DUP3 DUP6 ADD PUSH2 0x23C JUMP JUMPDEST SWAP2 POP POP SWAP3 SWAP2 POP POP JUMP JUMPDEST PUSH2 0x2BC DUP2 PUSH2 0x454 JUMP JUMPDEST DUP3 MSTORE POP POP JUMP JUMPDEST PUSH1 0x0 PUSH2 0x2CD DUP3 PUSH2 0x438 JUMP JUMPDEST PUSH2 0x2D7 DUP2 DUP6 PUSH2 0x443 JUMP JUMPDEST SWAP4 POP PUSH2 0x2E7 DUP2 DUP6 PUSH1 0x20 DUP7 ADD PUSH2 0x495 JUMP JUMPDEST PUSH2 0x2F0 DUP2 PUSH2 0x59D JUMP JUMPDEST DUP5 ADD SWAP2 POP POP SWAP3 SWAP2 POP POP JUMP JUMPDEST PUSH1 0x0 DUP2 SLOAD PUSH2 0x308 DUP2 PUSH2 0x4C8 JUMP JUMPDEST PUSH2 0x312 DUP2 DUP7 PUSH2 0x443 JUMP JUMPDEST SWAP5 POP PUSH1 0x1 DUP3 AND PUSH1 0x0 DUP2 EQ PUSH2 0x32D JUMPI PUSH1 0x1 DUP2 EQ PUSH2 0x33F JUMPI PUSH2 0x372 JUMP JUMPDEST PUSH1 0xFF NOT DUP4 AND DUP7 MSTORE PUSH1 0x20 DUP7 ADD SWAP4 POP PUSH2 0x372 JUMP JUMPDEST PUSH2 0x348 DUP6 PUSH2 0x423 JUMP JUMPDEST PUSH1 0x0 JUMPDEST DUP4 DUP2 LT ISZERO PUSH2 0x36A JUMPI DUP2 SLOAD DUP2 DUP10 ADD MSTORE PUSH1 0x1 DUP3 ADD SWAP2 POP PUSH1 0x20 DUP2 ADD SWAP1 POP PUSH2 0x34B JUMP JUMPDEST DUP1 DUP9 ADD SWAP6 POP POP POP JUMPDEST POP POP POP SWAP3 SWAP2 POP POP JUMP JUMPDEST PUSH1 0x0 PUSH1 0x40 DUP3 ADD SWAP1 POP PUSH2 0x390 PUSH1 0x0 DUP4 ADD DUP6 PUSH2 0x2B3 JUMP JUMPDEST DUP2 DUP2 SUB PUSH1 0x20 DUP4 ADD MSTORE PUSH2 0x3A2 DUP2 DUP5 PUSH2 0x2FB JUMP JUMPDEST SWAP1 POP SWAP4 SWAP3 POP POP POP JUMP JUMPDEST PUSH1 0x0 PUSH1 0x20 DUP3 ADD SWAP1 POP DUP2 DUP2 SUB PUSH1 0x0 DUP4 ADD MSTORE PUSH2 0x3C5 DUP2 DUP5 PUSH2 0x2C2 JUMP JUMPDEST SWAP1 POP SWAP3 SWAP2 POP POP JUMP JUMPDEST PUSH1 0x0 PUSH2 0x3D7 PUSH2 0x3E8 JUMP JUMPDEST SWAP1 POP PUSH2 0x3E3 DUP3 DUP3 PUSH2 0x4FA JUMP JUMPDEST SWAP2 SWAP1 POP JUMP JUMPDEST PUSH1 0x0 PUSH1 0x40 MLOAD SWAP1 POP SWAP1 JUMP JUMPDEST PUSH1 0x0 PUSH8 0xFFFFFFFFFFFFFFFF DUP3 GT ISZERO PUSH2 0x40D JUMPI PUSH2 0x40C PUSH2 0x55A JUMP JUMPDEST JUMPDEST PUSH2 0x416 DUP3 PUSH2 0x59D JUMP JUMPDEST SWAP1 POP PUSH1 0x20 DUP2 ADD SWAP1 POP SWAP2 SWAP1 POP JUMP JUMPDEST PUSH1 0x0 DUP2 SWAP1 POP DUP2 PUSH1 0x0 MSTORE PUSH1 0x20 PUSH1 0x0 KECCAK256 SWAP1 POP SWAP2 SWAP1 POP JUMP JUMPDEST PUSH1 0x0 DUP2 MLOAD SWAP1 POP SWAP2 SWAP1 POP JUMP JUMPDEST PUSH1 0x0 DUP3 DUP3 MSTORE PUSH1 0x20 DUP3 ADD SWAP1 POP SWAP3 SWAP2 POP POP JUMP JUMPDEST PUSH1 0x0 PUSH2 0x45F DUP3 PUSH2 0x466 JUMP JUMPDEST SWAP1 POP SWAP2 SWAP1 POP JUMP JUMPDEST PUSH1 0x0 PUSH20 0xFFFFFFFFFFFFFFFFFFFFFFFFFFFFFFFFFFFFFFFF DUP3 AND SWAP1 POP SWAP2 SWAP1 POP JUMP JUMPDEST DUP3 DUP2 DUP4 CALLDATACOPY PUSH1 0x0 DUP4 DUP4 ADD MSTORE POP POP POP JUMP JUMPDEST PUSH1 0x0 JUMPDEST DUP4 DUP2 LT ISZERO PUSH2 0x4B3 JUMPI DUP1 DUP3 ADD MLOAD DUP2 DUP5 ADD MSTORE PUSH1 0x20 DUP2 ADD SWAP1 POP PUSH2 0x498 JUMP JUMPDEST DUP4 DUP2 GT ISZERO PUSH2 0x4C2 JUMPI PUSH1 0x0 DUP5 DUP5 ADD MSTORE JUMPDEST POP POP POP POP JUMP JUMPDEST PUSH1 0x0 PUSH1 0x2 DUP3 DIV SWAP1 POP PUSH1 0x1 DUP3 AND DUP1 PUSH2 0x4E0 JUMPI PUSH1 0x7F DUP3 AND SWAP2 POP JUMPDEST PUSH1 0x20 DUP3 LT DUP2 EQ ISZERO PUSH2 0x4F4 JUMPI PUSH2 0x4F3 PUSH2 0x52B JUMP JUMPDEST JUMPDEST POP SWAP2 SWAP1 POP JUMP JUMPDEST PUSH2 0x503 DUP3 PUSH2 0x59D JUMP JUMPDEST DUP2 ADD DUP2 DUP2 LT PUSH8 0xFFFFFFFFFFFFFFFF DUP3 GT OR ISZERO PUSH2 0x522 JUMPI PUSH2 0x521 PUSH2 0x55A JUMP JUMPDEST JUMPDEST DUP1 PUSH1 0x40 MSTORE POP POP POP JUMP JUMPDEST PUSH32 0x4E487B7100000000000000000000000000000000000000000000000000000000 PUSH1 0x0 MSTORE PUSH1 0x22 PUSH1 0x4 MSTORE PUSH1 0x24 PUSH1 0x0 REVERT JUMPDEST PUSH32 0x4E487B7100000000000000000000000000000000000000000000000000000000 PUSH1 0x0 MSTORE PUSH1 0x41 PUSH1 0x4 MSTORE PUSH1 0x24 PUSH1 0x0 REVERT JUMPDEST PUSH1 0x0 DUP1 REVERT JUMPDEST PUSH1 0x0 DUP1 REVERT JUMPDEST PUSH1 0x0 DUP1 REVERT JUMPDEST PUSH1 0x0 DUP1 REVERT JUMPDEST PUSH1 0x0 PUSH1 0x1F NOT PUSH1 0x1F DUP4 ADD AND SWAP1 POP SWAP2 SWAP1 POP JUMP INVALID LOG2 PUSH5 0x6970667358 0x22 SLT KECCAK256 0xDB PUSH32 0xE85B1D3428233768163AD2F2CF3C0F7218A65E056B92A305296223A86CB76473 PUSH16 0x6C634300080700330000000000000000 "
				},
				"gasEstimates": {
					"creation": {
						"codeDepositCost": "301600",
						"executionCost": "343",
						"totalCost": "301943"
					},
					"external": {
						"setter(string)": "infinite",
						"str()": "infinite"
					}
				},
				"methodIdentifiers": {
					"setter(string)": "846228a3",
					"str()": "c15bae84"
				}
			},
			"storageLayout": {
				"storage": [
					{
						"astId": 3,
						"contract": "contracts/Event.sol:demo",
						"label": "str",
						"offset": 0,
						"slot": "0",
						"type": "t_string_storage"
					}
				],
				"types": {
					"t_string_storage": {
						"encoding": "bytes",
						"label": "string",
						"numberOfBytes": "32"
					}
				}
			},
			"userdoc": {
				"kind": "user",
				"methods": {},
				"version": 1
			}
		}
	}
}